{
  "_format": "hh-sol-artifact-1",
  "contractName": "InviCore",
  "sourceName": "contracts/InviCore.sol",
  "abi": [
    {
      "anonymous": false,
      "inputs": [
        {
          "indexed": false,
          "internalType": "uint8",
          "name": "version",
          "type": "uint8"
        }
      ],
      "name": "Initialized",
      "type": "event"
    },
    {
      "anonymous": false,
      "inputs": [
        {
          "indexed": true,
          "internalType": "address",
          "name": "previousOwner",
          "type": "address"
        },
        {
          "indexed": true,
          "internalType": "address",
          "name": "newOwner",
          "type": "address"
        }
      ],
      "name": "OwnershipTransferred",
      "type": "event"
    },
    {
      "anonymous": false,
      "inputs": [
        {
          "indexed": true,
          "internalType": "uint256",
          "name": "amount",
          "type": "uint256"
        }
      ],
      "name": "Stake",
      "type": "event"
    },
    {
      "anonymous": false,
      "inputs": [
        {
          "indexed": true,
          "internalType": "uint256",
          "name": "amount",
          "type": "uint256"
        }
      ],
      "name": "Unstake",
      "type": "event"
    },
    {
      "stateMutability": "payable",
      "type": "fallback"
    },
    {
      "inputs": [
        {
          "internalType": "uint256",
          "name": "_lpPoolRewardPortion",
          "type": "uint256"
        },
        {
          "internalType": "uint256",
          "name": "_inviTokenStakeRewardPortion",
          "type": "uint256"
        }
      ],
      "name": "_setRewardPortion",
      "outputs": [],
      "stateMutability": "nonpayable",
      "type": "function"
    },
    {
      "inputs": [
        {
          "internalType": "address",
          "name": "_recipient",
          "type": "address"
        },
        {
          "internalType": "uint256",
          "name": "_amount",
          "type": "uint256"
        },
        {
          "internalType": "uint256",
          "name": "_protocolFee",
          "type": "uint256"
        },
        {
          "internalType": "uint256",
          "name": "_requestType",
          "type": "uint256"
        }
      ],
      "name": "createUnstakeRequest",
      "outputs": [],
      "stateMutability": "nonpayable",
      "type": "function"
    },
    {
      "inputs": [],
      "name": "distributeStKlayReward",
      "outputs": [],
      "stateMutability": "nonpayable",
      "type": "function"
    },
    {
      "inputs": [
        {
          "internalType": "uint256",
          "name": "_amount",
          "type": "uint256"
        },
        {
          "internalType": "uint256",
          "name": "_lockPeriod",
          "type": "uint256"
        }
      ],
      "name": "getExpectedReward",
      "outputs": [
        {
          "internalType": "uint256",
          "name": "",
          "type": "uint256"
        }
      ],
      "stateMutability": "view",
      "type": "function"
    },
    {
      "inputs": [
        {
          "internalType": "uint256",
          "name": "_leverageRatio",
          "type": "uint256"
        }
      ],
      "name": "getLockPeriod",
      "outputs": [
        {
          "internalType": "uint256",
          "name": "",
          "type": "uint256"
        }
      ],
      "stateMutability": "pure",
      "type": "function"
    },
    {
      "inputs": [
        {
          "internalType": "uint256",
          "name": "_lentAmount",
          "type": "uint256"
        },
        {
          "internalType": "uint256",
          "name": "_leverageRatio",
          "type": "uint256"
        }
      ],
      "name": "getProtocolFee",
      "outputs": [
        {
          "internalType": "uint256",
          "name": "",
          "type": "uint256"
        }
      ],
      "stateMutability": "view",
      "type": "function"
    },
    {
      "inputs": [
        {
          "internalType": "address",
          "name": "_account",
          "type": "address"
        },
        {
          "internalType": "uint256",
          "name": "_principal",
          "type": "uint256"
        },
        {
          "internalType": "uint256",
          "name": "_leverageRatio",
          "type": "uint256"
        },
        {
          "internalType": "uint256",
          "name": "_lockPeriod",
          "type": "uint256"
        }
      ],
      "name": "getStakeInfo",
      "outputs": [
        {
          "components": [
            {
              "internalType": "address",
              "name": "user",
              "type": "address"
            },
            {
              "internalType": "uint256",
              "name": "principal",
              "type": "uint256"
            },
            {
              "internalType": "uint256",
              "name": "leverageRatio",
              "type": "uint256"
            },
            {
              "internalType": "uint256",
              "name": "stakedAmount",
              "type": "uint256"
            },
            {
              "internalType": "uint256",
              "name": "lockPeriod",
              "type": "uint256"
            },
            {
              "internalType": "uint256",
              "name": "lockStart",
              "type": "uint256"
            },
            {
              "internalType": "uint256",
              "name": "lockEnd",
              "type": "uint256"
            },
            {
              "internalType": "uint256",
              "name": "protocolFee",
              "type": "uint256"
            },
            {
              "internalType": "bool",
              "name": "isLent",
              "type": "bool"
            }
          ],
          "internalType": "struct StakeInfo",
          "name": "",
          "type": "tuple"
        }
      ],
      "stateMutability": "view",
      "type": "function"
    },
    {
      "inputs": [
        {
          "internalType": "uint256",
          "name": "_amount",
          "type": "uint256"
        },
        {
          "internalType": "uint256",
          "name": "_leverageRatio",
          "type": "uint256"
        }
      ],
      "name": "getStakedAmount",
      "outputs": [
        {
          "internalType": "uint256",
          "name": "",
          "type": "uint256"
        }
      ],
      "stateMutability": "pure",
      "type": "function"
    },
    {
      "inputs": [],
      "name": "getTotalLiquidity",
      "outputs": [
        {
          "internalType": "uint256",
          "name": "",
          "type": "uint256"
        }
      ],
      "stateMutability": "view",
      "type": "function"
    },
    {
      "inputs": [],
      "name": "getTotalStakedAmount",
      "outputs": [
        {
          "internalType": "uint256",
          "name": "",
          "type": "uint256"
        }
      ],
      "stateMutability": "view",
      "type": "function"
    },
    {
      "inputs": [],
      "name": "getUnstakeRequestsLength",
      "outputs": [
        {
          "internalType": "uint256",
          "name": "",
          "type": "uint256"
        }
      ],
      "stateMutability": "view",
      "type": "function"
    },
    {
      "inputs": [
        {
          "internalType": "address",
          "name": "stKlayAddr",
          "type": "address"
        }
      ],
      "name": "initialize",
      "outputs": [],
      "stateMutability": "nonpayable",
      "type": "function"
    },
    {
      "inputs": [],
      "name": "inviTokenStakeContract",
      "outputs": [
        {
          "internalType": "contract InviTokenStake",
          "name": "",
          "type": "address"
        }
      ],
      "stateMutability": "view",
      "type": "function"
    },
    {
      "inputs": [],
      "name": "inviTokenStakeRewardPortion",
      "outputs": [
        {
          "internalType": "uint256",
          "name": "",
          "type": "uint256"
        }
      ],
      "stateMutability": "view",
      "type": "function"
    },
    {
      "inputs": [],
      "name": "lpPoolContract",
      "outputs": [
        {
          "internalType": "contract LiquidityProviderPool",
          "name": "",
          "type": "address"
        }
      ],
      "stateMutability": "view",
      "type": "function"
    },
    {
      "inputs": [],
      "name": "lpPoolRewardPortion",
      "outputs": [
        {
          "internalType": "uint256",
          "name": "",
          "type": "uint256"
        }
      ],
      "stateMutability": "view",
      "type": "function"
    },
    {
      "inputs": [],
      "name": "owner",
      "outputs": [
        {
          "internalType": "address",
          "name": "",
          "type": "address"
        }
      ],
      "stateMutability": "view",
      "type": "function"
    },
    {
      "inputs": [],
      "name": "renounceOwnership",
      "outputs": [],
      "stateMutability": "nonpayable",
      "type": "function"
    },
    {
      "inputs": [
        {
          "internalType": "uint256",
          "name": "_nftTokenId",
          "type": "uint256"
        }
      ],
      "name": "repayNFT",
      "outputs": [],
      "stateMutability": "nonpayable",
      "type": "function"
    },
    {
      "inputs": [],
      "name": "sendUnstakedAmount",
      "outputs": [],
      "stateMutability": "payable",
      "type": "function"
    },
    {
      "inputs": [
        {
          "internalType": "uint256",
          "name": "_decreaseRatio",
          "type": "uint256"
        }
      ],
      "name": "setDecreaseRatio",
      "outputs": [],
      "stateMutability": "nonpayable",
      "type": "function"
    },
    {
      "inputs": [
        {
          "internalType": "uint256",
          "name": "_increaseRatio",
          "type": "uint256"
        }
      ],
      "name": "setIncreaseRatio",
      "outputs": [],
      "stateMutability": "nonpayable",
      "type": "function"
    },
    {
      "inputs": [
        {
          "internalType": "address",
          "name": "_inviTokenStakeAddr",
          "type": "address"
        }
      ],
      "name": "setInviTokenStakeContract",
      "outputs": [],
      "stateMutability": "nonpayable",
      "type": "function"
    },
    {
      "inputs": [
        {
          "internalType": "address",
          "name": "_lpPoolAddr",
          "type": "address"
        }
      ],
      "name": "setLpPoolContract",
      "outputs": [],
      "stateMutability": "nonpayable",
      "type": "function"
    },
    {
      "inputs": [
        {
          "internalType": "uint256",
          "name": "_slippage",
          "type": "uint256"
        }
      ],
      "name": "setSlippage",
      "outputs": [],
      "stateMutability": "nonpayable",
      "type": "function"
    },
    {
      "inputs": [
        {
          "internalType": "address",
          "name": "_stKlayAddr",
          "type": "address"
        }
      ],
      "name": "setStKlayContract",
      "outputs": [],
      "stateMutability": "nonpayable",
      "type": "function"
    },
    {
      "inputs": [
        {
          "internalType": "address",
          "name": "_stakeManager",
          "type": "address"
        }
      ],
      "name": "setStakeManager",
      "outputs": [],
      "stateMutability": "nonpayable",
      "type": "function"
    },
    {
      "inputs": [
        {
          "internalType": "address",
          "name": "_stakeNFTAddr",
          "type": "address"
        }
      ],
      "name": "setStakeNFTContract",
      "outputs": [],
      "stateMutability": "nonpayable",
      "type": "function"
    },
    {
      "inputs": [
        {
          "internalType": "uint256",
          "name": "_stakingAPR",
          "type": "uint256"
        }
      ],
      "name": "setStakingAPR",
      "outputs": [],
      "stateMutability": "nonpayable",
      "type": "function"
    },
    {
      "inputs": [],
      "name": "slippage",
      "outputs": [
        {
          "internalType": "uint256",
          "name": "",
          "type": "uint256"
        }
      ],
      "stateMutability": "view",
      "type": "function"
    },
    {
      "inputs": [],
      "name": "stKlay",
      "outputs": [
        {
          "internalType": "contract IERC20",
          "name": "",
          "type": "address"
        }
      ],
      "stateMutability": "view",
      "type": "function"
    },
    {
      "inputs": [
        {
          "components": [
            {
              "internalType": "address",
              "name": "user",
              "type": "address"
            },
            {
              "internalType": "uint256",
              "name": "principal",
              "type": "uint256"
            },
            {
              "internalType": "uint256",
              "name": "leverageRatio",
              "type": "uint256"
            },
            {
              "internalType": "uint256",
              "name": "stakedAmount",
              "type": "uint256"
            },
            {
              "internalType": "uint256",
              "name": "lockPeriod",
              "type": "uint256"
            },
            {
              "internalType": "uint256",
              "name": "lockStart",
              "type": "uint256"
            },
            {
              "internalType": "uint256",
              "name": "lockEnd",
              "type": "uint256"
            },
            {
              "internalType": "uint256",
              "name": "protocolFee",
              "type": "uint256"
            },
            {
              "internalType": "bool",
              "name": "isLent",
              "type": "bool"
            }
          ],
          "internalType": "struct StakeInfo",
          "name": "_stakeInfo",
          "type": "tuple"
        },
        {
          "internalType": "uint256",
          "name": "_slippage",
          "type": "uint256"
        }
      ],
      "name": "stake",
      "outputs": [],
      "stateMutability": "payable",
      "type": "function"
    },
    {
      "inputs": [
        {
          "internalType": "uint256",
          "name": "_requestAmount",
          "type": "uint256"
        }
      ],
      "name": "stakeLp",
      "outputs": [],
      "stateMutability": "nonpayable",
      "type": "function"
    },
    {
      "inputs": [],
      "name": "stakeManager",
      "outputs": [
        {
          "internalType": "address",
          "name": "",
          "type": "address"
        }
      ],
      "stateMutability": "view",
      "type": "function"
    },
    {
      "inputs": [],
      "name": "stakeNFTContract",
      "outputs": [
        {
          "internalType": "contract StakeNFT",
          "name": "",
          "type": "address"
        }
      ],
      "stateMutability": "view",
      "type": "function"
    },
    {
      "inputs": [],
      "name": "stakingAPR",
      "outputs": [
        {
          "internalType": "uint256",
          "name": "",
          "type": "uint256"
        }
      ],
      "stateMutability": "view",
      "type": "function"
    },
    {
      "inputs": [
        {
          "internalType": "address",
          "name": "newOwner",
          "type": "address"
        }
      ],
      "name": "transferOwnership",
      "outputs": [],
      "stateMutability": "nonpayable",
      "type": "function"
    },
    {
      "inputs": [
        {
          "internalType": "uint256",
          "name": "_requestAmount",
          "type": "uint256"
        }
      ],
      "name": "unstakeLp",
      "outputs": [],
      "stateMutability": "nonpayable",
      "type": "function"
    },
    {
      "inputs": [
        {
          "internalType": "uint256",
          "name": "",
          "type": "uint256"
        }
      ],
      "name": "unstakeRequests",
      "outputs": [
        {
          "internalType": "address",
          "name": "recipient",
          "type": "address"
        },
        {
          "internalType": "uint256",
          "name": "amount",
          "type": "uint256"
        },
        {
          "internalType": "uint256",
          "name": "fee",
          "type": "uint256"
        },
        {
          "internalType": "uint256",
          "name": "requestType",
          "type": "uint256"
        }
      ],
      "stateMutability": "view",
      "type": "function"
    },
    {
      "inputs": [
        {
          "internalType": "uint256",
          "name": "",
          "type": "uint256"
        }
      ],
      "name": "userList",
      "outputs": [
        {
          "internalType": "address",
          "name": "",
          "type": "address"
        }
      ],
      "stateMutability": "view",
      "type": "function"
    },
    {
      "inputs": [
        {
          "internalType": "address",
          "name": "",
          "type": "address"
        }
      ],
      "name": "userStakedAmount",
      "outputs": [
        {
          "internalType": "uint256",
          "name": "",
          "type": "uint256"
        }
      ],
      "stateMutability": "view",
      "type": "function"
    },
    {
      "stateMutability": "payable",
      "type": "receive"
    }
  ],
  "bytecode": "0x608060405234801561001057600080fd5b50613408806100206000396000f3fe6080604052600436106102325760003560e01c8063923f84681161012d578063e88427de116100b0578063f55ad3ec11610077578063f55ad3ec14610669578063f6b512d814610689578063f6e847db146106a9578063f869ea97146106c9578063f87975af146106e9578063fb23f2351461073357005b8063e88427de146105d3578063eb7203fe146105f3578063f0fa55a914610609578063f2fde38b14610629578063f414eeee1461064957005b8063b4af598c116100f4578063b4af598c1461053e578063c4d66de81461055e578063cccd4a6c1461057e578063d4ef82341461059e578063da872dad146105b357005b8063923f8468146104c057806399d7c604146104e05780639be3494c146104e85780639f4216e814610508578063a84095ac1461052857005b806360e2b8f5116101b557806380aac0311161017c57806380aac031146104225780638da5cb5b146104425780638e4647ee146104605780639073db9a1461048d578063910c6b5e146104a057005b806360e2b8f51461038d578063715018a6146103ad57806373e50210146103c25780637542ff95146103e2578063769278b11461040257005b8063374c0ac0116101f9578063374c0ac0146102ea57806338adb6f01461030a5780633e032a3b1461031f578063472106e21461033557806352f088361461036d57005b80630446bb311461023b5780630943fcdf146102715780630e7c67fc146102955780632ac39725146102b557806335c7e925146102d557005b3661023957005b005b34801561024757600080fd5b5061025b610256366004612e6c565b610748565b6040516102689190612ea7565b60405180910390f35b34801561027d57600080fd5b50610287606e5481565b604051908152602001610268565b3480156102a157600080fd5b506102396102b0366004612f11565b61093c565b3480156102c157600080fd5b506102396102d0366004612e6c565b610966565b3480156102e157600080fd5b50610287610a5b565b3480156102f657600080fd5b50610239610305366004612f2e565b610ace565b34801561031657600080fd5b5061028761148f565b34801561032b57600080fd5b5061028760715481565b34801561034157600080fd5b50606854610355906001600160a01b031681565b6040516001600160a01b039091168152602001610268565b34801561037957600080fd5b50606654610355906001600160a01b031681565b34801561039957600080fd5b506102876103a8366004612f47565b611611565b3480156103b957600080fd5b506102396116a0565b3480156103ce57600080fd5b506102396103dd366004612f2e565b6116b4565b3480156103ee57600080fd5b50606954610355906001600160a01b031681565b34801561040e57600080fd5b50606554610355906001600160a01b031681565b34801561042e57600080fd5b5061023961043d366004612f2e565b6116c1565b34801561044e57600080fd5b506033546001600160a01b0316610355565b34801561046c57600080fd5b5061028761047b366004612f11565b606f6020526000908152604090205481565b61023961049b366004612fba565b61182f565b3480156104ac57600080fd5b50606754610355906001600160a01b031681565b3480156104cc57600080fd5b506102396104db366004612f2e565b611ac2565b610239611b42565b3480156104f457600080fd5b50610239610503366004612f11565b611dfc565b34801561051457600080fd5b50610355610523366004612f2e565b611e26565b34801561053457600080fd5b50610287606d5481565b34801561054a57600080fd5b50610239610559366004612f2e565b611e50565b34801561056a57600080fd5b50610239610579366004612f11565b611e5d565b34801561058a57600080fd5b50610239610599366004612f11565b611fe0565b3480156105aa57600080fd5b5061023961200a565b3480156105bf57600080fd5b506102396105ce366004612f2e565b6124b9565b3480156105df57600080fd5b506102876105ee366004612f47565b6124c6565b3480156105ff57600080fd5b50610287606a5481565b34801561061557600080fd5b50610239610624366004612f2e565b6124dc565b34801561063557600080fd5b50610239610644366004612f11565b6124e9565b34801561065557600080fd5b50610239610664366004612f11565b612562565b34801561067557600080fd5b50610287610684366004612f2e565b61258c565b34801561069557600080fd5b506102396106a4366004612f47565b612597565b3480156106b557600080fd5b506102876106c4366004612f47565b6125f0565b3480156106d557600080fd5b506102396106e4366004612f11565b6125fc565b3480156106f557600080fd5b50610709610704366004612f2e565b612626565b604080516001600160a01b0390951685526020850193909352918301526060820152608001610268565b34801561073f57600080fd5b50607054610287565b6107a260405180610120016040528060006001600160a01b03168152602001600081526020016000815260200160008152602001600081526020016000815260200160008152602001600081526020016000151581525090565b60006107ad8461258c565b9050828110156107ba5750815b600085620186a06107cb878361306d565b6107d5919061309a565b6107df91906130ae565b9050606760009054906101000a90046001600160a01b03166001600160a01b03166367114bd46040518163ffffffff1660e01b8152600401602060405180830381865afa158015610834573d6000803e3d6000fd5b505050506040513d601f19601f8201168201806040525081019061085891906130c1565b8111156040518060400160405280601e81526020017f65786365656420746865206d6178696d756d206c656e7420616d6f756e740000815250906108b85760405162461bcd60e51b81526004016108af91906130da565b60405180910390fd5b5060006108c58287611611565b90504260006108d48583613128565b905060006108e28a8a6125f0565b60408051610120810182526001600160a01b038e168152602081018d90529081018b9052606081019190915260808101969096525060a085019190915260c084015260e08301525060006101008201529050949350505050565b61094461266a565b606980546001600160a01b0319166001600160a01b0392909216919091179055565b61096e61266a565b604080516080810182526001600160a01b03958616815260208101948552908101928352606081019182526070805460018101825560009190915290517f8f6b23ffa15f0465e3176e15ca644cf24f86dc1312fe715484e3c4aead5eb78b600490920291820180546001600160a01b031916919096161790945591517f8f6b23ffa15f0465e3176e15ca644cf24f86dc1312fe715484e3c4aead5eb78c840155517f8f6b23ffa15f0465e3176e15ca644cf24f86dc1312fe715484e3c4aead5eb78d830155517f8f6b23ffa15f0465e3176e15ca644cf24f86dc1312fe715484e3c4aead5eb78e90910155565b606754604080516335c7e92560e01b815290516000926001600160a01b0316916335c7e9259160048083019260209291908290030181865afa158015610aa5573d6000803e3d6000fd5b505050506040513d601f19601f82011682018060405250810190610ac991906130c1565b905090565b606654604051631697425b60e21b8152600481018390523360248201526001600160a01b0390911690635a5d096c90604401602060405180830381865afa158015610b1d573d6000803e3d6000fd5b505050506040513d601f19601f82011682018060405250810190610b419190613146565b6040518060400160405280601081526020016f1b9bdd081e5bdd5c881bdddb881b999d60821b81525090610b885760405162461bcd60e51b81526004016108af91906130da565b5060665460405163d63ba50d60e01b8152600481018390526001600160a01b039091169063d63ba50d90602401602060405180830381865afa158015610bd2573d6000803e3d6000fd5b505050506040513d601f19601f82011682018060405250810190610bf69190613146565b6040518060400160405280601781526020017f746865206e6674206973207374696c6c206c6f636b656400000000000000000081525090610c4a5760405162461bcd60e51b81526004016108af91906130da565b506066546040516304c09a4160e11b8152600481018390526000916001600160a01b03169063098134829060240161012060405180830381865afa158015610c96573d6000803e3d6000fd5b505050506040513d601f19601f82011682018060405250810190610cba919061316e565b606654604051632bfd7df960e11b8152600481018590529192506000916001600160a01b03909116906357fafbf290602401602060405180830381865afa158015610d09573d6000803e3d6000fd5b505050506040513d601f19601f82011682018060405250810190610d2d91906130c1565b60e08301519091506000610d446103e8606461306d565b82610d526103e8606461306d565b610d5c91906130ae565b610d66908561306d565b610d70919061309a565b90506000610d7e82856130ae565b905060006103e8606d5483610d93919061306d565b610d9d919061309a565b905060006103e8606e5484610db2919061306d565b610dbc919061309a565b60665460608901516040805163567e98f960e01b815290519394506001600160a01b039092169263ecc9747e92849163567e98f9916004808201926020929091908290030181865afa158015610e16573d6000803e3d6000fd5b505050506040513d601f19601f82011682018060405250810190610e3a91906130c1565b610e4491906130ae565b6040518263ffffffff1660e01b8152600401610e6291815260200190565b600060405180830381600087803b158015610e7c57600080fd5b505af1158015610e90573d6000803e3d6000fd5b505060675460208a015160608b01516001600160a01b03909216935063ecc9747e9250610ebc916130ae565b606760009054906101000a90046001600160a01b03166001600160a01b031663567e98f96040518163ffffffff1660e01b8152600401602060405180830381865afa158015610f0f573d6000803e3d6000fd5b505050506040513d601f19601f82011682018060405250810190610f3391906130c1565b610f3d9190613128565b6040518263ffffffff1660e01b8152600401610f5b91815260200190565b600060405180830381600087803b158015610f7557600080fd5b505af1158015610f89573d6000803e3d6000fd5b505060675460208a015160608b01516001600160a01b03909216935063a42b88bd9250610fb5916130ae565b606760009054906101000a90046001600160a01b03166001600160a01b03166343f7f7406040518163ffffffff1660e01b8152600401602060405180830381865afa158015611008573d6000803e3d6000fd5b505050506040513d601f19601f8201168201806040525081019061102c91906130c1565b61103691906130ae565b6040518263ffffffff1660e01b815260040161105491815260200190565b600060405180830381600087803b15801561106e57600080fd5b505af1158015611082573d6000803e3d6000fd5b5050505060006040518060800160405280336001600160a01b03168152602001868a602001516110b29190613128565b81526020018960e0015181526020016000815250905060006040518060800160405280606760009054906101000a90046001600160a01b03166001600160a01b03168152602001858152602001600081526020016001815250905060006040518060800160405280606860009054906101000a90046001600160a01b03166001600160a01b031681526020018581526020016000815260200160028152509050607083908060018154018082558091505060019003906000526020600020906004020160009091909190915060008201518160000160006101000a8154816001600160a01b0302191690836001600160a01b031602179055506020820151816001015560408201518160020155606082015181600301555050607082908060018154018082558091505060019003906000526020600020906004020160009091909190915060008201518160000160006101000a8154816001600160a01b0302191690836001600160a01b031602179055506020820151816001015560408201518160020155606082015181600301555050607081908060018154018082558091505060019003906000526020600020906004020160009091909190915060008201518160000160006101000a8154816001600160a01b0302191690836001600160a01b031602179055506020820151816001015560408201518160020155606082015181600301555050606660009054906101000a90046001600160a01b03166001600160a01b03166323b872dd33308e6040518463ffffffff1660e01b8152600401611321939291906001600160a01b039384168152919092166020820152604081019190915260600190565b600060405180830381600087803b15801561133b57600080fd5b505af115801561134f573d6000803e3d6000fd5b5050606654604051633d5ee6cb60e01b8152600481018f90526001600160a01b039091169250633d5ee6cb91506024016020604051808303816000875af115801561139e573d6000803e3d6000fd5b505050506040513d601f19601f820116820180604052508101906113c29190613146565b50606654604051632890e0d760e01b8152600481018d90526001600160a01b0390911690632890e0d7906024016020604051808303816000875af115801561140e573d6000803e3d6000fd5b505050506040513d601f19601f820116820180604052508101906114329190613146565b508385888c602001516114459190613128565b61144f9190613128565b6114599190613128565b6040517ff1f1db1ecefb0a90b3cd6a1903d29374b4a935df69fd25c7fc6ed397d3683c2690600090a25050505050505050505050565b600080606760009054906101000a90046001600160a01b03166001600160a01b03166343f7f7406040518163ffffffff1660e01b8152600401602060405180830381865afa1580156114e5573d6000803e3d6000fd5b505050506040513d601f19601f8201168201806040525081019061150991906130c1565b606760009054906101000a90046001600160a01b03166001600160a01b031663567e98f96040518163ffffffff1660e01b8152600401602060405180830381865afa15801561155c573d6000803e3d6000fd5b505050506040513d601f19601f8201168201806040525081019061158091906130c1565b606660009054906101000a90046001600160a01b03166001600160a01b031663567e98f96040518163ffffffff1660e01b8152600401602060405180830381865afa1580156115d3573d6000803e3d6000fd5b505050506040513d601f19601f820116820180604052508101906115f791906130c1565b6116019190613128565b61160b91906130ae565b92915050565b600080606760009054906101000a90046001600160a01b03166001600160a01b03166335c7e9256040518163ffffffff1660e01b8152600401602060405180830381865afa158015611667573d6000803e3d6000fd5b505050506040513d601f19601f8201168201806040525081019061168b91906130c1565b90506116988484836126c4565b949350505050565b6116a861266a565b6116b26000612727565b565b6116bc61266a565b606a55565b60675460408051808201909152600e81526d1b9bdd08185d5d1a1bdc9a5e995960921b6020820152906001600160a01b031633146117125760405162461bcd60e51b81526004016108af91906130da565b50604080516080810182526067546001600160a01b039081168252602082018481526000838501818152600160608601818152607080549283018155845286517f8f6b23ffa15f0465e3176e15ca644cf24f86dc1312fe715484e3c4aead5eb78b600490930292830180546001600160a01b031916919097161790955592517f8f6b23ffa15f0465e3176e15ca644cf24f86dc1312fe715484e3c4aead5eb78c840155517f8f6b23ffa15f0465e3176e15ca644cf24f86dc1312fe715484e3c4aead5eb78d83015591517f8f6b23ffa15f0465e3176e15ca644cf24f86dc1312fe715484e3c4aead5eb78e909101559151909183917ff1f1db1ecefb0a90b3cd6a1903d29374b4a935df69fd25c7fc6ed397d3683c269190a25050565b61183b82823334612779565b60665460405163b1cc226560e01b81526001600160a01b039091169063b1cc22659061186b908590600401612ea7565b6020604051808303816000875af115801561188a573d6000803e3d6000fd5b505050506040513d601f19601f820116820180604052508101906118ae91906130c1565b506000826020015183606001516118c591906130ae565b9050600081606760009054906101000a90046001600160a01b03166001600160a01b03166343f7f7406040518163ffffffff1660e01b8152600401602060405180830381865afa15801561191d573d6000803e3d6000fd5b505050506040513d601f19601f8201168201806040525081019061194191906130c1565b61194b9190613128565b60675460405163a42b88bd60e01b8152600481018390529192506001600160a01b03169063a42b88bd90602401600060405180830381600087803b15801561199257600080fd5b505af11580156119a6573d6000803e3d6000fd5b50506072805460018101825560009182527fdffbd64cc7c1a7eb27984335d9416d51137a03d3fabec7141025c62663253fe10180546001600160a01b0319163317905560695460208801516040519294506001600160a01b039091169250908381818185875af1925050503d8060008114611a3d576040519150601f19603f3d011682016040523d82523d6000602084013e611a42565b606091505b50509050806040518060400160405280600e81526020016d19985a5b1959081d1bc81cd95b9960921b81525090611a8c5760405162461bcd60e51b81526004016108af91906130da565b5060208501516040517f227a473b70d2f893cc7659219575c030a63b5743024fe1e0c1a680e708b1525a90600090a25050505050565b60675460408051808201909152600e81526d1b9bdd08185d5d1a1bdc9a5e995960921b6020820152906001600160a01b03163314611b135760405162461bcd60e51b81526004016108af91906130da565b5060405181907f227a473b70d2f893cc7659219575c030a63b5743024fe1e0c1a680e708b1525a90600090a250565b60695460408051808201909152600e81526d1b9bdd08185d5d1a1bdc9a5e995960921b6020820152906001600160a01b03163314611b935760405162461bcd60e51b81526004016108af91906130da565b505b60705415801590611bcb5750476070600081548110611bb657611bb66131f3565b90600052602060002090600402016001015411155b156116b25760006070600081548110611be657611be66131f3565b906000526020600020906004020160030154905060006070600081548110611c1057611c106131f3565b906000526020600020906004020160010154905060006070600081548110611c3a57611c3a6131f3565b600091825260208220600490910201546001600160a01b03169150611c6190607090612be0565b82600003611d0c576000816001600160a01b03168360405160006040518083038185875af1925050503d8060008114611cb6576040519150601f19603f3d011682016040523d82523d6000602084013e611cbb565b606091505b50509050806040518060400160405280600e81526020016d19985a5b1959081d1bc81cd95b9960921b81525090611d055760405162461bcd60e51b81526004016108af91906130da565b5050611df4565b82600103611d8257606760009054906101000a90046001600160a01b03166001600160a01b031663befd63c4836040518263ffffffff1660e01b81526004016000604051808303818588803b158015611d6457600080fd5b505af1158015611d78573d6000803e3d6000fd5b5050505050611df4565b82600203611df457606860009054906101000a90046001600160a01b03166001600160a01b03166392d6d4eb836040518263ffffffff1660e01b81526004016000604051808303818588803b158015611dda57600080fd5b505af1158015611dee573d6000803e3d6000fd5b50505050505b505050611b95565b611e0461266a565b606580546001600160a01b0319166001600160a01b0392909216919091179055565b60728181548110611e3657600080fd5b6000918252602090912001546001600160a01b0316905081565b611e5861266a565b606b55565b600054610100900460ff1615808015611e7d5750600054600160ff909116105b80611e975750303b158015611e97575060005460ff166001145b611efa5760405162461bcd60e51b815260206004820152602e60248201527f496e697469616c697a61626c653a20636f6e747261637420697320616c72656160448201526d191e481a5b9a5d1a585b1a5e995960921b60648201526084016108af565b6000805460ff191660011790558015611f1d576000805461ff0019166101001790555b611f25612d23565b606580546001600160a01b0319166001600160a01b038416179055611f4d6103e8600561306d565b607155611f5d6103e8600a61306d565b606b55611f6d6103e8600561306d565b606c55611f7c6064600a61306d565b606a556102bc606d819055611f93906103e86130ae565b606e558015611fdc576000805461ff0019169055604051600181527f7f26b83ff96e1f2b6a682f133852f6798a09c465da95921460cefb38474024989060200160405180910390a15b5050565b611fe861266a565b606880546001600160a01b0319166001600160a01b0392909216919091179055565b61201261266a565b6067546040805163010fdfdd60e61b815290516000926001600160a01b0316916343f7f7409160048083019260209291908290030181865afa15801561205c573d6000803e3d6000fd5b505050506040513d601f19601f8201168201806040525081019061208091906130c1565b606760009054906101000a90046001600160a01b03166001600160a01b031663567e98f96040518163ffffffff1660e01b8152600401602060405180830381865afa1580156120d3573d6000803e3d6000fd5b505050506040513d601f19601f820116820180604052508101906120f791906130c1565b606660009054906101000a90046001600160a01b03166001600160a01b031663567e98f96040518163ffffffff1660e01b8152600401602060405180830381865afa15801561214a573d6000803e3d6000fd5b505050506040513d601f19601f8201168201806040525081019061216e91906130c1565b6121789190613128565b61218291906130ae565b6065546069546040516370a0823160e01b81526001600160a01b039182166004820152929350600092849291909116906370a0823190602401602060405180830381865afa1580156121d8573d6000803e3d6000fd5b505050506040513d601f19601f820116820180604052508101906121fc91906130c1565b61220691906130ae565b9050600082606660009054906101000a90046001600160a01b03166001600160a01b031663567e98f96040518163ffffffff1660e01b8152600401602060405180830381865afa15801561225e573d6000803e3d6000fd5b505050506040513d601f19601f8201168201806040525081019061228291906130c1565b61228c908461306d565b612296919061309a565b905060006103e8606d5483856122ac91906130ae565b6122b6919061306d565b6122c0919061309a565b90506000816122cf84866130ae565b6122d991906130ae565b60408051608080820183526067546001600160a01b039081168352602080840188905260008486018190526001606080870191909152865194850187526068548416855291840187905283860152600290830152606654935163425c8abd60e01b815260048101899052949550919390929091169063425c8abd90602401600060405180830381600087803b15801561237157600080fd5b505af1158015612385573d6000803e3d6000fd5b50505050607082908060018154018082558091505060019003906000526020600020906004020160009091909190915060008201518160000160006101000a8154816001600160a01b0302191690836001600160a01b031602179055506020820151816001015560408201518160020155606082015181600301555050607081908060018154018082558091505060019003906000526020600020906004020160009091909190915060008201518160000160006101000a8154816001600160a01b0302191690836001600160a01b03160217905550602082015181600101556040820151816002015560608201518160030155505082846124879190613128565b6040517ff1f1db1ecefb0a90b3cd6a1903d29374b4a935df69fd25c7fc6ed397d3683c2690600090a250505050505050565b6124c161266a565b606c55565b60006124d58383606a54612d52565b9392505050565b6124e461266a565b607155565b6124f161266a565b6001600160a01b0381166125565760405162461bcd60e51b815260206004820152602660248201527f4f776e61626c653a206e6577206f776e657220697320746865207a65726f206160448201526564647265737360d01b60648201526084016108af565b61255f81612727565b50565b61256a61266a565b606780546001600160a01b0319166001600160a01b0392909216919091179055565b600061160b82612d97565b61259f61266a565b6103e86125ac8284613128565b146040518060800160405280604b8152602001613388604b9139906125e45760405162461bcd60e51b81526004016108af91906130da565b50606d91909155606e55565b60006124d58383612dfd565b61260461266a565b606680546001600160a01b0319166001600160a01b0392909216919091179055565b6070818154811061263657600080fd5b600091825260209091206004909102018054600182015460028301546003909301546001600160a01b039092169350919084565b6033546001600160a01b031633146116b25760405162461bcd60e51b815260206004820181905260248201527f4f776e61626c653a2063616c6c6572206973206e6f7420746865206f776e657260448201526064016108af565b6000610168816126d76103e8600261306d565b9050806103e86126ea620186a08761306d565b876126f58a8761306d565b6126ff919061306d565b612709919061309a565b612713919061306d565b61271d9190613128565b9695505050505050565b603380546001600160a01b038381166001600160a01b0319831681179093556040519116919082907f8be0079c531659141344cd1fd0a4f28419497f9722a3daafe3b4186f6b6457e090600090a35050565b816001600160a01b031684600001516001600160a01b03161460405180604001604052806012815260200171696e76616c6964207374616b6520696e666f60701b815250906127db5760405162461bcd60e51b81526004016108af91906130da565b508084602001511460405180604001604052806012815260200171696e76616c6964207374616b6520696e666f60701b8152509061282c5760405162461bcd60e51b81526004016108af91906130da565b50600061283c856040015161258c565b9050808560800151101560405180604001604052806012815260200171696e76616c6964207374616b6520696e666f60701b8152509061288f5760405162461bcd60e51b81526004016108af91906130da565b50600061289f6201518042613209565b6128a990426130ae565b9050808660a00151101580156128cf57506128c78162015180613128565b8660a0015111155b60405180604001604052806012815260200171696e76616c6964207374616b6520696e666f60701b815250906129185760405162461bcd60e51b81526004016108af91906130da565b5085608001518660a001518760c0015161293291906130ae565b1460405180604001604052806012815260200171696e76616c6964207374616b6520696e666f60701b8152509061297c5760405162461bcd60e51b81526004016108af91906130da565b506000620186a061298e81600161306d565b886040015161299d91906130ae565b88602001516129ac919061306d565b6129b6919061309a565b9050606760009054906101000a90046001600160a01b03166001600160a01b03166367114bd46040518163ffffffff1660e01b8152600401602060405180830381865afa158015612a0b573d6000803e3d6000fd5b505050506040513d601f19601f82011682018060405250810190612a2f91906130c1565b811115604051806040016040528060148152602001731d1bdbc81b5d58da081b195b9d08185b5bdd5b9d60621b81525090612a7d5760405162461bcd60e51b81526004016108af91906130da565b506000620186a088604001518960200151612a98919061306d565b612aa2919061309a565b90506000612ab36103e8606461306d565b88612ac16103e8606461306d565b612acb91906130ae565b8a60e00151612ada919061306d565b612ae4919061309a565b90506000612af56103e8606461306d565b89612b036103e8606461306d565b612b0d9190613128565b8b60e00151612b1c919061306d565b612b26919061309a565b90506000612b38858c60400151611611565b90508083111560405180604001604052806012815260200171696e76616c6964207374616b6520696e666f60701b81525090612b875760405162461bcd60e51b81526004016108af91906130da565b50604080518082019091526012815271696e76616c6964207374616b6520696e666f60701b602082015281831015612bd25760405162461bcd60e51b81526004016108af91906130da565b505050505050505050505050565b81548110612c265760405162461bcd60e51b8152602060048201526013602482015272496e646578206f7574206f6620626f756e647360681b60448201526064016108af565b805b8254612c36906001906130ae565b811015612cd75782612c49826001613128565b81548110612c5957612c596131f3565b9060005260206000209060040201838281548110612c7957612c796131f3565b60009182526020909120825460049092020180546001600160a01b0319166001600160a01b03909216919091178155600180830154908201556002808301549082015560039182015491015580612ccf8161321d565b915050612c28565b5081805480612ce857612ce8613236565b60008281526020812060046000199093019283020180546001600160a01b031916815560018101829055600281018290556003015590555050565b600054610100900460ff16612d4a5760405162461bcd60e51b81526004016108af9061324c565b6116b2612e17565b60006301e13380612d6460648261306d565b612d6f90606461306d565b83612d7a868861306d565b612d84919061306d565b612d8e919061309a565b95945050505050565b600062015180600a600360326105a0808583612db686620186a061337b565b612dc0878c61337b565b612dca908961306d565b612dd4919061309a565b612dde9190613128565b612de8919061306d565b612df2919061309a565b979650505050505050565b6000620186a0612e0d838561306d565b6124d5919061309a565b600054610100900460ff16612e3e5760405162461bcd60e51b81526004016108af9061324c565b6116b233612727565b6001600160a01b038116811461255f57600080fd5b8035612e6781612e47565b919050565b60008060008060808587031215612e8257600080fd5b8435612e8d81612e47565b966020860135965060408601359560600135945092505050565b81516001600160a01b031681526020808301519082015260408083015190820152606080830151908201526080808301519082015260a0828101519082015260c0808301519082015260e08083015190820152610100918201511515918101919091526101200190565b600060208284031215612f2357600080fd5b81356124d581612e47565b600060208284031215612f4057600080fd5b5035919050565b60008060408385031215612f5a57600080fd5b50508035926020909101359150565b604051610120810167ffffffffffffffff81118282101715612f9b57634e487b7160e01b600052604160045260246000fd5b60405290565b801515811461255f57600080fd5b8035612e6781612fa1565b600080828403610140811215612fcf57600080fd5b61012080821215612fdf57600080fd5b612fe7612f69565b9150612ff285612e5c565b82526020850135602083015260408501356040830152606085013560608301526080850135608083015260a085013560a083015260c085013560c083015260e085013560e0830152610100613048818701612faf565b90830152909593013593505050565b634e487b7160e01b600052601160045260246000fd5b808202811582820484141761160b5761160b613057565b634e487b7160e01b600052601260045260246000fd5b6000826130a9576130a9613084565b500490565b8181038181111561160b5761160b613057565b6000602082840312156130d357600080fd5b5051919050565b600060208083528351808285015260005b81811015613107578581018301518582016040015282016130eb565b506000604082860101526040601f19601f8301168501019250505092915050565b8082018082111561160b5761160b613057565b8051612e6781612fa1565b60006020828403121561315857600080fd5b81516124d581612fa1565b8051612e6781612e47565b6000610120828403121561318157600080fd5b613189612f69565b61319283613163565b81526020830151602082015260408301516040820152606083015160608201526080830151608082015260a083015160a082015260c083015160c082015260e083015160e08201526101006131e881850161313b565b908201529392505050565b634e487b7160e01b600052603260045260246000fd5b60008261321857613218613084565b500690565b60006001820161322f5761322f613057565b5060010190565b634e487b7160e01b600052603160045260246000fd5b6020808252602b908201527f496e697469616c697a61626c653a20636f6e7472616374206973206e6f74206960408201526a6e697469616c697a696e6760a81b606082015260800190565b600181815b808511156132d25781600019048211156132b8576132b8613057565b808516156132c557918102915b93841c939080029061329c565b509250929050565b6000826132e95750600161160b565b816132f65750600061160b565b816001811461330c576002811461331657613332565b600191505061160b565b60ff84111561332757613327613057565b50506001821b61160b565b5060208310610133831016604e8410600b8410161715613355575081810a61160b565b61335f8383613297565b806000190482111561337357613373613057565b029392505050565b60006124d583836132da56fe6c7020706f6f6c20706f7274696f6e202b20696e7669207374616b6520706f7274696f6e2073686f756c6420657175616c20746f20726577617264506f7274696f6e546f74616c556e6974a264697066735822122020e61bc6fda6742ed3311c491b65c3f4e53a1cd5813d820d74bb864751920ef664736f6c63430008120033",
  "linkReferences": {},
  "deployedLinkReferences": {}
}