{
  "_format": "hh-sol-artifact-1",
  "contractName": "LendingPool",
  "sourceName": "contracts/LendingPool.sol",
  "abi": [
    {
      "anonymous": false,
      "inputs": [
        {
          "indexed": false,
          "internalType": "uint8",
          "name": "version",
          "type": "uint8"
        }
      ],
      "name": "Initialized",
      "type": "event"
    },
    {
      "anonymous": false,
      "inputs": [
        {
          "indexed": true,
          "internalType": "address",
          "name": "previousOwner",
          "type": "address"
        },
        {
          "indexed": true,
          "internalType": "address",
          "name": "newOwner",
          "type": "address"
        }
      ],
      "name": "OwnershipTransferred",
      "type": "event"
    },
    {
      "inputs": [
        {
          "internalType": "uint256",
          "name": "_nftId",
          "type": "uint256"
        },
        {
          "internalType": "uint256",
          "name": "_slippage",
          "type": "uint256"
        }
      ],
      "name": "createLendInfo",
      "outputs": [
        {
          "components": [
            {
              "internalType": "address",
              "name": "user",
              "type": "address"
            },
            {
              "internalType": "uint256",
              "name": "nftId",
              "type": "uint256"
            },
            {
              "internalType": "uint256",
              "name": "principal",
              "type": "uint256"
            },
            {
              "internalType": "uint256",
              "name": "minLendAmount",
              "type": "uint256"
            },
            {
              "internalType": "uint256",
              "name": "lentAmount",
              "type": "uint256"
            }
          ],
          "internalType": "struct LendInfo",
          "name": "",
          "type": "tuple"
        }
      ],
      "stateMutability": "view",
      "type": "function"
    },
    {
      "inputs": [
        {
          "internalType": "uint256",
          "name": "_nftId",
          "type": "uint256"
        }
      ],
      "name": "getLendInfo",
      "outputs": [
        {
          "components": [
            {
              "internalType": "address",
              "name": "user",
              "type": "address"
            },
            {
              "internalType": "uint256",
              "name": "nftId",
              "type": "uint256"
            },
            {
              "internalType": "uint256",
              "name": "principal",
              "type": "uint256"
            },
            {
              "internalType": "uint256",
              "name": "minLendAmount",
              "type": "uint256"
            },
            {
              "internalType": "uint256",
              "name": "lentAmount",
              "type": "uint256"
            }
          ],
          "internalType": "struct LendInfo",
          "name": "",
          "type": "tuple"
        }
      ],
      "stateMutability": "view",
      "type": "function"
    },
    {
      "inputs": [
        {
          "internalType": "address",
          "name": "inviTokenAddr",
          "type": "address"
        }
      ],
      "name": "initialize",
      "outputs": [],
      "stateMutability": "nonpayable",
      "type": "function"
    },
    {
      "inputs": [],
      "name": "inviToken",
      "outputs": [
        {
          "internalType": "contract InviToken",
          "name": "",
          "type": "address"
        }
      ],
      "stateMutability": "view",
      "type": "function"
    },
    {
      "inputs": [
        {
          "components": [
            {
              "internalType": "address",
              "name": "user",
              "type": "address"
            },
            {
              "internalType": "uint256",
              "name": "nftId",
              "type": "uint256"
            },
            {
              "internalType": "uint256",
              "name": "principal",
              "type": "uint256"
            },
            {
              "internalType": "uint256",
              "name": "minLendAmount",
              "type": "uint256"
            },
            {
              "internalType": "uint256",
              "name": "lentAmount",
              "type": "uint256"
            }
          ],
          "internalType": "struct LendInfo",
          "name": "_lendInfo",
          "type": "tuple"
        }
      ],
      "name": "lend",
      "outputs": [],
      "stateMutability": "nonpayable",
      "type": "function"
    },
    {
      "inputs": [
        {
          "internalType": "uint256",
          "name": "",
          "type": "uint256"
        }
      ],
      "name": "lendInfos",
      "outputs": [
        {
          "internalType": "address",
          "name": "user",
          "type": "address"
        },
        {
          "internalType": "uint256",
          "name": "nftId",
          "type": "uint256"
        },
        {
          "internalType": "uint256",
          "name": "principal",
          "type": "uint256"
        },
        {
          "internalType": "uint256",
          "name": "minLendAmount",
          "type": "uint256"
        },
        {
          "internalType": "uint256",
          "name": "lentAmount",
          "type": "uint256"
        }
      ],
      "stateMutability": "view",
      "type": "function"
    },
    {
      "inputs": [],
      "name": "maxLendRatio",
      "outputs": [
        {
          "internalType": "uint256",
          "name": "",
          "type": "uint256"
        }
      ],
      "stateMutability": "view",
      "type": "function"
    },
    {
      "inputs": [],
      "name": "owner",
      "outputs": [
        {
          "internalType": "address",
          "name": "",
          "type": "address"
        }
      ],
      "stateMutability": "view",
      "type": "function"
    },
    {
      "inputs": [],
      "name": "priceManager",
      "outputs": [
        {
          "internalType": "contract PriceManager",
          "name": "",
          "type": "address"
        }
      ],
      "stateMutability": "view",
      "type": "function"
    },
    {
      "inputs": [],
      "name": "renounceOwnership",
      "outputs": [],
      "stateMutability": "nonpayable",
      "type": "function"
    },
    {
      "inputs": [
        {
          "internalType": "uint256",
          "name": "nftId",
          "type": "uint256"
        }
      ],
      "name": "repay",
      "outputs": [],
      "stateMutability": "nonpayable",
      "type": "function"
    },
    {
      "inputs": [
        {
          "internalType": "uint256",
          "name": "_maxLendRatio",
          "type": "uint256"
        }
      ],
      "name": "setMaxLendRatio",
      "outputs": [],
      "stateMutability": "nonpayable",
      "type": "function"
    },
    {
      "inputs": [
        {
          "internalType": "address",
          "name": "_priceManager",
          "type": "address"
        }
      ],
      "name": "setPriceManager",
      "outputs": [],
      "stateMutability": "nonpayable",
      "type": "function"
    },
    {
      "inputs": [
        {
          "internalType": "address",
          "name": "_stakeNFTContract",
          "type": "address"
        }
      ],
      "name": "setStakeNFTContract",
      "outputs": [],
      "stateMutability": "nonpayable",
      "type": "function"
    },
    {
      "inputs": [],
      "name": "stakeNFTContract",
      "outputs": [
        {
          "internalType": "contract StakeNFT",
          "name": "",
          "type": "address"
        }
      ],
      "stateMutability": "view",
      "type": "function"
    },
    {
      "inputs": [],
      "name": "totalLentAmount",
      "outputs": [
        {
          "internalType": "uint256",
          "name": "",
          "type": "uint256"
        }
      ],
      "stateMutability": "view",
      "type": "function"
    },
    {
      "inputs": [
        {
          "internalType": "address",
          "name": "newOwner",
          "type": "address"
        }
      ],
      "name": "transferOwnership",
      "outputs": [],
      "stateMutability": "nonpayable",
      "type": "function"
    }
  ],
  "bytecode": "0x608060405234801561001057600080fd5b5061158f806100206000396000f3fe608060405234801561001057600080fd5b506004361061010b5760003560e01c80638da5cb5b116100a2578063be57c1b311610071578063be57c1b3146102b0578063c4d66de8146102c3578063c7e1ffe3146102d6578063f2fde38b146102e9578063f869ea97146102fc57600080fd5b80638da5cb5b1461020a5780639eb312841461021b578063b7c141c91461022e578063b87f90c1146102a757600080fd5b80634e932e72116100de5780634e932e72146101b157806352f08836146101c45780636cf9282f146101ef578063715018a61461020257600080fd5b80630630c8611461011057806322cf46e214610125578063371fd8e61461018757806343f7f7401461019a575b600080fd5b61012361011e36600461125f565b61030f565b005b6101386101333660046112e6565b61046f565b60405161017e919081516001600160a01b031681526020808301519082015260408083015190820152606080830151908201526080918201519181019190915260a00190565b60405180910390f35b610123610195366004611308565b6105d0565b6101a360695481565b60405190815260200161017e565b6101386101bf366004611308565b610902565b6066546101d7906001600160a01b031681565b6040516001600160a01b03909116815260200161017e565b6101236101fd366004611321565b6109c6565b6101236109f0565b6033546001600160a01b03166101d7565b6065546101d7906001600160a01b031681565b61027561023c366004611308565b606a60205260009081526040902080546001820154600283015460038401546004909401546001600160a01b0390931693919290919085565b604080516001600160a01b0390961686526020860194909452928401919091526060830152608082015260a00161017e565b6101a360685481565b6101236102be366004611308565b610a04565b6101236102d1366004611321565b610a11565b6067546101d7906001600160a01b031681565b6101236102f7366004611321565b610b59565b61012361030a366004611321565b610bd2565b600061031b8233610bfc565b6080830181905260698054919250829160009061033990849061135b565b9091555050602082810180516000908152606a909252604091829020845181546001600160a01b0319166001600160a01b039182161782559151600180830182905584870151600284015560608701516003840155608087015160049384015560665494516309214f0960e01b81529283019190915260248201529116906309214f0990604401600060405180830381600087803b1580156103da57600080fd5b505af11580156103ee573d6000803e3d6000fd5b5050606554845160405163a9059cbb60e01b81526001600160a01b039182166004820152602481018690529116925063a9059cbb91506044016020604051808303816000875af1158015610446573d6000803e3d6000fd5b505050506040513d601f19601f8201168201806040525081019061046a9190611383565b505050565b6104776111da565b61048083610d8f565b6066546040516304c09a4160e11b8152600481018590526000916001600160a01b03169063098134829060240161012060405180830381865afa1580156104cb573d6000803e3d6000fd5b505050506040513d601f19601f820116820180604052508101906104ef91906113a9565b905060006105008260200151610dd4565b905061052a6040518060400160405280600681526020016503632b7321d160d51b81525082610f97565b60006105396103e8606461142e565b856105476103e8606461142e565b6105519190611445565b61055b908461142e565b6105659190611458565b90506105936040518060400160405280600a815260200169036b4b7103632b7321d160b51b81525082610f97565b6040805160a08101825284516001600160a01b03168152602080820189905290940151908401526060830152506000608082015290505b92915050565b606654604051631697425b60e21b8152600481018390523360248201526001600160a01b0390911690635a5d096c90604401602060405180830381865afa15801561061f573d6000803e3d6000fd5b505050506040513d601f19601f820116820180604052508101906106439190611383565b60408051808201909152600d81526c3737ba1037333a1037bbb732b960991b60208201529015156001146106935760405162461bcd60e51b815260040161068a91906114c0565b60405180910390fd5b506000818152606a6020908152604091829020825160a08101845281546001600160a01b0316808252600183015482850152600283015482860152600383015460608301526004909201546080820152835180850190945260138452726e6f7420666f756e64206c656e6420696e666f60681b9284019290925290919061072d5760405162461bcd60e51b815260040161068a91906114c0565b506065546040516370a0823160e01b81523360048201526001600160a01b03909116906370a0823190602401602060405180830381865afa158015610776573d6000803e3d6000fd5b505050506040513d601f19601f8201168201806040525081019061079a91906114d3565b8160800151111560405180604001604052806014815260200173696e73756666696369656e742062616c616e636560601b815250906107ec5760405162461bcd60e51b815260040161068a91906114c0565b5060655460808201516040516323b872dd60e01b815233600482015230602482015260448101919091526001600160a01b03909116906323b872dd906064016020604051808303816000875af115801561084a573d6000803e3d6000fd5b505050506040513d601f19601f8201168201806040525081019061086e9190611383565b508060800151606960008282546108859190611445565b909155505060665460208201516040516309214f0960e01b81526004810191909152600060248201526001600160a01b03909116906309214f0990604401600060405180830381600087803b1580156108dd57600080fd5b505af11580156108f1573d6000803e3d6000fd5b505050506108fe82610fdc565b5050565b61090a6111da565b6000828152606a602090815260409182902054825180840190935260138352726e6f7420666f756e64206c656e6420696e666f60681b918301919091526001600160a01b031661096d5760405162461bcd60e51b815260040161068a91906114c0565b50506000908152606a6020908152604091829020825160a08101845281546001600160a01b0316815260018201549281019290925260028101549282019290925260038201546060820152600490910154608082015290565b6109ce6110ae565b606780546001600160a01b0319166001600160a01b0392909216919091179055565b6109f86110ae565b610a026000611108565b565b610a0c6110ae565b606855565b600054610100900460ff1615808015610a315750600054600160ff909116105b80610a4b5750303b158015610a4b575060005460ff166001145b610aae5760405162461bcd60e51b815260206004820152602e60248201527f496e697469616c697a61626c653a20636f6e747261637420697320616c72656160448201526d191e481a5b9a5d1a585b1a5e995960921b606482015260840161068a565b6000805460ff191660011790558015610ad1576000805461ff0019166101001790555b610ad961115a565b606580546001600160a01b0319166001600160a01b0384161790556064610b036103e8605f61142e565b610b0d9190611458565b60685580156108fe576000805461ff0019169055604051600181527f7f26b83ff96e1f2b6a682f133852f6798a09c465da95921460cefb38474024989060200160405180910390a15050565b610b616110ae565b6001600160a01b038116610bc65760405162461bcd60e51b815260206004820152602660248201527f4f776e61626c653a206e6577206f776e657220697320746865207a65726f206160448201526564647265737360d01b606482015260840161068a565b610bcf81611108565b50565b610bda6110ae565b606680546001600160a01b0319166001600160a01b0392909216919091179055565b6000816001600160a01b031683600001516001600160a01b03161460405180604001604052806011815260200170696e76616c6964206c656e6420696e666f60781b81525090610c5f5760405162461bcd60e51b815260040161068a91906114c0565b5060665460208401518451604051631697425b60e21b815260048101929092526001600160a01b03908116602483015290911690635a5d096c90604401602060405180830381865afa158015610cb9573d6000803e3d6000fd5b505050506040513d601f19601f82011682018060405250810190610cdd9190611383565b60405180604001604052806011815260200170696e76616c6964206c656e6420696e666f60781b81525090610d255760405162461bcd60e51b815260040161068a91906114c0565b506000610d358460400151610dd4565b9050808460600151111560405180604001604052806011815260200170696e76616c6964206c656e6420696e666f60781b81525090610d875760405162461bcd60e51b815260040161068a91906114c0565b509392505050565b610bcf81604051602401610da591815260200190565b60408051601f198184030181529190526020810180516001600160e01b031663f82c50f160e01b179052611189565b600080606760009054906101000a90046001600160a01b03166001600160a01b03166354d2cb606040518163ffffffff1660e01b8152600401602060405180830381865afa158015610e2a573d6000803e3d6000fd5b505050506040513d601f19601f82011682018060405250810190610e4e91906114d3565b90506000606760009054906101000a90046001600160a01b03166001600160a01b0316639b5623ee6040518163ffffffff1660e01b8152600401602060405180830381865afa158015610ea5573d6000803e3d6000fd5b505050506040513d601f19601f82011682018060405250810190610ec991906114d3565b6065546040516370a0823160e01b81523060048201529192506000916001600160a01b03909116906370a0823190602401602060405180830381865afa158015610f17573d6000803e3d6000fd5b505050506040513d601f19601f82011682018060405250810190610f3b91906114d3565b90506000610f4b6103e88461142e565b606854610f58868961142e565b610f62919061142e565b610f6c9190611458565b905081610f798282611445565b610f83908361142e565b610f8d9190611458565b9695505050505050565b6108fe8282604051602401610fad9291906114ec565b60408051601f198184030181529190526020810180516001600160e01b0316632d839cb360e21b179052611189565b6000818152606a6020908152604091829020825160a08101845281546001600160a01b0316808252600183015482850152600283015482860152600383015460608301526004909201546080820152835180850190945260138452726e6f7420666f756e64206c656e6420696e666f60681b928401929092529091906110755760405162461bcd60e51b815260040161068a91906114c0565b50506000908152606a6020526040812080546001600160a01b031916815560018101829055600281018290556003810182905560040155565b6033546001600160a01b03163314610a025760405162461bcd60e51b815260206004820181905260248201527f4f776e61626c653a2063616c6c6572206973206e6f7420746865206f776e6572604482015260640161068a565b603380546001600160a01b038381166001600160a01b0319831681179093556040519116919082907f8be0079c531659141344cd1fd0a4f28419497f9722a3daafe3b4186f6b6457e090600090a35050565b600054610100900460ff166111815760405162461bcd60e51b815260040161068a9061150e565b610a026111aa565b80516a636f6e736f6c652e6c6f67602083016000808483855afa5050505050565b600054610100900460ff166111d15760405162461bcd60e51b815260040161068a9061150e565b610a0233611108565b6040518060a0016040528060006001600160a01b03168152602001600081526020016000815260200160008152602001600081525090565b604051610120810167ffffffffffffffff8111828210171561124457634e487b7160e01b600052604160045260246000fd5b60405290565b6001600160a01b0381168114610bcf57600080fd5b600060a0828403121561127157600080fd5b60405160a0810181811067ffffffffffffffff821117156112a257634e487b7160e01b600052604160045260246000fd5b60405282356112b08161124a565b80825250602083013560208201526040830135604082015260608301356060820152608083013560808201528091505092915050565b600080604083850312156112f957600080fd5b50508035926020909101359150565b60006020828403121561131a57600080fd5b5035919050565b60006020828403121561133357600080fd5b813561133e8161124a565b9392505050565b634e487b7160e01b600052601160045260246000fd5b808201808211156105ca576105ca611345565b8051801515811461137e57600080fd5b919050565b60006020828403121561139557600080fd5b61133e8261136e565b805161137e8161124a565b600061012082840312156113bc57600080fd5b6113c4611212565b6113cd8361139e565b81526020830151602082015260408301516040820152606083015160608201526080830151608082015260a083015160a082015260c083015160c082015260e083015160e082015261010061142381850161136e565b908201529392505050565b80820281158282048414176105ca576105ca611345565b818103818111156105ca576105ca611345565b60008261147557634e487b7160e01b600052601260045260246000fd5b500490565b6000815180845260005b818110156114a057602081850181015186830182015201611484565b506000602082860101526020601f19601f83011685010191505092915050565b60208152600061133e602083018461147a565b6000602082840312156114e557600080fd5b5051919050565b6040815260006114ff604083018561147a565b90508260208301529392505050565b6020808252602b908201527f496e697469616c697a61626c653a20636f6e7472616374206973206e6f74206960408201526a6e697469616c697a696e6760a81b60608201526080019056fea2646970667358221220ab57ff1091360c10456695628dc80044110a8483d95156746b79afe1f62c9e4164736f6c63430008120033",
  "linkReferences": {},
  "deployedLinkReferences": {}
}