{
  "_format": "hh-sol-artifact-1",
  "contractName": "InviSwapPool",
  "sourceName": "contracts/swap/InviSwapPool.sol",
  "abi": [
    {
      "anonymous": false,
      "inputs": [
        {
          "indexed": false,
          "internalType": "uint8",
          "name": "version",
          "type": "uint8"
        }
      ],
      "name": "Initialized",
      "type": "event"
    },
    {
      "anonymous": false,
      "inputs": [
        {
          "indexed": true,
          "internalType": "address",
          "name": "previousOwner",
          "type": "address"
        },
        {
          "indexed": true,
          "internalType": "address",
          "name": "newOwner",
          "type": "address"
        }
      ],
      "name": "OwnershipTransferred",
      "type": "event"
    },
    {
      "inputs": [
        {
          "internalType": "uint256",
          "name": "_expectedAmountInInvi",
          "type": "uint256"
        },
        {
          "internalType": "uint256",
          "name": "_slippage",
          "type": "uint256"
        }
      ],
      "name": "addLiquidity",
      "outputs": [],
      "stateMutability": "payable",
      "type": "function"
    },
    {
      "inputs": [
        {
          "internalType": "uint256",
          "name": "_amountIn",
          "type": "uint256"
        }
      ],
      "name": "getAddLiquidityInvi",
      "outputs": [
        {
          "internalType": "uint256",
          "name": "",
          "type": "uint256"
        }
      ],
      "stateMutability": "view",
      "type": "function"
    },
    {
      "inputs": [
        {
          "internalType": "uint256",
          "name": "_amountIn",
          "type": "uint256"
        }
      ],
      "name": "getAddLiquidityKlay",
      "outputs": [
        {
          "internalType": "uint256",
          "name": "",
          "type": "uint256"
        }
      ],
      "stateMutability": "view",
      "type": "function"
    },
    {
      "inputs": [
        {
          "internalType": "uint256",
          "name": "_liquidityTokensAmount",
          "type": "uint256"
        }
      ],
      "name": "getExpectedAmountsOutRemoveLiquidity",
      "outputs": [
        {
          "internalType": "uint256",
          "name": "inviAmount",
          "type": "uint256"
        },
        {
          "internalType": "uint256",
          "name": "klayAmount",
          "type": "uint256"
        }
      ],
      "stateMutability": "view",
      "type": "function"
    },
    {
      "inputs": [],
      "name": "getInviPrice",
      "outputs": [
        {
          "internalType": "uint256",
          "name": "",
          "type": "uint256"
        }
      ],
      "stateMutability": "view",
      "type": "function"
    },
    {
      "inputs": [
        {
          "internalType": "uint256",
          "name": "_amountIn",
          "type": "uint256"
        }
      ],
      "name": "getInviToKlayOutAmount",
      "outputs": [
        {
          "internalType": "uint256",
          "name": "",
          "type": "uint256"
        }
      ],
      "stateMutability": "view",
      "type": "function"
    },
    {
      "inputs": [],
      "name": "getKlayPrice",
      "outputs": [
        {
          "internalType": "uint256",
          "name": "",
          "type": "uint256"
        }
      ],
      "stateMutability": "view",
      "type": "function"
    },
    {
      "inputs": [
        {
          "internalType": "uint256",
          "name": "_amountIn",
          "type": "uint256"
        }
      ],
      "name": "getKlayToInviOutAmount",
      "outputs": [
        {
          "internalType": "uint256",
          "name": "",
          "type": "uint256"
        }
      ],
      "stateMutability": "view",
      "type": "function"
    },
    {
      "inputs": [
        {
          "internalType": "address",
          "name": "_inviAddr",
          "type": "address"
        },
        {
          "internalType": "address",
          "name": "_isptAddr",
          "type": "address"
        }
      ],
      "name": "initialize",
      "outputs": [],
      "stateMutability": "nonpayable",
      "type": "function"
    },
    {
      "inputs": [],
      "name": "inviFees",
      "outputs": [
        {
          "internalType": "uint256",
          "name": "",
          "type": "uint256"
        }
      ],
      "stateMutability": "view",
      "type": "function"
    },
    {
      "inputs": [],
      "name": "inviPrice",
      "outputs": [
        {
          "internalType": "uint256",
          "name": "",
          "type": "uint256"
        }
      ],
      "stateMutability": "view",
      "type": "function"
    },
    {
      "inputs": [],
      "name": "inviToken",
      "outputs": [
        {
          "internalType": "contract IERC20",
          "name": "",
          "type": "address"
        }
      ],
      "stateMutability": "view",
      "type": "function"
    },
    {
      "inputs": [],
      "name": "isptToken",
      "outputs": [
        {
          "internalType": "contract IERC20",
          "name": "",
          "type": "address"
        }
      ],
      "stateMutability": "view",
      "type": "function"
    },
    {
      "inputs": [],
      "name": "klayFees",
      "outputs": [
        {
          "internalType": "uint256",
          "name": "",
          "type": "uint256"
        }
      ],
      "stateMutability": "view",
      "type": "function"
    },
    {
      "inputs": [],
      "name": "klayPrice",
      "outputs": [
        {
          "internalType": "uint256",
          "name": "",
          "type": "uint256"
        }
      ],
      "stateMutability": "view",
      "type": "function"
    },
    {
      "inputs": [
        {
          "internalType": "address",
          "name": "",
          "type": "address"
        }
      ],
      "name": "lpLiquidity",
      "outputs": [
        {
          "internalType": "uint256",
          "name": "",
          "type": "uint256"
        }
      ],
      "stateMutability": "view",
      "type": "function"
    },
    {
      "inputs": [
        {
          "internalType": "uint256",
          "name": "",
          "type": "uint256"
        }
      ],
      "name": "lpList",
      "outputs": [
        {
          "internalType": "address",
          "name": "",
          "type": "address"
        }
      ],
      "stateMutability": "view",
      "type": "function"
    },
    {
      "inputs": [
        {
          "internalType": "address",
          "name": "",
          "type": "address"
        }
      ],
      "name": "lpRewardInvi",
      "outputs": [
        {
          "internalType": "uint256",
          "name": "",
          "type": "uint256"
        }
      ],
      "stateMutability": "view",
      "type": "function"
    },
    {
      "inputs": [
        {
          "internalType": "address",
          "name": "",
          "type": "address"
        }
      ],
      "name": "lpRewardKlay",
      "outputs": [
        {
          "internalType": "uint256",
          "name": "",
          "type": "uint256"
        }
      ],
      "stateMutability": "view",
      "type": "function"
    },
    {
      "inputs": [],
      "name": "owner",
      "outputs": [
        {
          "internalType": "address",
          "name": "",
          "type": "address"
        }
      ],
      "stateMutability": "view",
      "type": "function"
    },
    {
      "inputs": [],
      "name": "priceManager",
      "outputs": [
        {
          "internalType": "contract PriceManager",
          "name": "",
          "type": "address"
        }
      ],
      "stateMutability": "view",
      "type": "function"
    },
    {
      "inputs": [
        {
          "internalType": "uint256",
          "name": "_liquidityTokensAmount",
          "type": "uint256"
        },
        {
          "internalType": "uint256",
          "name": "_expectedInviAmount",
          "type": "uint256"
        },
        {
          "internalType": "uint256",
          "name": "_expectedKlayAmount",
          "type": "uint256"
        },
        {
          "internalType": "uint256",
          "name": "_slippage",
          "type": "uint256"
        }
      ],
      "name": "removeLiquidity",
      "outputs": [],
      "stateMutability": "nonpayable",
      "type": "function"
    },
    {
      "inputs": [],
      "name": "renounceOwnership",
      "outputs": [],
      "stateMutability": "nonpayable",
      "type": "function"
    },
    {
      "inputs": [
        {
          "internalType": "uint256",
          "name": "_fees",
          "type": "uint256"
        }
      ],
      "name": "setInviFees",
      "outputs": [],
      "stateMutability": "nonpayable",
      "type": "function"
    },
    {
      "inputs": [
        {
          "internalType": "uint256",
          "name": "_fees",
          "type": "uint256"
        }
      ],
      "name": "setKlayFees",
      "outputs": [],
      "stateMutability": "nonpayable",
      "type": "function"
    },
    {
      "inputs": [
        {
          "internalType": "address",
          "name": "_priceManager",
          "type": "address"
        }
      ],
      "name": "setPriceManager",
      "outputs": [],
      "stateMutability": "nonpayable",
      "type": "function"
    },
    {
      "inputs": [
        {
          "internalType": "uint256",
          "name": "_amountIn",
          "type": "uint256"
        },
        {
          "internalType": "uint256",
          "name": "_amountOutMin",
          "type": "uint256"
        }
      ],
      "name": "swapInviToKlay",
      "outputs": [],
      "stateMutability": "nonpayable",
      "type": "function"
    },
    {
      "inputs": [
        {
          "internalType": "uint256",
          "name": "_amountOutMin",
          "type": "uint256"
        }
      ],
      "name": "swapKlayToInvi",
      "outputs": [],
      "stateMutability": "payable",
      "type": "function"
    },
    {
      "inputs": [],
      "name": "totalLiquidityInvi",
      "outputs": [
        {
          "internalType": "uint256",
          "name": "",
          "type": "uint256"
        }
      ],
      "stateMutability": "view",
      "type": "function"
    },
    {
      "inputs": [],
      "name": "totalLiquidityKlay",
      "outputs": [
        {
          "internalType": "uint256",
          "name": "",
          "type": "uint256"
        }
      ],
      "stateMutability": "view",
      "type": "function"
    },
    {
      "inputs": [],
      "name": "totalRewardInvi",
      "outputs": [
        {
          "internalType": "uint256",
          "name": "",
          "type": "uint256"
        }
      ],
      "stateMutability": "view",
      "type": "function"
    },
    {
      "inputs": [],
      "name": "totalRewardKlay",
      "outputs": [
        {
          "internalType": "uint256",
          "name": "",
          "type": "uint256"
        }
      ],
      "stateMutability": "view",
      "type": "function"
    },
    {
      "inputs": [
        {
          "internalType": "address",
          "name": "newOwner",
          "type": "address"
        }
      ],
      "name": "transferOwnership",
      "outputs": [],
      "stateMutability": "nonpayable",
      "type": "function"
    },
    {
      "inputs": [],
      "name": "withdrawFees",
      "outputs": [],
      "stateMutability": "nonpayable",
      "type": "function"
    }
  ],
  "bytecode": "0x608060405234801561001057600080fd5b5061268a806100206000396000f3fe6080604052600436106101f95760003560e01c8063715018a61161010d5780639cd441da116100a0578063bf417c661161006f578063bf417c661461056f578063c7e1ffe31461058f578063f1abbf46146105af578063f2fde38b146105cf578063f88bf15a146105ef57600080fd5b80639cd441da146105065780639eb3128414610519578063b555e8a714610539578063bd7689a01461055957600080fd5b80638d26392e116100dc5780638d26392e146104885780638da5cb5b146104bd5780639b5623ee146104db5780639bb891aa146104f057600080fd5b8063715018a6146104065780637983b7391461041b5780637d8b14871461043b5780637e765c011461046857600080fd5b80632e696e9411610190578063485cc9551161015f578063485cc9551461038557806354d2cb60146103a5578063651c8fd7146103ba5780636b0acac0146103d05780636cf9282f146103e657600080fd5b80632e696e941461031a578063335380c51461032d578063398a556f1461035a578063476343ee1461037057600080fd5b80630cf888ce116101cc5780630cf888ce146102ac5780631276d13d146102c257806317acdeb7146102d857806319317648146102f857600080fd5b8063021249ee146101fe5780630570da601461023b57806307fc322c1461025f578063083123791461027f575b600080fd5b34801561020a57600080fd5b5061021e610219366004612259565b61060f565b6040516001600160a01b0390911681526020015b60405180910390f35b34801561024757600080fd5b5061025160725481565b604051908152602001610232565b34801561026b57600080fd5b5061025161027a366004612259565b610639565b34801561028b57600080fd5b5061025161029a36600461228e565b606a6020526000908152604090205481565b3480156102b857600080fd5b5061025160735481565b3480156102ce57600080fd5b50610251606e5481565b3480156102e457600080fd5b5060655461021e906001600160a01b031681565b34801561030457600080fd5b506103186103133660046122a9565b61074d565b005b610318610328366004612259565b610a04565b34801561033957600080fd5b5061025161034836600461228e565b60686020526000908152604090205481565b34801561036657600080fd5b5061025160715481565b34801561037c57600080fd5b50610318610c71565b34801561039157600080fd5b506103186103a03660046122cb565b610ea3565b3480156103b157600080fd5b50607354610251565b3480156103c657600080fd5b50610251606d5481565b3480156103dc57600080fd5b50610251606f5481565b3480156103f257600080fd5b5061031861040136600461228e565b611004565b34801561041257600080fd5b5061031861102e565b34801561042757600080fd5b50610251610436366004612259565b611042565b34801561044757600080fd5b5061025161045636600461228e565b60696020526000908152604090205481565b34801561047457600080fd5b50610251610483366004612259565b611183565b34801561049457600080fd5b506104a86104a3366004612259565b611313565b60408051928352602083019190915201610232565b3480156104c957600080fd5b506033546001600160a01b031661021e565b3480156104e757600080fd5b50607254610251565b3480156104fc57600080fd5b50610251606c5481565b6103186105143660046122a9565b61136d565b34801561052557600080fd5b5060665461021e906001600160a01b031681565b34801561054557600080fd5b50610251610554366004612259565b6115e8565b34801561056557600080fd5b5061025160705481565b34801561057b57600080fd5b5061031861058a366004612259565b6116ea565b34801561059b57600080fd5b5060675461021e906001600160a01b031681565b3480156105bb57600080fd5b506103186105ca366004612259565b6116f7565b3480156105db57600080fd5b506103186105ea36600461228e565b611704565b3480156105fb57600080fd5b5061031861060a3660046122fe565b61177d565b606b818154811061061f57600080fd5b6000918252602090912001546001600160a01b0316905081565b600080606760009054906101000a90046001600160a01b03166001600160a01b03166354d2cb606040518163ffffffff1660e01b8152600401602060405180830381865afa15801561068f573d6000803e3d6000fd5b505050506040513d601f19601f820116820180604052508101906106b39190612330565b90506000606760009054906101000a90046001600160a01b03166001600160a01b0316639b5623ee6040518163ffffffff1660e01b8152600401602060405180830381865afa15801561070a573d6000803e3d6000fd5b505050506040513d601f19601f8201168201806040525081019061072e9190612330565b90508161073b828661235f565b6107459190612376565b949350505050565b600061075883611042565b905060006103e86071548361076d919061235f565b6107779190612376565b9050606c5482106107c55760405162461bcd60e51b81526020600482015260136024820152726e6f7420656e6f75676820726573657276657360681b60448201526064015b60405180910390fd5b826107d08284612398565b1015604051806040016040528060198152602001780e6eec2e040e6d8d2e0e0c2ceca40d2e640e8dede40d0d2ced603b1b815250906108225760405162461bcd60e51b81526004016107bc91906123f1565b506066546040516323b872dd60e01b8152336004820152306024820152604481018690526001600160a01b03909116906323b872dd906064016020604051808303816000875af115801561087a573d6000803e3d6000fd5b505050506040513d601f19601f8201168201806040525081019061089e9190612404565b6040518060400160405280601a8152602001600080516020612635833981519152815250906108e05760405162461bcd60e51b81526004016107bc91906123f1565b5083606d60008282546108f39190612426565b9091555061090390508183612398565b606c60008282546109149190612398565b9250508190555080606e600082825461092d9190612426565b909155505060408051808201909152600681526503332b2b99d160d51b60208201526109599082611e7b565b610964600082611ec0565b6000336109718385612398565b604051600081818185875af1925050503d80600081146109ad576040519150601f19603f3d011682016040523d82523d6000602084013e6109b2565b606091505b50509050806040518060400160405280600e81526020016d19985a5b1959081d1bc81cd95b9960921b815250906109fc5760405162461bcd60e51b81526004016107bc91906123f1565b505050505050565b600034116040518060600160405280602781526020016125c96027913990610a3f5760405162461bcd60e51b81526004016107bc91906123f1565b506000610a4b34611183565b905060006103e860705483610a60919061235f565b610a6a9190612376565b9050606d548210604051806040016040528060148152602001736e6f7420656e6f756768206c697175696469747960601b81525090610abc5760405162461bcd60e51b81526004016107bc91906123f1565b5082610ac88284612398565b1015604051806040016040528060198152602001780e6eec2e040e6d8d2e0e0c2ceca40d2e640e8dede40d0d2ced603b1b81525090610b1a5760405162461bcd60e51b81526004016107bc91906123f1565b5034606c6000828254610b2d9190612426565b90915550610b3d90508183612398565b606d6000828254610b4e9190612398565b9250508190555080606f6000828254610b679190612426565b909155505060408051808201909152600681526503332b2b99d160d51b6020820152610b939082611e7b565b610b9e600182611ec0565b6066546001600160a01b031663a9059cbb33610bba8486612398565b6040516001600160e01b031960e085901b1681526001600160a01b03909216600483015260248201526044016020604051808303816000875af1158015610c05573d6000803e3d6000fd5b505050506040513d601f19601f82011682018060405250810190610c299190612404565b6040518060400160405280601a815260200160008051602061263583398151915281525090610c6b5760405162461bcd60e51b81526004016107bc91906123f1565b50505050565b336000908152606a6020526040902054151580610c9c57503360009081526069602052604090205415155b604051806040016040528060098152602001687a65726f206665657360b81b81525090610cdc5760405162461bcd60e51b81526004016107bc91906123f1565b50336000908152606a60209081526040808320546069909252909120548115610de25781606f6000828254610d119190612398565b9091555050336000818152606a602052604080822091909155606654905163a9059cbb60e01b81526004810192909252602482018490526001600160a01b03169063a9059cbb906044016020604051808303816000875af1158015610d7a573d6000803e3d6000fd5b505050506040513d601f19601f82011682018060405250810190610d9e9190612404565b6040518060400160405280601a815260200160008051602061263583398151915281525090610de05760405162461bcd60e51b81526004016107bc91906123f1565b505b8015610e9f5780606e6000828254610dfa9190612398565b9091555050336000818152606960205260408082208290555190919083908381818185875af1925050503d8060008114610e50576040519150601f19603f3d011682016040523d82523d6000602084013e610e55565b606091505b50509050806040518060400160405280600e81526020016d19985a5b1959081d1bc81cd95b9960921b81525090610c6b5760405162461bcd60e51b81526004016107bc91906123f1565b5050565b600054610100900460ff1615808015610ec35750600054600160ff909116105b80610edd5750303b158015610edd575060005460ff166001145b610f405760405162461bcd60e51b815260206004820152602e60248201527f496e697469616c697a61626c653a20636f6e747261637420697320616c72656160448201526d191e481a5b9a5d1a585b1a5e995960921b60648201526084016107bc565b6000805460ff191660011790558015610f63576000805461ff0019166101001790555b606680546001600160a01b038086166001600160a01b0319928316179092556065805492851692909116919091179055600360708190556071556001606c819055606d819055606f819055606e55610fb961202c565b8015610fff576000805461ff0019169055604051600181527f7f26b83ff96e1f2b6a682f133852f6798a09c465da95921460cefb38474024989060200160405180910390a15b505050565b61100c61205b565b606780546001600160a01b0319166001600160a01b0392909216919091179055565b61103661205b565b61104060006120b5565b565b600080606760009054906101000a90046001600160a01b03166001600160a01b03166354d2cb606040518163ffffffff1660e01b8152600401602060405180830381865afa158015611098573d6000803e3d6000fd5b505050506040513d601f19601f820116820180604052508101906110bc9190612330565b90506000606760009054906101000a90046001600160a01b03166001600160a01b0316639b5623ee6040518163ffffffff1660e01b8152600401602060405180830381865afa158015611113573d6000803e3d6000fd5b505050506040513d601f19601f820116820180604052508101906111379190612330565b9050600082611146838761235f565b6111509190612376565b90506000606c548283611163919061235f565b61116d9190612376565b90506111798183612398565b9695505050505050565b600080606760009054906101000a90046001600160a01b03166001600160a01b03166354d2cb606040518163ffffffff1660e01b8152600401602060405180830381865afa1580156111d9573d6000803e3d6000fd5b505050506040513d601f19601f820116820180604052508101906111fd9190612330565b90506000606760009054906101000a90046001600160a01b03166001600160a01b0316639b5623ee6040518163ffffffff1660e01b8152600401602060405180830381865afa158015611254573d6000803e3d6000fd5b505050506040513d601f19601f820116820180604052508101906112789190612330565b9050600081611287848761235f565b6112919190612376565b90506000606d5482836112a4919061235f565b6112ae9190612376565b90506112dd6040518060400160405280600b81526020016a030b6b7bab73a27baba1d160ad1b81525083611e7b565b6113096040518060400160405280600a815260200169039b634b83830b3b29d160b51b81525082611e7b565b6111798183612398565b6000806000611347606d54606c5460028761132e919061251d565b6113389190612376565b611342919061235f565b612107565b90506000611361606c54606d5460028861132e919061251d565b91959194509092505050565b6000611378346115e8565b905060006113896103e8606461235f565b836113976103e8606461235f565b6113a19190612398565b6113ab908661235f565b6113b59190612376565b905060006113c66103e8606461235f565b846113d46103e8606461235f565b6113de9190612426565b6113e8908761235f565b6113f29190612376565b90508183101580156114045750808311155b604051806060016040528060218152602001612614602191399061143b5760405162461bcd60e51b81526004016107bc91906123f1565b5034606c600082825461144e9190612426565b9250508190555082606d60008282546114679190612426565b909155506114779050833461235f565b3360009081526068602052604081208054909190611496908490612426565b90915550506066546040516323b872dd60e01b8152336004820152306024820152604481018590526001600160a01b03909116906323b872dd906064016020604051808303816000875af11580156114f2573d6000803e3d6000fd5b505050506040513d601f19601f820116820180604052508101906115169190612404565b6040518060400160405280601a8152602001600080516020612635833981519152815250906115585760405162461bcd60e51b81526004016107bc91906123f1565b50611564606b3361215e565b6065546001600160a01b03166379c6506833611583611342873461235f565b6040516001600160e01b031960e085901b1681526001600160a01b0390921660048301526024820152604401600060405180830381600087803b1580156115c957600080fd5b505af11580156115dd573d6000803e3d6000fd5b505050505050505050565b600080606760009054906101000a90046001600160a01b03166001600160a01b03166354d2cb606040518163ffffffff1660e01b8152600401602060405180830381865afa15801561163e573d6000803e3d6000fd5b505050506040513d601f19601f820116820180604052508101906116629190612330565b90506000606760009054906101000a90046001600160a01b03166001600160a01b0316639b5623ee6040518163ffffffff1660e01b8152600401602060405180830381865afa1580156116b9573d6000803e3d6000fd5b505050506040513d601f19601f820116820180604052508101906116dd9190612330565b90508061073b838661235f565b6116f261205b565b607055565b6116ff61205b565b607155565b61170c61205b565b6001600160a01b0381166117715760405162461bcd60e51b815260206004820152602660248201527f4f776e61626c653a206e6577206f776e657220697320746865207a65726f206160448201526564647265737360d01b60648201526084016107bc565b61177a816120b5565b50565b33600090815260686020908152604091829020548251808401909352600e83526d7a65726f206c697175696469747960901b918301919091526117d35760405162461bcd60e51b81526004016107bc91906123f1565b50606554604051633477cc1b60e21b8152336004820152602481018690526001600160a01b039091169063d1df306c90604401600060405180830381600087803b15801561182057600080fd5b505af1158015611834573d6000803e3d6000fd5b505050506000611850606d54606c5460028861132e919061251d565b9050600061186a606c54606d5460028961132e919061251d565b9050600061187b6103e8606461235f565b846118896103e8606461235f565b6118939190612398565b61189d908761235f565b6118a79190612376565b905060006118b86103e8606461235f565b856118c66103e8606461235f565b6118d09190612426565b6118da908861235f565b6118e49190612376565b905060006118f56103e8606461235f565b866119036103e8606461235f565b61190d9190612398565b611917908a61235f565b6119219190612376565b905060006119326103e8606461235f565b876119406103e8606461235f565b61194a9190612426565b611954908b61235f565b61195e9190612376565b905061199f6040518060400160405280601781526020017f65787065637465644b6c6179416d6f756e744d696e3a2000000000000000000081525085611e7b565b6119de6040518060400160405280601781526020017f65787065637465644b6c6179416d6f756e744d61783a2000000000000000000081525084611e7b565b611a1d6040518060400160405280601781526020017f6578706563746564496e7669416d6f756e744d696e3a2000000000000000000081525083611e7b565b611a5c6040518060400160405280601781526020017f6578706563746564496e7669416d6f756e744d61783a2000000000000000000081525082611e7b565b611a9060405180604001604052806012815260200171030b1ba3ab0b635b630bca0b6b7bab73a1d160751b81525086611e7b565b611ac460405180604001604052806012815260200171030b1ba3ab0b634b73b34a0b6b7bab73a1d160751b81525087611e7b565b838510158015611ad45750828511155b6040518060600160405280602481526020016125f06024913990611b0b5760405162461bcd60e51b81526004016107bc91906123f1565b50818610158015611b1c5750808611155b6040518060600160405280602481526020016125f06024913990611b535760405162461bcd60e51b81526004016107bc91906123f1565b508447101560405180604001604052806014815260200173696e73756666696369656e742062616c616e636560601b81525090611ba35760405162461bcd60e51b81526004016107bc91906123f1565b506066546040516370a0823160e01b815230600482015287916001600160a01b0316906370a0823190602401602060405180830381865afa158015611bec573d6000803e3d6000fd5b505050506040513d601f19601f82011682018060405250810190611c109190612330565b101560405180604001604052806014815260200173696e73756666696369656e742062616c616e636560601b81525090611c5d5760405162461bcd60e51b81526004016107bc91906123f1565b5084606c6000828254611c709190612398565b9250508190555085606d6000828254611c899190612398565b909155505033600090815260686020526040812080548c9290611cad908490612398565b92505081905550611cec6040518060400160405280601481526020017303a37ba30b62634b8bab4b234ba3ca5b630bc9d160651b815250606c54611e7b565b611d246040518060400160405280601481526020017303a37ba30b62634b8bab4b234ba3ca4b73b349d160651b815250606d54611e7b565b604051600090339087908381818185875af1925050503d8060008114611d66576040519150601f19603f3d011682016040523d82523d6000602084013e611d6b565b606091505b50509050806040518060400160405280600e81526020016d19985a5b1959081d1bc81cd95b9960921b81525090611db55760405162461bcd60e51b81526004016107bc91906123f1565b5060665460405163a9059cbb60e01b8152336004820152602481018990526001600160a01b039091169063a9059cbb906044016020604051808303816000875af1158015611e07573d6000803e3d6000fd5b505050506040513d601f19601f82011682018060405250810190611e2b9190612404565b6040518060400160405280601a815260200160008051602061263583398151915281525090611e6d5760405162461bcd60e51b81526004016107bc91906123f1565b505050505050505050505050565b610e9f8282604051602401611e9192919061252c565b60408051601f198184030181529190526020810180516001600160e01b0316632d839cb360e21b17905261219d565b60005b606b54811015610fff576000606b8281548110611ee257611ee261254e565b60009182526020808320909101546001600160a01b031680835260689091526040822054606d54606c54929450909291611f1c919061235f565b905085600003611fa057600081611f33848861235f565b611f3d9190612376565b6001600160a01b038516600090815260696020526040812080549293508392909190611f6a908490612426565b909155505060408051808201909152600a81526912db185e54995dd85c9960b21b6020820152611f9a9082611e7b565b50612016565b600081611fad848861235f565b611fb79190612376565b6001600160a01b0385166000908152606a6020526040812080549293508392909190611fe4908490612426565b909155505060408051808201909152600a815269125b9d9a54995dd85c9960b21b60208201526120149082611e7b565b505b505050808061202490612564565b915050611ec3565b600054610100900460ff166120535760405162461bcd60e51b81526004016107bc9061257d565b6110406121be565b6033546001600160a01b031633146110405760405162461bcd60e51b815260206004820181905260248201527f4f776e61626c653a2063616c6c6572206973206e6f7420746865206f776e657260448201526064016107bc565b603380546001600160a01b038381166001600160a01b0319831681179093556040519116919082907f8be0079c531659141344cd1fd0a4f28419497f9722a3daafe3b4186f6b6457e090600090a35050565b6000806002612117846001612426565b6121219190612376565b9050825b8082101561215757508060028161213c8187612376565b6121469190612426565b6121509190612376565b9150612125565b9392505050565b61216882826121ee565b610e9f5781546001810183556000838152602090200180546001600160a01b0383166001600160a01b03199091161790555050565b80516a636f6e736f6c652e6c6f67602083016000808483855afa5050505050565b600054610100900460ff166121e55760405162461bcd60e51b81526004016107bc9061257d565b611040336120b5565b6000805b835481101561224d57826001600160a01b03168482815481106122175761221761254e565b6000918252602090912001546001600160a01b03160361223b576001915050612253565b8061224581612564565b9150506121f2565b50600090505b92915050565b60006020828403121561226b57600080fd5b5035919050565b80356001600160a01b038116811461228957600080fd5b919050565b6000602082840312156122a057600080fd5b61215782612272565b600080604083850312156122bc57600080fd5b50508035926020909101359150565b600080604083850312156122de57600080fd5b6122e783612272565b91506122f560208401612272565b90509250929050565b6000806000806080858703121561231457600080fd5b5050823594602084013594506040840135936060013592509050565b60006020828403121561234257600080fd5b5051919050565b634e487b7160e01b600052601160045260246000fd5b808202811582820484141761225357612253612349565b60008261239357634e487b7160e01b600052601260045260246000fd5b500490565b8181038181111561225357612253612349565b6000815180845260005b818110156123d1576020818501810151868301820152016123b5565b506000602082860101526020601f19601f83011685010191505092915050565b60208152600061215760208301846123ab565b60006020828403121561241657600080fd5b8151801515811461215757600080fd5b8082018082111561225357612253612349565b600181815b8085111561247457816000190482111561245a5761245a612349565b8085161561246757918102915b93841c939080029061243e565b509250929050565b60008261248b57506001612253565b8161249857506000612253565b81600181146124ae57600281146124b8576124d4565b6001915050612253565b60ff8411156124c9576124c9612349565b50506001821b612253565b5060208310610133831016604e8410600b84101617156124f7575081810a612253565b6125018383612439565b806000190482111561251557612515612349565b029392505050565b600061215760ff84168361247c565b60408152600061253f60408301856123ab565b90508260208301529392505050565b634e487b7160e01b600052603260045260246000fd5b60006001820161257657612576612349565b5060010190565b6020808252602b908201527f496e697469616c697a61626c653a20636f6e7472616374206973206e6f74206960408201526a6e697469616c697a696e6760a81b60608201526080019056fe7377617020616d6f756e742073686f756c642062652067726561746572207468616e207a65726f72656d6f7665206c6971756469747920736c69707061676520697320746f6f2068696768616464206c6971756469747920736c69707061676520697320746f6f20686967686661696c656420746f2073656e6420657263323020746f6b656e000000000000a26469706673582212206b5ebd3d59d9bfe6da7f66bfb792097276ffcfeadae15e2c15fe114dac0e14e864736f6c63430008120033",
  "linkReferences": {},
  "deployedLinkReferences": {}
}