{
  "_format": "hh-sol-artifact-1",
  "contractName": "InviCore",
  "sourceName": "contracts/InviCore.sol",
  "abi": [
    {
      "anonymous": false,
      "inputs": [
        {
          "indexed": false,
          "internalType": "uint8",
          "name": "version",
          "type": "uint8"
        }
      ],
      "name": "Initialized",
      "type": "event"
    },
    {
      "anonymous": false,
      "inputs": [
        {
          "indexed": true,
          "internalType": "address",
          "name": "previousOwner",
          "type": "address"
        },
        {
          "indexed": true,
          "internalType": "address",
          "name": "newOwner",
          "type": "address"
        }
      ],
      "name": "OwnershipTransferred",
      "type": "event"
    },
    {
      "anonymous": false,
      "inputs": [
        {
          "indexed": true,
          "internalType": "uint256",
          "name": "amount",
          "type": "uint256"
        }
      ],
      "name": "Stake",
      "type": "event"
    },
    {
      "anonymous": false,
      "inputs": [
        {
          "indexed": true,
          "internalType": "uint256",
          "name": "amount",
          "type": "uint256"
        }
      ],
      "name": "Unstake",
      "type": "event"
    },
    {
      "stateMutability": "payable",
      "type": "fallback"
    },
    {
      "inputs": [
        {
          "internalType": "uint256",
          "name": "_lpPoolRewardPortion",
          "type": "uint256"
        },
        {
          "internalType": "uint256",
          "name": "_inviTokenStakeRewardPortion",
          "type": "uint256"
        }
      ],
      "name": "_setRewardPortion",
      "outputs": [],
      "stateMutability": "nonpayable",
      "type": "function"
    },
    {
      "inputs": [
        {
          "internalType": "address",
          "name": "_recipient",
          "type": "address"
        },
        {
          "internalType": "uint256",
          "name": "_amount",
          "type": "uint256"
        },
        {
          "internalType": "uint256",
          "name": "_protocolFee",
          "type": "uint256"
        },
        {
          "internalType": "uint256",
          "name": "_requestType",
          "type": "uint256"
        }
      ],
      "name": "createUnstakeRequest",
      "outputs": [],
      "stateMutability": "nonpayable",
      "type": "function"
    },
    {
      "inputs": [],
      "name": "distributeStTokenReward",
      "outputs": [],
      "stateMutability": "nonpayable",
      "type": "function"
    },
    {
      "inputs": [
        {
          "internalType": "uint256",
          "name": "_amount",
          "type": "uint256"
        },
        {
          "internalType": "uint256",
          "name": "_lockPeriod",
          "type": "uint256"
        }
      ],
      "name": "getExpectedReward",
      "outputs": [
        {
          "internalType": "uint256",
          "name": "",
          "type": "uint256"
        }
      ],
      "stateMutability": "view",
      "type": "function"
    },
    {
      "inputs": [
        {
          "internalType": "uint256",
          "name": "_leverageRatio",
          "type": "uint256"
        }
      ],
      "name": "getLockPeriod",
      "outputs": [
        {
          "internalType": "uint256",
          "name": "",
          "type": "uint256"
        }
      ],
      "stateMutability": "pure",
      "type": "function"
    },
    {
      "inputs": [
        {
          "internalType": "uint256",
          "name": "_lentAmount",
          "type": "uint256"
        },
        {
          "internalType": "uint256",
          "name": "_leverageRatio",
          "type": "uint256"
        }
      ],
      "name": "getProtocolFee",
      "outputs": [
        {
          "internalType": "uint256",
          "name": "",
          "type": "uint256"
        }
      ],
      "stateMutability": "view",
      "type": "function"
    },
    {
      "inputs": [
        {
          "internalType": "address",
          "name": "_account",
          "type": "address"
        },
        {
          "internalType": "uint256",
          "name": "_principal",
          "type": "uint256"
        },
        {
          "internalType": "uint256",
          "name": "_leverageRatio",
          "type": "uint256"
        },
        {
          "internalType": "uint256",
          "name": "_lockPeriod",
          "type": "uint256"
        }
      ],
      "name": "getStakeInfo",
      "outputs": [
        {
          "components": [
            {
              "internalType": "address",
              "name": "user",
              "type": "address"
            },
            {
              "internalType": "uint256",
              "name": "principal",
              "type": "uint256"
            },
            {
              "internalType": "uint256",
              "name": "leverageRatio",
              "type": "uint256"
            },
            {
              "internalType": "uint256",
              "name": "stakedAmount",
              "type": "uint256"
            },
            {
              "internalType": "uint256",
              "name": "lockPeriod",
              "type": "uint256"
            },
            {
              "internalType": "uint256",
              "name": "lockStart",
              "type": "uint256"
            },
            {
              "internalType": "uint256",
              "name": "lockEnd",
              "type": "uint256"
            },
            {
              "internalType": "uint256",
              "name": "protocolFee",
              "type": "uint256"
            },
            {
              "internalType": "bool",
              "name": "isLent",
              "type": "bool"
            }
          ],
          "internalType": "struct StakeInfo",
          "name": "",
          "type": "tuple"
        }
      ],
      "stateMutability": "view",
      "type": "function"
    },
    {
      "inputs": [
        {
          "internalType": "uint256",
          "name": "_amount",
          "type": "uint256"
        },
        {
          "internalType": "uint256",
          "name": "_leverageRatio",
          "type": "uint256"
        }
      ],
      "name": "getStakedAmount",
      "outputs": [
        {
          "internalType": "uint256",
          "name": "",
          "type": "uint256"
        }
      ],
      "stateMutability": "pure",
      "type": "function"
    },
    {
      "inputs": [],
      "name": "getTotalLiquidity",
      "outputs": [
        {
          "internalType": "uint256",
          "name": "",
          "type": "uint256"
        }
      ],
      "stateMutability": "view",
      "type": "function"
    },
    {
      "inputs": [],
      "name": "getTotalStakedAmount",
      "outputs": [
        {
          "internalType": "uint256",
          "name": "",
          "type": "uint256"
        }
      ],
      "stateMutability": "view",
      "type": "function"
    },
    {
      "inputs": [],
      "name": "getUnstakeRequestsLength",
      "outputs": [
        {
          "internalType": "uint256",
          "name": "",
          "type": "uint256"
        }
      ],
      "stateMutability": "view",
      "type": "function"
    },
    {
      "inputs": [
        {
          "internalType": "address",
          "name": "_stTokenAddr",
          "type": "address"
        }
      ],
      "name": "initialize",
      "outputs": [],
      "stateMutability": "nonpayable",
      "type": "function"
    },
    {
      "inputs": [],
      "name": "inviTokenStakeContract",
      "outputs": [
        {
          "internalType": "contract InviTokenStake",
          "name": "",
          "type": "address"
        }
      ],
      "stateMutability": "view",
      "type": "function"
    },
    {
      "inputs": [],
      "name": "inviTokenStakeRewardPortion",
      "outputs": [
        {
          "internalType": "uint256",
          "name": "",
          "type": "uint256"
        }
      ],
      "stateMutability": "view",
      "type": "function"
    },
    {
      "inputs": [],
      "name": "lpPoolContract",
      "outputs": [
        {
          "internalType": "contract LiquidityProviderPool",
          "name": "",
          "type": "address"
        }
      ],
      "stateMutability": "view",
      "type": "function"
    },
    {
      "inputs": [],
      "name": "lpPoolRewardPortion",
      "outputs": [
        {
          "internalType": "uint256",
          "name": "",
          "type": "uint256"
        }
      ],
      "stateMutability": "view",
      "type": "function"
    },
    {
      "inputs": [],
      "name": "owner",
      "outputs": [
        {
          "internalType": "address",
          "name": "",
          "type": "address"
        }
      ],
      "stateMutability": "view",
      "type": "function"
    },
    {
      "inputs": [],
      "name": "renounceOwnership",
      "outputs": [],
      "stateMutability": "nonpayable",
      "type": "function"
    },
    {
      "inputs": [
        {
          "internalType": "uint256",
          "name": "_nftTokenId",
          "type": "uint256"
        }
      ],
      "name": "repayNFT",
      "outputs": [],
      "stateMutability": "nonpayable",
      "type": "function"
    },
    {
      "inputs": [],
      "name": "sendUnstakedAmount",
      "outputs": [],
      "stateMutability": "payable",
      "type": "function"
    },
    {
      "inputs": [
        {
          "internalType": "uint256",
          "name": "_decreaseRatio",
          "type": "uint256"
        }
      ],
      "name": "setDecreaseRatio",
      "outputs": [],
      "stateMutability": "nonpayable",
      "type": "function"
    },
    {
      "inputs": [
        {
          "internalType": "uint256",
          "name": "_increaseRatio",
          "type": "uint256"
        }
      ],
      "name": "setIncreaseRatio",
      "outputs": [],
      "stateMutability": "nonpayable",
      "type": "function"
    },
    {
      "inputs": [
        {
          "internalType": "address",
          "name": "_inviTokenStakeAddr",
          "type": "address"
        }
      ],
      "name": "setInviTokenStakeContract",
      "outputs": [],
      "stateMutability": "nonpayable",
      "type": "function"
    },
    {
      "inputs": [
        {
          "internalType": "address",
          "name": "_lpPoolAddr",
          "type": "address"
        }
      ],
      "name": "setLpPoolContract",
      "outputs": [],
      "stateMutability": "nonpayable",
      "type": "function"
    },
    {
      "inputs": [
        {
          "internalType": "uint256",
          "name": "_slippage",
          "type": "uint256"
        }
      ],
      "name": "setSlippage",
      "outputs": [],
      "stateMutability": "nonpayable",
      "type": "function"
    },
    {
      "inputs": [
        {
          "internalType": "address",
          "name": "_stTokenAddr",
          "type": "address"
        }
      ],
      "name": "setStTokenContract",
      "outputs": [],
      "stateMutability": "nonpayable",
      "type": "function"
    },
    {
      "inputs": [
        {
          "internalType": "address",
          "name": "_stakeManager",
          "type": "address"
        }
      ],
      "name": "setStakeManager",
      "outputs": [],
      "stateMutability": "nonpayable",
      "type": "function"
    },
    {
      "inputs": [
        {
          "internalType": "address",
          "name": "_stakeNFTAddr",
          "type": "address"
        }
      ],
      "name": "setStakeNFTContract",
      "outputs": [],
      "stateMutability": "nonpayable",
      "type": "function"
    },
    {
      "inputs": [
        {
          "internalType": "uint256",
          "name": "_stakingAPR",
          "type": "uint256"
        }
      ],
      "name": "setStakingAPR",
      "outputs": [],
      "stateMutability": "nonpayable",
      "type": "function"
    },
    {
      "inputs": [],
      "name": "slippage",
      "outputs": [
        {
          "internalType": "uint256",
          "name": "",
          "type": "uint256"
        }
      ],
      "stateMutability": "view",
      "type": "function"
    },
    {
      "inputs": [],
      "name": "stToken",
      "outputs": [
        {
          "internalType": "contract IERC20",
          "name": "",
          "type": "address"
        }
      ],
      "stateMutability": "view",
      "type": "function"
    },
    {
      "inputs": [
        {
          "components": [
            {
              "internalType": "address",
              "name": "user",
              "type": "address"
            },
            {
              "internalType": "uint256",
              "name": "principal",
              "type": "uint256"
            },
            {
              "internalType": "uint256",
              "name": "leverageRatio",
              "type": "uint256"
            },
            {
              "internalType": "uint256",
              "name": "stakedAmount",
              "type": "uint256"
            },
            {
              "internalType": "uint256",
              "name": "lockPeriod",
              "type": "uint256"
            },
            {
              "internalType": "uint256",
              "name": "lockStart",
              "type": "uint256"
            },
            {
              "internalType": "uint256",
              "name": "lockEnd",
              "type": "uint256"
            },
            {
              "internalType": "uint256",
              "name": "protocolFee",
              "type": "uint256"
            },
            {
              "internalType": "bool",
              "name": "isLent",
              "type": "bool"
            }
          ],
          "internalType": "struct StakeInfo",
          "name": "_stakeInfo",
          "type": "tuple"
        },
        {
          "internalType": "uint256",
          "name": "_slippage",
          "type": "uint256"
        }
      ],
      "name": "stake",
      "outputs": [],
      "stateMutability": "payable",
      "type": "function"
    },
    {
      "inputs": [
        {
          "internalType": "uint256",
          "name": "_requestAmount",
          "type": "uint256"
        }
      ],
      "name": "stakeLp",
      "outputs": [],
      "stateMutability": "nonpayable",
      "type": "function"
    },
    {
      "inputs": [],
      "name": "stakeManager",
      "outputs": [
        {
          "internalType": "address",
          "name": "",
          "type": "address"
        }
      ],
      "stateMutability": "view",
      "type": "function"
    },
    {
      "inputs": [],
      "name": "stakeNFTContract",
      "outputs": [
        {
          "internalType": "contract StakeNFT",
          "name": "",
          "type": "address"
        }
      ],
      "stateMutability": "view",
      "type": "function"
    },
    {
      "inputs": [],
      "name": "stakingAPR",
      "outputs": [
        {
          "internalType": "uint256",
          "name": "",
          "type": "uint256"
        }
      ],
      "stateMutability": "view",
      "type": "function"
    },
    {
      "inputs": [
        {
          "internalType": "address",
          "name": "newOwner",
          "type": "address"
        }
      ],
      "name": "transferOwnership",
      "outputs": [],
      "stateMutability": "nonpayable",
      "type": "function"
    },
    {
      "inputs": [
        {
          "internalType": "uint256",
          "name": "_requestAmount",
          "type": "uint256"
        }
      ],
      "name": "unstakeLp",
      "outputs": [],
      "stateMutability": "nonpayable",
      "type": "function"
    },
    {
      "inputs": [
        {
          "internalType": "uint256",
          "name": "",
          "type": "uint256"
        }
      ],
      "name": "unstakeRequests",
      "outputs": [
        {
          "internalType": "address",
          "name": "recipient",
          "type": "address"
        },
        {
          "internalType": "uint256",
          "name": "amount",
          "type": "uint256"
        },
        {
          "internalType": "uint256",
          "name": "fee",
          "type": "uint256"
        },
        {
          "internalType": "uint256",
          "name": "requestType",
          "type": "uint256"
        }
      ],
      "stateMutability": "view",
      "type": "function"
    },
    {
      "inputs": [],
      "name": "unstakeRequestsFront",
      "outputs": [
        {
          "internalType": "uint256",
          "name": "",
          "type": "uint256"
        }
      ],
      "stateMutability": "view",
      "type": "function"
    },
    {
      "inputs": [],
      "name": "unstakeRequestsRear",
      "outputs": [
        {
          "internalType": "uint256",
          "name": "",
          "type": "uint256"
        }
      ],
      "stateMutability": "view",
      "type": "function"
    },
    {
      "inputs": [
        {
          "internalType": "uint256",
          "name": "",
          "type": "uint256"
        }
      ],
      "name": "userList",
      "outputs": [
        {
          "internalType": "address",
          "name": "",
          "type": "address"
        }
      ],
      "stateMutability": "view",
      "type": "function"
    },
    {
      "inputs": [
        {
          "internalType": "address",
          "name": "",
          "type": "address"
        }
      ],
      "name": "userStakedAmount",
      "outputs": [
        {
          "internalType": "uint256",
          "name": "",
          "type": "uint256"
        }
      ],
      "stateMutability": "view",
      "type": "function"
    },
    {
      "stateMutability": "payable",
      "type": "receive"
    }
  ],
  "bytecode": "0x608060405234801561001057600080fd5b506131bf806100206000396000f3fe6080604052600436106102485760003560e01c80638e4647ee11610138578063e88427de116100b0578063f55ad3ec11610077578063f55ad3ec146106ab578063f6b512d8146106cb578063f6e847db146106eb578063f869ea971461070b578063f87975af1461072b578063fb23f2351461077557005b8063e88427de14610615578063eb7203fe14610635578063f0fa55a91461064b578063f2fde38b1461066b578063f414eeee1461068b57005b80639f4216e8116100ff5780639f4216e81461055f578063a84095ac1461057f578063b4af598c14610595578063c4d66de8146105b5578063cccd4a6c146105d5578063da872dad146105f557005b80638e4647ee146104d75780639073db9a14610504578063910c6b5e14610517578063923f84681461053757806399d7c6041461055757005b80633e032a3b116101cb578063715018a611610192578063715018a61461042f57806373e50210146104445780637542ff951461046457806380aac0311461048457806384d7ae43146104a45780638da5cb5b146104b957005b80633e032a3b146103a3578063472106e2146103b957806352f08836146103d95780635a83d74c146103f957806360e2b8f51461040f57005b806327b408b61161020f57806327b408b6146103195780632ac397251461033957806335c7e92514610359578063374c0ac01461036e57806338adb6f01461038e57005b80630446bb31146102515780630943fcdf146102875780630e7c67fc146102ab5780631988415f146102cb57806323b6443e146102e157005b3661024f57005b005b34801561025d57600080fd5b5061027161026c366004612c39565b61078a565b60405161027e9190612c74565b60405180910390f35b34801561029357600080fd5b5061029d606e5481565b60405190815260200161027e565b3480156102b757600080fd5b5061024f6102c6366004612cde565b61097e565b3480156102d757600080fd5b5061029d60725481565b3480156102ed57600080fd5b50606554610301906001600160a01b031681565b6040516001600160a01b03909116815260200161027e565b34801561032557600080fd5b5061024f610334366004612cde565b6109a8565b34801561034557600080fd5b5061024f610354366004612c39565b6109d2565b34801561036557600080fd5b5061029d610ac7565b34801561037a57600080fd5b5061024f610389366004612cfb565b610b3a565b34801561039a57600080fd5b5061029d611373565b3480156103af57600080fd5b5061029d60735481565b3480156103c557600080fd5b50606854610301906001600160a01b031681565b3480156103e557600080fd5b50606654610301906001600160a01b031681565b34801561040557600080fd5b5061029d60715481565b34801561041b57600080fd5b5061029d61042a366004612d14565b6114f5565b34801561043b57600080fd5b5061024f611584565b34801561045057600080fd5b5061024f61045f366004612cfb565b611598565b34801561047057600080fd5b50606954610301906001600160a01b031681565b34801561049057600080fd5b5061024f61049f366004612cfb565b6115a5565b3480156104b057600080fd5b5061024f611713565b3480156104c557600080fd5b506033546001600160a01b0316610301565b3480156104e357600080fd5b5061029d6104f2366004612cde565b606f6020526000908152604090205481565b61024f610512366004612d87565b611af3565b34801561052357600080fd5b50606754610301906001600160a01b031681565b34801561054357600080fd5b5061024f610552366004612cfb565b611d86565b61024f611e06565b34801561056b57600080fd5b5061030161057a366004612cfb565b6120dd565b34801561058b57600080fd5b5061029d606d5481565b3480156105a157600080fd5b5061024f6105b0366004612cfb565b612107565b3480156105c157600080fd5b5061024f6105d0366004612cde565b612114565b3480156105e157600080fd5b5061024f6105f0366004612cde565b612297565b34801561060157600080fd5b5061024f610610366004612cfb565b6122c1565b34801561062157600080fd5b5061029d610630366004612d14565b6122ce565b34801561064157600080fd5b5061029d606a5481565b34801561065757600080fd5b5061024f610666366004612cfb565b6122e4565b34801561067757600080fd5b5061024f610686366004612cde565b6122f1565b34801561069757600080fd5b5061024f6106a6366004612cde565b61236a565b3480156106b757600080fd5b5061029d6106c6366004612cfb565b612394565b3480156106d757600080fd5b5061024f6106e6366004612d14565b61239f565b3480156106f757600080fd5b5061029d610706366004612d14565b6123f8565b34801561071757600080fd5b5061024f610726366004612cde565b612404565b34801561073757600080fd5b5061074b610746366004612cfb565b61242e565b604080516001600160a01b039095168552602085019390935291830152606082015260800161027e565b34801561078157600080fd5b5061029d612472565b6107e460405180610120016040528060006001600160a01b03168152602001600081526020016000815260200160008152602001600081526020016000815260200160008152602001600081526020016000151581525090565b60006107ef84612394565b9050828110156107fc5750815b600085620186a061080d8783612e3a565b6108179190612e67565b6108219190612e7b565b9050606760009054906101000a90046001600160a01b03166001600160a01b03166367114bd46040518163ffffffff1660e01b8152600401602060405180830381865afa158015610876573d6000803e3d6000fd5b505050506040513d601f19601f8201168201806040525081019061089a9190612e8e565b8111156040518060400160405280601e81526020017f65786365656420746865206d6178696d756d206c656e7420616d6f756e740000815250906108fa5760405162461bcd60e51b81526004016108f19190612ea7565b60405180910390fd5b50600061090782876114f5565b90504260006109168583612ef5565b905060006109248a8a6123f8565b60408051610120810182526001600160a01b038e168152602081018d90529081018b9052606081019190915260808101969096525060a085019190915260c084015260e08301525060006101008201529050949350505050565b610986612484565b606980546001600160a01b0319166001600160a01b0392909216919091179055565b6109b0612484565b606580546001600160a01b0319166001600160a01b0392909216919091179055565b6109da612484565b604080516080810182526001600160a01b03958616815260208101948552908101928352606081019182526070805460018101825560009190915290517f8f6b23ffa15f0465e3176e15ca644cf24f86dc1312fe715484e3c4aead5eb78b600490920291820180546001600160a01b031916919096161790945591517f8f6b23ffa15f0465e3176e15ca644cf24f86dc1312fe715484e3c4aead5eb78c840155517f8f6b23ffa15f0465e3176e15ca644cf24f86dc1312fe715484e3c4aead5eb78d830155517f8f6b23ffa15f0465e3176e15ca644cf24f86dc1312fe715484e3c4aead5eb78e90910155565b606754604080516335c7e92560e01b815290516000926001600160a01b0316916335c7e9259160048083019260209291908290030181865afa158015610b11573d6000803e3d6000fd5b505050506040513d601f19601f82011682018060405250810190610b359190612e8e565b905090565b606654604051631697425b60e21b8152600481018390523360248201526001600160a01b0390911690635a5d096c90604401602060405180830381865afa158015610b89573d6000803e3d6000fd5b505050506040513d601f19601f82011682018060405250810190610bad9190612f13565b6040518060400160405280601081526020016f1b9bdd081e5bdd5c881bdddb881b999d60821b81525090610bf45760405162461bcd60e51b81526004016108f19190612ea7565b5060665460405163d63ba50d60e01b8152600481018390526001600160a01b039091169063d63ba50d90602401602060405180830381865afa158015610c3e573d6000803e3d6000fd5b505050506040513d601f19601f82011682018060405250810190610c629190612f13565b6040518060400160405280601781526020017f746865206e6674206973207374696c6c206c6f636b656400000000000000000081525090610cb65760405162461bcd60e51b81526004016108f19190612ea7565b506066546040516304c09a4160e11b8152600481018390526000916001600160a01b03169063098134829060240161012060405180830381865afa158015610d02573d6000803e3d6000fd5b505050506040513d601f19601f82011682018060405250810190610d269190612f3b565b606654604051632bfd7df960e11b8152600481018590529192506000916001600160a01b03909116906357fafbf290602401602060405180830381865afa158015610d75573d6000803e3d6000fd5b505050506040513d601f19601f82011682018060405250810190610d999190612e8e565b60e08301519091506000610db06103e86064612e3a565b82610dbe6103e86064612e3a565b610dc89190612e7b565b610dd29085612e3a565b610ddc9190612e67565b90506000610dea8285612e7b565b905060006103e8606d5483610dff9190612e3a565b610e099190612e67565b905060006103e8606e5484610e1e9190612e3a565b610e289190612e67565b60665460608901516040805163567e98f960e01b815290519394506001600160a01b039092169263ecc9747e92849163567e98f9916004808201926020929091908290030181865afa158015610e82573d6000803e3d6000fd5b505050506040513d601f19601f82011682018060405250810190610ea69190612e8e565b610eb09190612e7b565b6040518263ffffffff1660e01b8152600401610ece91815260200190565b600060405180830381600087803b158015610ee857600080fd5b505af1158015610efc573d6000803e3d6000fd5b505060675460208a015160608b01516001600160a01b03909216935063ecc9747e9250610f2891612e7b565b606760009054906101000a90046001600160a01b03166001600160a01b031663567e98f96040518163ffffffff1660e01b8152600401602060405180830381865afa158015610f7b573d6000803e3d6000fd5b505050506040513d601f19601f82011682018060405250810190610f9f9190612e8e565b610fa99190612ef5565b6040518263ffffffff1660e01b8152600401610fc791815260200190565b600060405180830381600087803b158015610fe157600080fd5b505af1158015610ff5573d6000803e3d6000fd5b505060675460208a015160608b01516001600160a01b03909216935063a42b88bd925061102191612e7b565b606760009054906101000a90046001600160a01b03166001600160a01b03166343f7f7406040518163ffffffff1660e01b8152600401602060405180830381865afa158015611074573d6000803e3d6000fd5b505050506040513d601f19601f820116820180604052508101906110989190612e8e565b6110a29190612e7b565b6040518263ffffffff1660e01b81526004016110c091815260200190565b600060405180830381600087803b1580156110da57600080fd5b505af11580156110ee573d6000803e3d6000fd5b5050505060006040518060800160405280336001600160a01b03168152602001868a6020015161111e9190612ef5565b815260e08a0151602080830191909152600060409283018190528251608080820185526067546001600160a01b0390811683528285018a9052828601849052600160608085019190915286519283018752606854909116825293810188905293840191909152600291830191909152607254929350916111a29060709085906124de565b6072819055506111b66070836072546124de565b6072819055506111ca6070826072546124de565b6072556066546040516323b872dd60e01b8152336004820152306024820152604481018d90526001600160a01b03909116906323b872dd90606401600060405180830381600087803b15801561121f57600080fd5b505af1158015611233573d6000803e3d6000fd5b5050606654604051633d5ee6cb60e01b8152600481018f90526001600160a01b039091169250633d5ee6cb91506024016020604051808303816000875af1158015611282573d6000803e3d6000fd5b505050506040513d601f19601f820116820180604052508101906112a69190612f13565b50606654604051632890e0d760e01b8152600481018d90526001600160a01b0390911690632890e0d7906024016020604051808303816000875af11580156112f2573d6000803e3d6000fd5b505050506040513d601f19601f820116820180604052508101906113169190612f13565b508385888c602001516113299190612ef5565b6113339190612ef5565b61133d9190612ef5565b6040517ff1f1db1ecefb0a90b3cd6a1903d29374b4a935df69fd25c7fc6ed397d3683c2690600090a25050505050505050505050565b600080606760009054906101000a90046001600160a01b03166001600160a01b03166343f7f7406040518163ffffffff1660e01b8152600401602060405180830381865afa1580156113c9573d6000803e3d6000fd5b505050506040513d601f19601f820116820180604052508101906113ed9190612e8e565b606760009054906101000a90046001600160a01b03166001600160a01b031663567e98f96040518163ffffffff1660e01b8152600401602060405180830381865afa158015611440573d6000803e3d6000fd5b505050506040513d601f19601f820116820180604052508101906114649190612e8e565b606660009054906101000a90046001600160a01b03166001600160a01b031663567e98f96040518163ffffffff1660e01b8152600401602060405180830381865afa1580156114b7573d6000803e3d6000fd5b505050506040513d601f19601f820116820180604052508101906114db9190612e8e565b6114e59190612ef5565b6114ef9190612e7b565b92915050565b600080606760009054906101000a90046001600160a01b03166001600160a01b03166335c7e9256040518163ffffffff1660e01b8152600401602060405180830381865afa15801561154b573d6000803e3d6000fd5b505050506040513d601f19601f8201168201806040525081019061156f9190612e8e565b905061157c848483612540565b949350505050565b61158c612484565b61159660006125a3565b565b6115a0612484565b606a55565b60675460408051808201909152600e81526d1b9bdd08185d5d1a1bdc9a5e995960921b6020820152906001600160a01b031633146115f65760405162461bcd60e51b81526004016108f19190612ea7565b50604080516080810182526067546001600160a01b039081168252602082018481526000838501818152600160608601818152607080549283018155845286517f8f6b23ffa15f0465e3176e15ca644cf24f86dc1312fe715484e3c4aead5eb78b600490930292830180546001600160a01b031916919097161790955592517f8f6b23ffa15f0465e3176e15ca644cf24f86dc1312fe715484e3c4aead5eb78c840155517f8f6b23ffa15f0465e3176e15ca644cf24f86dc1312fe715484e3c4aead5eb78d83015591517f8f6b23ffa15f0465e3176e15ca644cf24f86dc1312fe715484e3c4aead5eb78e909101559151909183917ff1f1db1ecefb0a90b3cd6a1903d29374b4a935df69fd25c7fc6ed397d3683c269190a25050565b61171b612484565b6067546040805163010fdfdd60e61b815290516000926001600160a01b0316916343f7f7409160048083019260209291908290030181865afa158015611765573d6000803e3d6000fd5b505050506040513d601f19601f820116820180604052508101906117899190612e8e565b606760009054906101000a90046001600160a01b03166001600160a01b031663567e98f96040518163ffffffff1660e01b8152600401602060405180830381865afa1580156117dc573d6000803e3d6000fd5b505050506040513d601f19601f820116820180604052508101906118009190612e8e565b606660009054906101000a90046001600160a01b03166001600160a01b031663567e98f96040518163ffffffff1660e01b8152600401602060405180830381865afa158015611853573d6000803e3d6000fd5b505050506040513d601f19601f820116820180604052508101906118779190612e8e565b6118819190612ef5565b61188b9190612e7b565b6065546069546040516370a0823160e01b81526001600160a01b039182166004820152929350600092849291909116906370a0823190602401602060405180830381865afa1580156118e1573d6000803e3d6000fd5b505050506040513d601f19601f820116820180604052508101906119059190612e8e565b61190f9190612e7b565b9050600082606660009054906101000a90046001600160a01b03166001600160a01b031663567e98f96040518163ffffffff1660e01b8152600401602060405180830381865afa158015611967573d6000803e3d6000fd5b505050506040513d601f19601f8201168201806040525081019061198b9190612e8e565b6119959084612e3a565b61199f9190612e67565b905060006103e8606d5483856119b59190612e7b565b6119bf9190612e3a565b6119c99190612e67565b90506000816119d88486612e7b565b6119e29190612e7b565b60408051608080820183526067546001600160a01b039081168352602080840188905260008486018190526001606080870191909152865194850187526068548416855291840187905283860152600290830152606654935163425c8abd60e01b815260048101899052949550919390929091169063425c8abd90602401600060405180830381600087803b158015611a7a57600080fd5b505af1158015611a8e573d6000803e3d6000fd5b50505050611aa06070836072546124de565b607281905550611ab46070826072546124de565b607255611ac18385612ef5565b6040517ff1f1db1ecefb0a90b3cd6a1903d29374b4a935df69fd25c7fc6ed397d3683c2690600090a250505050505050565b611aff828233346125f5565b60665460405163b1cc226560e01b81526001600160a01b039091169063b1cc226590611b2f908590600401612c74565b6020604051808303816000875af1158015611b4e573d6000803e3d6000fd5b505050506040513d601f19601f82011682018060405250810190611b729190612e8e565b50600082602001518360600151611b899190612e7b565b9050600081606760009054906101000a90046001600160a01b03166001600160a01b03166343f7f7406040518163ffffffff1660e01b8152600401602060405180830381865afa158015611be1573d6000803e3d6000fd5b505050506040513d601f19601f82011682018060405250810190611c059190612e8e565b611c0f9190612ef5565b60675460405163a42b88bd60e01b8152600481018390529192506001600160a01b03169063a42b88bd90602401600060405180830381600087803b158015611c5657600080fd5b505af1158015611c6a573d6000803e3d6000fd5b50506074805460018101825560009182527f19a0b39aa25ac793b5f6e9a0534364cc0b3fd1ea9b651e79c7f50a59d48ef8130180546001600160a01b0319163317905560695460208801516040519294506001600160a01b039091169250908381818185875af1925050503d8060008114611d01576040519150601f19603f3d011682016040523d82523d6000602084013e611d06565b606091505b50509050806040518060400160405280600e81526020016d19985a5b1959081d1bc81cd95b9960921b81525090611d505760405162461bcd60e51b81526004016108f19190612ea7565b5060208501516040517f227a473b70d2f893cc7659219575c030a63b5743024fe1e0c1a680e708b1525a90600090a25050505050565b60675460408051808201909152600e81526d1b9bdd08185d5d1a1bdc9a5e995960921b6020820152906001600160a01b03163314611dd75760405162461bcd60e51b81526004016108f19190612ea7565b5060405181907f227a473b70d2f893cc7659219575c030a63b5743024fe1e0c1a680e708b1525a90600090a250565b60695460408051808201909152600e81526d1b9bdd08185d5d1a1bdc9a5e995960921b6020820152906001600160a01b03163314611e575760405162461bcd60e51b81526004016108f19190612ea7565b50607154607254815b818110156120d8574760708281548110611e7c57611e7c612fc0565b906000526020600020906004020160010154116120d857600060708281548110611ea857611ea8612fc0565b9060005260206000209060040201600301549050600060708381548110611ed157611ed1612fc0565b9060005260206000209060040201600101549050600060708481548110611efa57611efa612fc0565b60009182526020909120600490910201546071546072546001600160a01b039092169250611f2b9160709190612a5c565b6071556000839003611fda576000816001600160a01b03168360405160006040518083038185875af1925050503d8060008114611f84576040519150601f19603f3d011682016040523d82523d6000602084013e611f89565b606091505b50509050806040518060400160405280600e81526020016d19985a5b1959081d1bc81cd95b9960921b81525090611fd35760405162461bcd60e51b81526004016108f19190612ea7565b50506120c2565b8260010361205057606760009054906101000a90046001600160a01b03166001600160a01b031663befd63c4836040518263ffffffff1660e01b81526004016000604051808303818588803b15801561203257600080fd5b505af1158015612046573d6000803e3d6000fd5b50505050506120c2565b826002036120c257606860009054906101000a90046001600160a01b03166001600160a01b03166392d6d4eb836040518263ffffffff1660e01b81526004016000604051808303818588803b1580156120a857600080fd5b505af11580156120bc573d6000803e3d6000fd5b50505050505b50505080806120d090612fd6565b915050611e60565b505050565b607481815481106120ed57600080fd5b6000918252602090912001546001600160a01b0316905081565b61210f612484565b606b55565b600054610100900460ff16158080156121345750600054600160ff909116105b8061214e5750303b15801561214e575060005460ff166001145b6121b15760405162461bcd60e51b815260206004820152602e60248201527f496e697469616c697a61626c653a20636f6e747261637420697320616c72656160448201526d191e481a5b9a5d1a585b1a5e995960921b60648201526084016108f1565b6000805460ff1916600117905580156121d4576000805461ff0019166101001790555b6121dc612af0565b606580546001600160a01b0319166001600160a01b0384161790556122046103e86005612e3a565b6073556122146103e8600a612e3a565b606b556122246103e86005612e3a565b606c556122336064600a612e3a565b606a556102bc606d81905561224a906103e8612e7b565b606e558015612293576000805461ff0019169055604051600181527f7f26b83ff96e1f2b6a682f133852f6798a09c465da95921460cefb38474024989060200160405180910390a15b5050565b61229f612484565b606880546001600160a01b0319166001600160a01b0392909216919091179055565b6122c9612484565b606c55565b60006122dd8383606a54612b1f565b9392505050565b6122ec612484565b607355565b6122f9612484565b6001600160a01b03811661235e5760405162461bcd60e51b815260206004820152602660248201527f4f776e61626c653a206e6577206f776e657220697320746865207a65726f206160448201526564647265737360d01b60648201526084016108f1565b612367816125a3565b50565b612372612484565b606780546001600160a01b0319166001600160a01b0392909216919091179055565b60006114ef82612b64565b6123a7612484565b6103e86123b48284612ef5565b146040518060800160405280604b815260200161313f604b9139906123ec5760405162461bcd60e51b81526004016108f19190612ea7565b50606d91909155606e55565b60006122dd8383612bca565b61240c612484565b606680546001600160a01b0319166001600160a01b0392909216919091179055565b6070818154811061243e57600080fd5b600091825260209091206004909102018054600182015460028301546003909301546001600160a01b039092169350919084565b6000607154607254610b359190612e7b565b6033546001600160a01b031633146115965760405162461bcd60e51b815260206004820181905260248201527f4f776e61626c653a2063616c6c6572206973206e6f7420746865206f776e657260448201526064016108f1565b82546001808201855560008581526020808220865160049095020180546001600160a01b0319166001600160a01b039095169490941784558501518383015560408501516002840155606085015160039093019290925561157c908390612ef5565b6000610168816125536103e86002612e3a565b9050806103e8612566620186a087612e3a565b876125718a87612e3a565b61257b9190612e3a565b6125859190612e67565b61258f9190612e3a565b6125999190612ef5565b9695505050505050565b603380546001600160a01b038381166001600160a01b0319831681179093556040519116919082907f8be0079c531659141344cd1fd0a4f28419497f9722a3daafe3b4186f6b6457e090600090a35050565b816001600160a01b031684600001516001600160a01b03161460405180604001604052806012815260200171696e76616c6964207374616b6520696e666f60701b815250906126575760405162461bcd60e51b81526004016108f19190612ea7565b508084602001511460405180604001604052806012815260200171696e76616c6964207374616b6520696e666f60701b815250906126a85760405162461bcd60e51b81526004016108f19190612ea7565b5060006126b88560400151612394565b9050808560800151101560405180604001604052806012815260200171696e76616c6964207374616b6520696e666f60701b8152509061270b5760405162461bcd60e51b81526004016108f19190612ea7565b50600061271b6201518042612fef565b6127259042612e7b565b9050808660a001511015801561274b57506127438162015180612ef5565b8660a0015111155b60405180604001604052806012815260200171696e76616c6964207374616b6520696e666f60701b815250906127945760405162461bcd60e51b81526004016108f19190612ea7565b5085608001518660a001518760c001516127ae9190612e7b565b1460405180604001604052806012815260200171696e76616c6964207374616b6520696e666f60701b815250906127f85760405162461bcd60e51b81526004016108f19190612ea7565b506000620186a061280a816001612e3a565b88604001516128199190612e7b565b88602001516128289190612e3a565b6128329190612e67565b9050606760009054906101000a90046001600160a01b03166001600160a01b03166367114bd46040518163ffffffff1660e01b8152600401602060405180830381865afa158015612887573d6000803e3d6000fd5b505050506040513d601f19601f820116820180604052508101906128ab9190612e8e565b811115604051806040016040528060148152602001731d1bdbc81b5d58da081b195b9d08185b5bdd5b9d60621b815250906128f95760405162461bcd60e51b81526004016108f19190612ea7565b506000620186a0886040015189602001516129149190612e3a565b61291e9190612e67565b9050600061292f6103e86064612e3a565b8861293d6103e86064612e3a565b6129479190612e7b565b8a60e001516129569190612e3a565b6129609190612e67565b905060006129716103e86064612e3a565b8961297f6103e86064612e3a565b6129899190612ef5565b8b60e001516129989190612e3a565b6129a29190612e67565b905060006129b4858c604001516114f5565b90508083111560405180604001604052806012815260200171696e76616c6964207374616b6520696e666f60701b81525090612a035760405162461bcd60e51b81526004016108f19190612ea7565b50604080518082019091526012815271696e76616c6964207374616b6520696e666f60701b602082015281831015612a4e5760405162461bcd60e51b81526004016108f19190612ea7565b505050505050505050505050565b6000818310612a9e5760405162461bcd60e51b815260206004820152600e60248201526d517565756520697320656d70747960901b60448201526064016108f1565b838381548110612ab057612ab0612fc0565b60009182526020822060049091020180546001600160a01b031916815560018082018390556002820183905560039091019190915561157c908490612ef5565b600054610100900460ff16612b175760405162461bcd60e51b81526004016108f190613003565b611596612be4565b60006301e13380612b31606482612e3a565b612b3c906064612e3a565b83612b478688612e3a565b612b519190612e3a565b612b5b9190612e67565b95945050505050565b600062015180600a600360326105a0808583612b8386620186a0613132565b612b8d878c613132565b612b979089612e3a565b612ba19190612e67565b612bab9190612ef5565b612bb59190612e3a565b612bbf9190612e67565b979650505050505050565b6000620186a0612bda8385612e3a565b6122dd9190612e67565b600054610100900460ff16612c0b5760405162461bcd60e51b81526004016108f190613003565b611596336125a3565b6001600160a01b038116811461236757600080fd5b8035612c3481612c14565b919050565b60008060008060808587031215612c4f57600080fd5b8435612c5a81612c14565b966020860135965060408601359560600135945092505050565b81516001600160a01b031681526020808301519082015260408083015190820152606080830151908201526080808301519082015260a0828101519082015260c0808301519082015260e08083015190820152610100918201511515918101919091526101200190565b600060208284031215612cf057600080fd5b81356122dd81612c14565b600060208284031215612d0d57600080fd5b5035919050565b60008060408385031215612d2757600080fd5b50508035926020909101359150565b604051610120810167ffffffffffffffff81118282101715612d6857634e487b7160e01b600052604160045260246000fd5b60405290565b801515811461236757600080fd5b8035612c3481612d6e565b600080828403610140811215612d9c57600080fd5b61012080821215612dac57600080fd5b612db4612d36565b9150612dbf85612c29565b82526020850135602083015260408501356040830152606085013560608301526080850135608083015260a085013560a083015260c085013560c083015260e085013560e0830152610100612e15818701612d7c565b90830152909593013593505050565b634e487b7160e01b600052601160045260246000fd5b80820281158282048414176114ef576114ef612e24565b634e487b7160e01b600052601260045260246000fd5b600082612e7657612e76612e51565b500490565b818103818111156114ef576114ef612e24565b600060208284031215612ea057600080fd5b5051919050565b600060208083528351808285015260005b81811015612ed457858101830151858201604001528201612eb8565b506000604082860101526040601f19601f8301168501019250505092915050565b808201808211156114ef576114ef612e24565b8051612c3481612d6e565b600060208284031215612f2557600080fd5b81516122dd81612d6e565b8051612c3481612c14565b60006101208284031215612f4e57600080fd5b612f56612d36565b612f5f83612f30565b81526020830151602082015260408301516040820152606083015160608201526080830151608082015260a083015160a082015260c083015160c082015260e083015160e0820152610100612fb5818501612f08565b908201529392505050565b634e487b7160e01b600052603260045260246000fd5b600060018201612fe857612fe8612e24565b5060010190565b600082612ffe57612ffe612e51565b500690565b6020808252602b908201527f496e697469616c697a61626c653a20636f6e7472616374206973206e6f74206960408201526a6e697469616c697a696e6760a81b606082015260800190565b600181815b8085111561308957816000190482111561306f5761306f612e24565b8085161561307c57918102915b93841c9390800290613053565b509250929050565b6000826130a0575060016114ef565b816130ad575060006114ef565b81600181146130c357600281146130cd576130e9565b60019150506114ef565b60ff8411156130de576130de612e24565b50506001821b6114ef565b5060208310610133831016604e8410600b841016171561310c575081810a6114ef565b613116838361304e565b806000190482111561312a5761312a612e24565b029392505050565b60006122dd838361309156fe6c7020706f6f6c20706f7274696f6e202b20696e7669207374616b6520706f7274696f6e2073686f756c6420657175616c20746f20726577617264506f7274696f6e546f74616c556e6974a2646970667358221220bc7e1b2114e8627f05eb32456a522a258a1e94c14384f5bd822da28861579e0b64736f6c63430008120033",
  "linkReferences": {},
  "deployedLinkReferences": {}
}