{
  "_format": "hh-sol-artifact-1",
  "contractName": "ILPToken",
  "sourceName": "contracts/tokens/ILPToken.sol",
  "abi": [
    {
      "anonymous": false,
      "inputs": [
        {
          "indexed": true,
          "internalType": "address",
          "name": "owner",
          "type": "address"
        },
        {
          "indexed": true,
          "internalType": "address",
          "name": "spender",
          "type": "address"
        },
        {
          "indexed": false,
          "internalType": "uint256",
          "name": "value",
          "type": "uint256"
        }
      ],
      "name": "Approval",
      "type": "event"
    },
    {
      "anonymous": false,
      "inputs": [
        {
          "indexed": false,
          "internalType": "uint8",
          "name": "version",
          "type": "uint8"
        }
      ],
      "name": "Initialized",
      "type": "event"
    },
    {
      "anonymous": false,
      "inputs": [
        {
          "indexed": true,
          "internalType": "address",
          "name": "previousOwner",
          "type": "address"
        },
        {
          "indexed": true,
          "internalType": "address",
          "name": "newOwner",
          "type": "address"
        }
      ],
      "name": "OwnershipTransferred",
      "type": "event"
    },
    {
      "anonymous": false,
      "inputs": [
        {
          "indexed": true,
          "internalType": "address",
          "name": "from",
          "type": "address"
        },
        {
          "indexed": true,
          "internalType": "address",
          "name": "to",
          "type": "address"
        },
        {
          "indexed": false,
          "internalType": "uint256",
          "name": "value",
          "type": "uint256"
        }
      ],
      "name": "Transfer",
      "type": "event"
    },
    {
      "inputs": [
        {
          "internalType": "uint256",
          "name": "",
          "type": "uint256"
        }
      ],
      "name": "ILPHolders",
      "outputs": [
        {
          "internalType": "address",
          "name": "",
          "type": "address"
        }
      ],
      "stateMutability": "view",
      "type": "function"
    },
    {
      "inputs": [
        {
          "internalType": "address",
          "name": "owner",
          "type": "address"
        },
        {
          "internalType": "address",
          "name": "spender",
          "type": "address"
        }
      ],
      "name": "allowance",
      "outputs": [
        {
          "internalType": "uint256",
          "name": "",
          "type": "uint256"
        }
      ],
      "stateMutability": "view",
      "type": "function"
    },
    {
      "inputs": [
        {
          "internalType": "address",
          "name": "spender",
          "type": "address"
        },
        {
          "internalType": "uint256",
          "name": "amount",
          "type": "uint256"
        }
      ],
      "name": "approve",
      "outputs": [
        {
          "internalType": "bool",
          "name": "",
          "type": "bool"
        }
      ],
      "stateMutability": "nonpayable",
      "type": "function"
    },
    {
      "inputs": [
        {
          "internalType": "address",
          "name": "account",
          "type": "address"
        }
      ],
      "name": "balanceOf",
      "outputs": [
        {
          "internalType": "uint256",
          "name": "",
          "type": "uint256"
        }
      ],
      "stateMutability": "view",
      "type": "function"
    },
    {
      "inputs": [
        {
          "internalType": "address",
          "name": "_account",
          "type": "address"
        },
        {
          "internalType": "uint256",
          "name": "_amount",
          "type": "uint256"
        }
      ],
      "name": "burnToken",
      "outputs": [],
      "stateMutability": "nonpayable",
      "type": "function"
    },
    {
      "inputs": [],
      "name": "decimals",
      "outputs": [
        {
          "internalType": "uint8",
          "name": "",
          "type": "uint8"
        }
      ],
      "stateMutability": "view",
      "type": "function"
    },
    {
      "inputs": [
        {
          "internalType": "address",
          "name": "spender",
          "type": "address"
        },
        {
          "internalType": "uint256",
          "name": "subtractedValue",
          "type": "uint256"
        }
      ],
      "name": "decreaseAllowance",
      "outputs": [
        {
          "internalType": "bool",
          "name": "",
          "type": "bool"
        }
      ],
      "stateMutability": "nonpayable",
      "type": "function"
    },
    {
      "inputs": [],
      "name": "getILPHolders",
      "outputs": [
        {
          "internalType": "address[]",
          "name": "",
          "type": "address[]"
        }
      ],
      "stateMutability": "view",
      "type": "function"
    },
    {
      "inputs": [
        {
          "internalType": "address",
          "name": "spender",
          "type": "address"
        },
        {
          "internalType": "uint256",
          "name": "addedValue",
          "type": "uint256"
        }
      ],
      "name": "increaseAllowance",
      "outputs": [
        {
          "internalType": "bool",
          "name": "",
          "type": "bool"
        }
      ],
      "stateMutability": "nonpayable",
      "type": "function"
    },
    {
      "inputs": [],
      "name": "initialize",
      "outputs": [],
      "stateMutability": "nonpayable",
      "type": "function"
    },
    {
      "inputs": [
        {
          "internalType": "address",
          "name": "_account",
          "type": "address"
        },
        {
          "internalType": "uint256",
          "name": "_amount",
          "type": "uint256"
        }
      ],
      "name": "mintToken",
      "outputs": [],
      "stateMutability": "nonpayable",
      "type": "function"
    },
    {
      "inputs": [],
      "name": "name",
      "outputs": [
        {
          "internalType": "string",
          "name": "",
          "type": "string"
        }
      ],
      "stateMutability": "view",
      "type": "function"
    },
    {
      "inputs": [],
      "name": "owner",
      "outputs": [
        {
          "internalType": "address",
          "name": "",
          "type": "address"
        }
      ],
      "stateMutability": "view",
      "type": "function"
    },
    {
      "inputs": [],
      "name": "renounceOwnership",
      "outputs": [],
      "stateMutability": "nonpayable",
      "type": "function"
    },
    {
      "inputs": [],
      "name": "symbol",
      "outputs": [
        {
          "internalType": "string",
          "name": "",
          "type": "string"
        }
      ],
      "stateMutability": "view",
      "type": "function"
    },
    {
      "inputs": [],
      "name": "totalSupply",
      "outputs": [
        {
          "internalType": "uint256",
          "name": "",
          "type": "uint256"
        }
      ],
      "stateMutability": "view",
      "type": "function"
    },
    {
      "inputs": [
        {
          "internalType": "address",
          "name": "to",
          "type": "address"
        },
        {
          "internalType": "uint256",
          "name": "amount",
          "type": "uint256"
        }
      ],
      "name": "transfer",
      "outputs": [
        {
          "internalType": "bool",
          "name": "",
          "type": "bool"
        }
      ],
      "stateMutability": "nonpayable",
      "type": "function"
    },
    {
      "inputs": [
        {
          "internalType": "address",
          "name": "from",
          "type": "address"
        },
        {
          "internalType": "address",
          "name": "to",
          "type": "address"
        },
        {
          "internalType": "uint256",
          "name": "amount",
          "type": "uint256"
        }
      ],
      "name": "transferFrom",
      "outputs": [
        {
          "internalType": "bool",
          "name": "",
          "type": "bool"
        }
      ],
      "stateMutability": "nonpayable",
      "type": "function"
    },
    {
      "inputs": [
        {
          "internalType": "address",
          "name": "newOwner",
          "type": "address"
        }
      ],
      "name": "transferOwnership",
      "outputs": [],
      "stateMutability": "nonpayable",
      "type": "function"
    }
  ],
  "bytecode": "0x608060405234801561001057600080fd5b506126a8806100206000396000f3fe608060405234801561001057600080fd5b50600436106101215760003560e01c80638129fc1c116100ad578063a9059cbb11610071578063a9059cbb1461030c578063d1df306c1461033c578063dd62ed3e14610358578063e632e1f414610388578063f2fde38b146103a657610121565b80638129fc1c146102665780638da5cb5b1461027057806395d89b411461028e578063a192800d146102ac578063a457c2d7146102dc57610121565b8063313ce567116100f4578063313ce567146101c257806339509351146101e057806370a0823114610210578063715018a61461024057806379c650681461024a57610121565b806306fdde0314610126578063095ea7b31461014457806318160ddd1461017457806323b872dd14610192575b600080fd5b61012e6103c2565b60405161013b9190611722565b60405180910390f35b61015e600480360381019061015991906117dd565b610454565b60405161016b9190611838565b60405180910390f35b61017c610477565b6040516101899190611862565b60405180910390f35b6101ac60048036038101906101a7919061187d565b610481565b6040516101b99190611838565b60405180910390f35b6101ca6104bb565b6040516101d791906118ec565b60405180910390f35b6101fa60048036038101906101f591906117dd565b6104c4565b6040516102079190611838565b60405180910390f35b61022a60048036038101906102259190611907565b6104fb565b6040516102379190611862565b60405180910390f35b610248610544565b005b610264600480360381019061025f91906117dd565b610558565b005b61026e610579565b005b61027861072b565b6040516102859190611943565b60405180910390f35b610296610755565b6040516102a39190611722565b60405180910390f35b6102c660048036038101906102c1919061195e565b6107e7565b6040516102d39190611943565b60405180910390f35b6102f660048036038101906102f191906117dd565b610826565b6040516103039190611838565b60405180910390f35b610326600480360381019061032191906117dd565b61089d565b6040516103339190611838565b60405180910390f35b610356600480360381019061035191906117dd565b6108cb565b005b610372600480360381019061036d919061198b565b6108e1565b60405161037f9190611862565b60405180910390f35b610390610968565b60405161039d9190611a89565b60405180910390f35b6103c060048036038101906103bb9190611907565b6109f6565b005b6060603680546103d190611ada565b80601f01602080910402602001604051908101604052809291908181526020018280546103fd90611ada565b801561044a5780601f1061041f5761010080835404028352916020019161044a565b820191906000526020600020905b81548152906001019060200180831161042d57829003601f168201915b5050505050905090565b60008061045f610a79565b905061046c818585610a81565b600191505092915050565b6000603554905090565b60008061048c610a79565b9050610499858285610c4a565b6104a4858585610cd6565b6104af609785610f4f565b60019150509392505050565b60006012905090565b6000806104cf610a79565b90506104f08185856104e185896108e1565b6104eb9190611b3a565b610a81565b600191505092915050565b6000603360008373ffffffffffffffffffffffffffffffffffffffff1673ffffffffffffffffffffffffffffffffffffffff168152602001908152602001600020549050919050565b61054c610fc4565b6105566000611042565b565b610560610fc4565b61056a8282611108565b610575609783610f4f565b5050565b60008060019054906101000a900460ff161590508080156105aa5750600160008054906101000a900460ff1660ff16105b806105d757506105b93061125f565b1580156105d65750600160008054906101000a900460ff1660ff16145b5b610616576040517f08c379a000000000000000000000000000000000000000000000000000000000815260040161060d90611be0565b60405180910390fd5b60016000806101000a81548160ff021916908360ff1602179055508015610653576001600060016101000a81548160ff0219169083151502179055505b6106c76040518060400160405280601d81526020017f496e7669204c69717569646974792050726f766964657220546f6b656e0000008152506040518060400160405280600381526020017f494c500000000000000000000000000000000000000000000000000000000000815250611282565b6106cf6112df565b80156107285760008060016101000a81548160ff0219169083151502179055507f7f26b83ff96e1f2b6a682f133852f6798a09c465da95921460cefb3847402498600160405161071f9190611c45565b60405180910390a15b50565b6000606560009054906101000a900473ffffffffffffffffffffffffffffffffffffffff16905090565b60606037805461076490611ada565b80601f016020809104026020016040519081016040528092919081815260200182805461079090611ada565b80156107dd5780601f106107b2576101008083540402835291602001916107dd565b820191906000526020600020905b8154815290600101906020018083116107c057829003601f168201915b5050505050905090565b609781815481106107f757600080fd5b906000526020600020016000915054906101000a900473ffffffffffffffffffffffffffffffffffffffff1681565b600080610831610a79565b9050600061083f82866108e1565b905083811015610884576040517f08c379a000000000000000000000000000000000000000000000000000000000815260040161087b90611cd2565b60405180910390fd5b6108918286868403610a81565b60019250505092915050565b6000806108a8610a79565b90506108b5818585610cd6565b6108c0609785610f4f565b600191505092915050565b6108d3610fc4565b6108dd8282611338565b5050565b6000603460008473ffffffffffffffffffffffffffffffffffffffff1673ffffffffffffffffffffffffffffffffffffffff16815260200190815260200160002060008373ffffffffffffffffffffffffffffffffffffffff1673ffffffffffffffffffffffffffffffffffffffff16815260200190815260200160002054905092915050565b606060978054806020026020016040519081016040528092919081815260200182805480156109ec57602002820191906000526020600020905b8160009054906101000a900473ffffffffffffffffffffffffffffffffffffffff1673ffffffffffffffffffffffffffffffffffffffff16815260200190600101908083116109a2575b5050505050905090565b6109fe610fc4565b600073ffffffffffffffffffffffffffffffffffffffff168173ffffffffffffffffffffffffffffffffffffffff1603610a6d576040517f08c379a0000000000000000000000000000000000000000000000000000000008152600401610a6490611d64565b60405180910390fd5b610a7681611042565b50565b600033905090565b600073ffffffffffffffffffffffffffffffffffffffff168373ffffffffffffffffffffffffffffffffffffffff1603610af0576040517f08c379a0000000000000000000000000000000000000000000000000000000008152600401610ae790611df6565b60405180910390fd5b600073ffffffffffffffffffffffffffffffffffffffff168273ffffffffffffffffffffffffffffffffffffffff1603610b5f576040517f08c379a0000000000000000000000000000000000000000000000000000000008152600401610b5690611e88565b60405180910390fd5b80603460008573ffffffffffffffffffffffffffffffffffffffff1673ffffffffffffffffffffffffffffffffffffffff16815260200190815260200160002060008473ffffffffffffffffffffffffffffffffffffffff1673ffffffffffffffffffffffffffffffffffffffff168152602001908152602001600020819055508173ffffffffffffffffffffffffffffffffffffffff168373ffffffffffffffffffffffffffffffffffffffff167f8c5be1e5ebec7d5bd14f71427d1e84f3dd0314c0f7b2291e5b200ac8c7c3b92583604051610c3d9190611862565b60405180910390a3505050565b6000610c5684846108e1565b90507fffffffffffffffffffffffffffffffffffffffffffffffffffffffffffffffff8114610cd05781811015610cc2576040517f08c379a0000000000000000000000000000000000000000000000000000000008152600401610cb990611ef4565b60405180910390fd5b610ccf8484848403610a81565b5b50505050565b600073ffffffffffffffffffffffffffffffffffffffff168373ffffffffffffffffffffffffffffffffffffffff1603610d45576040517f08c379a0000000000000000000000000000000000000000000000000000000008152600401610d3c90611f86565b60405180910390fd5b600073ffffffffffffffffffffffffffffffffffffffff168273ffffffffffffffffffffffffffffffffffffffff1603610db4576040517f08c379a0000000000000000000000000000000000000000000000000000000008152600401610dab90612018565b60405180910390fd5b610dbf838383611507565b6000603360008573ffffffffffffffffffffffffffffffffffffffff1673ffffffffffffffffffffffffffffffffffffffff16815260200190815260200160002054905081811015610e46576040517f08c379a0000000000000000000000000000000000000000000000000000000008152600401610e3d906120aa565b60405180910390fd5b818103603360008673ffffffffffffffffffffffffffffffffffffffff1673ffffffffffffffffffffffffffffffffffffffff1681526020019081526020016000208190555081603360008573ffffffffffffffffffffffffffffffffffffffff1673ffffffffffffffffffffffffffffffffffffffff168152602001908152602001600020600082825401925050819055508273ffffffffffffffffffffffffffffffffffffffff168473ffffffffffffffffffffffffffffffffffffffff167fddf252ad1be2c89b69c2b068fc378daa952ba7f163c4a11628f55a4df523b3ef84604051610f369190611862565b60405180910390a3610f4984848461150c565b50505050565b610f598282611511565b610fc05781819080600181540180825580915050600190039060005260206000200160009091909190916101000a81548173ffffffffffffffffffffffffffffffffffffffff021916908373ffffffffffffffffffffffffffffffffffffffff1602179055505b5050565b610fcc610a79565b73ffffffffffffffffffffffffffffffffffffffff16610fea61072b565b73ffffffffffffffffffffffffffffffffffffffff1614611040576040517f08c379a000000000000000000000000000000000000000000000000000000000815260040161103790612116565b60405180910390fd5b565b6000606560009054906101000a900473ffffffffffffffffffffffffffffffffffffffff16905081606560006101000a81548173ffffffffffffffffffffffffffffffffffffffff021916908373ffffffffffffffffffffffffffffffffffffffff1602179055508173ffffffffffffffffffffffffffffffffffffffff168173ffffffffffffffffffffffffffffffffffffffff167f8be0079c531659141344cd1fd0a4f28419497f9722a3daafe3b4186f6b6457e060405160405180910390a35050565b600073ffffffffffffffffffffffffffffffffffffffff168273ffffffffffffffffffffffffffffffffffffffff1603611177576040517f08c379a000000000000000000000000000000000000000000000000000000000815260040161116e90612182565b60405180910390fd5b61118360008383611507565b80603560008282546111959190611b3a565b9250508190555080603360008473ffffffffffffffffffffffffffffffffffffffff1673ffffffffffffffffffffffffffffffffffffffff168152602001908152602001600020600082825401925050819055508173ffffffffffffffffffffffffffffffffffffffff16600073ffffffffffffffffffffffffffffffffffffffff167fddf252ad1be2c89b69c2b068fc378daa952ba7f163c4a11628f55a4df523b3ef836040516112479190611862565b60405180910390a361125b6000838361150c565b5050565b6000808273ffffffffffffffffffffffffffffffffffffffff163b119050919050565b600060019054906101000a900460ff166112d1576040517f08c379a00000000000000000000000000000000000000000000000000000000081526004016112c890612214565b60405180910390fd5b6112db82826115be565b5050565b600060019054906101000a900460ff1661132e576040517f08c379a000000000000000000000000000000000000000000000000000000000815260040161132590612214565b60405180910390fd5b611336611631565b565b600073ffffffffffffffffffffffffffffffffffffffff168273ffffffffffffffffffffffffffffffffffffffff16036113a7576040517f08c379a000000000000000000000000000000000000000000000000000000000815260040161139e906122a6565b60405180910390fd5b6113b382600083611507565b6000603360008473ffffffffffffffffffffffffffffffffffffffff1673ffffffffffffffffffffffffffffffffffffffff1681526020019081526020016000205490508181101561143a576040517f08c379a000000000000000000000000000000000000000000000000000000000815260040161143190612338565b60405180910390fd5b818103603360008573ffffffffffffffffffffffffffffffffffffffff1673ffffffffffffffffffffffffffffffffffffffff1681526020019081526020016000208190555081603560008282540392505081905550600073ffffffffffffffffffffffffffffffffffffffff168373ffffffffffffffffffffffffffffffffffffffff167fddf252ad1be2c89b69c2b068fc378daa952ba7f163c4a11628f55a4df523b3ef846040516114ee9190611862565b60405180910390a36115028360008461150c565b505050565b505050565b505050565b600080600090505b83805490508110156115b2578273ffffffffffffffffffffffffffffffffffffffff1684828154811061154f5761154e612358565b5b9060005260206000200160009054906101000a900473ffffffffffffffffffffffffffffffffffffffff1673ffffffffffffffffffffffffffffffffffffffff160361159f5760019150506115b8565b80806115aa90612387565b915050611519565b50600090505b92915050565b600060019054906101000a900460ff1661160d576040517f08c379a000000000000000000000000000000000000000000000000000000000815260040161160490612214565b60405180910390fd5b816036908161161c91906125a0565b50806037908161162c91906125a0565b505050565b600060019054906101000a900460ff16611680576040517f08c379a000000000000000000000000000000000000000000000000000000000815260040161167790612214565b60405180910390fd5b61169061168b610a79565b611042565b565b600081519050919050565b600082825260208201905092915050565b60005b838110156116cc5780820151818401526020810190506116b1565b60008484015250505050565b6000601f19601f8301169050919050565b60006116f482611692565b6116fe818561169d565b935061170e8185602086016116ae565b611717816116d8565b840191505092915050565b6000602082019050818103600083015261173c81846116e9565b905092915050565b600080fd5b600073ffffffffffffffffffffffffffffffffffffffff82169050919050565b600061177482611749565b9050919050565b61178481611769565b811461178f57600080fd5b50565b6000813590506117a18161177b565b92915050565b6000819050919050565b6117ba816117a7565b81146117c557600080fd5b50565b6000813590506117d7816117b1565b92915050565b600080604083850312156117f4576117f3611744565b5b600061180285828601611792565b9250506020611813858286016117c8565b9150509250929050565b60008115159050919050565b6118328161181d565b82525050565b600060208201905061184d6000830184611829565b92915050565b61185c816117a7565b82525050565b60006020820190506118776000830184611853565b92915050565b60008060006060848603121561189657611895611744565b5b60006118a486828701611792565b93505060206118b586828701611792565b92505060406118c6868287016117c8565b9150509250925092565b600060ff82169050919050565b6118e6816118d0565b82525050565b600060208201905061190160008301846118dd565b92915050565b60006020828403121561191d5761191c611744565b5b600061192b84828501611792565b91505092915050565b61193d81611769565b82525050565b60006020820190506119586000830184611934565b92915050565b60006020828403121561197457611973611744565b5b6000611982848285016117c8565b91505092915050565b600080604083850312156119a2576119a1611744565b5b60006119b085828601611792565b92505060206119c185828601611792565b9150509250929050565b600081519050919050565b600082825260208201905092915050565b6000819050602082019050919050565b611a0081611769565b82525050565b6000611a1283836119f7565b60208301905092915050565b6000602082019050919050565b6000611a36826119cb565b611a4081856119d6565b9350611a4b836119e7565b8060005b83811015611a7c578151611a638882611a06565b9750611a6e83611a1e565b925050600181019050611a4f565b5085935050505092915050565b60006020820190508181036000830152611aa38184611a2b565b905092915050565b7f4e487b7100000000000000000000000000000000000000000000000000000000600052602260045260246000fd5b60006002820490506001821680611af257607f821691505b602082108103611b0557611b04611aab565b5b50919050565b7f4e487b7100000000000000000000000000000000000000000000000000000000600052601160045260246000fd5b6000611b45826117a7565b9150611b50836117a7565b9250828201905080821115611b6857611b67611b0b565b5b92915050565b7f496e697469616c697a61626c653a20636f6e747261637420697320616c72656160008201527f647920696e697469616c697a6564000000000000000000000000000000000000602082015250565b6000611bca602e8361169d565b9150611bd582611b6e565b604082019050919050565b60006020820190508181036000830152611bf981611bbd565b9050919050565b6000819050919050565b6000819050919050565b6000611c2f611c2a611c2584611c00565b611c0a565b6118d0565b9050919050565b611c3f81611c14565b82525050565b6000602082019050611c5a6000830184611c36565b92915050565b7f45524332303a2064656372656173656420616c6c6f77616e63652062656c6f7760008201527f207a65726f000000000000000000000000000000000000000000000000000000602082015250565b6000611cbc60258361169d565b9150611cc782611c60565b604082019050919050565b60006020820190508181036000830152611ceb81611caf565b9050919050565b7f4f776e61626c653a206e6577206f776e657220697320746865207a65726f206160008201527f6464726573730000000000000000000000000000000000000000000000000000602082015250565b6000611d4e60268361169d565b9150611d5982611cf2565b604082019050919050565b60006020820190508181036000830152611d7d81611d41565b9050919050565b7f45524332303a20617070726f76652066726f6d20746865207a65726f2061646460008201527f7265737300000000000000000000000000000000000000000000000000000000602082015250565b6000611de060248361169d565b9150611deb82611d84565b604082019050919050565b60006020820190508181036000830152611e0f81611dd3565b9050919050565b7f45524332303a20617070726f766520746f20746865207a65726f20616464726560008201527f7373000000000000000000000000000000000000000000000000000000000000602082015250565b6000611e7260228361169d565b9150611e7d82611e16565b604082019050919050565b60006020820190508181036000830152611ea181611e65565b9050919050565b7f45524332303a20696e73756666696369656e7420616c6c6f77616e6365000000600082015250565b6000611ede601d8361169d565b9150611ee982611ea8565b602082019050919050565b60006020820190508181036000830152611f0d81611ed1565b9050919050565b7f45524332303a207472616e736665722066726f6d20746865207a65726f20616460008201527f6472657373000000000000000000000000000000000000000000000000000000602082015250565b6000611f7060258361169d565b9150611f7b82611f14565b604082019050919050565b60006020820190508181036000830152611f9f81611f63565b9050919050565b7f45524332303a207472616e7366657220746f20746865207a65726f206164647260008201527f6573730000000000000000000000000000000000000000000000000000000000602082015250565b600061200260238361169d565b915061200d82611fa6565b604082019050919050565b6000602082019050818103600083015261203181611ff5565b9050919050565b7f45524332303a207472616e7366657220616d6f756e742065786365656473206260008201527f616c616e63650000000000000000000000000000000000000000000000000000602082015250565b600061209460268361169d565b915061209f82612038565b604082019050919050565b600060208201905081810360008301526120c381612087565b9050919050565b7f4f776e61626c653a2063616c6c6572206973206e6f7420746865206f776e6572600082015250565b600061210060208361169d565b915061210b826120ca565b602082019050919050565b6000602082019050818103600083015261212f816120f3565b9050919050565b7f45524332303a206d696e7420746f20746865207a65726f206164647265737300600082015250565b600061216c601f8361169d565b915061217782612136565b602082019050919050565b6000602082019050818103600083015261219b8161215f565b9050919050565b7f496e697469616c697a61626c653a20636f6e7472616374206973206e6f74206960008201527f6e697469616c697a696e67000000000000000000000000000000000000000000602082015250565b60006121fe602b8361169d565b9150612209826121a2565b604082019050919050565b6000602082019050818103600083015261222d816121f1565b9050919050565b7f45524332303a206275726e2066726f6d20746865207a65726f2061646472657360008201527f7300000000000000000000000000000000000000000000000000000000000000602082015250565b600061229060218361169d565b915061229b82612234565b604082019050919050565b600060208201905081810360008301526122bf81612283565b9050919050565b7f45524332303a206275726e20616d6f756e7420657863656564732062616c616e60008201527f6365000000000000000000000000000000000000000000000000000000000000602082015250565b600061232260228361169d565b915061232d826122c6565b604082019050919050565b6000602082019050818103600083015261235181612315565b9050919050565b7f4e487b7100000000000000000000000000000000000000000000000000000000600052603260045260246000fd5b6000612392826117a7565b91507fffffffffffffffffffffffffffffffffffffffffffffffffffffffffffffffff82036123c4576123c3611b0b565b5b600182019050919050565b7f4e487b7100000000000000000000000000000000000000000000000000000000600052604160045260246000fd5b60008190508160005260206000209050919050565b60006020601f8301049050919050565b600082821b905092915050565b6000600883026124607fffffffffffffffffffffffffffffffffffffffffffffffffffffffffffffffff82612423565b61246a8683612423565b95508019841693508086168417925050509392505050565b600061249d612498612493846117a7565b611c0a565b6117a7565b9050919050565b6000819050919050565b6124b783612482565b6124cb6124c3826124a4565b848454612430565b825550505050565b600090565b6124e06124d3565b6124eb8184846124ae565b505050565b5b8181101561250f576125046000826124d8565b6001810190506124f1565b5050565b601f82111561255457612525816123fe565b61252e84612413565b8101602085101561253d578190505b61255161254985612413565b8301826124f0565b50505b505050565b600082821c905092915050565b600061257760001984600802612559565b1980831691505092915050565b60006125908383612566565b9150826002028217905092915050565b6125a982611692565b67ffffffffffffffff8111156125c2576125c16123cf565b5b6125cc8254611ada565b6125d7828285612513565b600060209050601f83116001811461260a57600084156125f8578287015190505b6126028582612584565b86555061266a565b601f198416612618866123fe565b60005b828110156126405784890151825560018201915060208501945060208101905061261b565b8683101561265d5784890151612659601f891682612566565b8355505b6001600288020188555050505b50505050505056fea26469706673582212203677aebbc7ec5b30a84c8d29e9d7cee3c8d7c436537e7d30588b96b4ae495e3864736f6c63430008120033",
  "linkReferences": {},
  "deployedLinkReferences": {}
}