{
  "_format": "hh-sol-artifact-1",
  "contractName": "InviTokenStake",
  "sourceName": "contracts/InviTokenStake.sol",
  "abi": [
    {
      "anonymous": false,
      "inputs": [
        {
          "indexed": false,
          "internalType": "uint8",
          "name": "version",
          "type": "uint8"
        }
      ],
      "name": "Initialized",
      "type": "event"
    },
    {
      "anonymous": false,
      "inputs": [
        {
          "indexed": true,
          "internalType": "address",
          "name": "previousOwner",
          "type": "address"
        },
        {
          "indexed": true,
          "internalType": "address",
          "name": "newOwner",
          "type": "address"
        }
      ],
      "name": "OwnershipTransferred",
      "type": "event"
    },
    {
      "inputs": [
        {
          "internalType": "uint256",
          "name": "",
          "type": "uint256"
        }
      ],
      "name": "addressList",
      "outputs": [
        {
          "internalType": "address",
          "name": "",
          "type": "address"
        }
      ],
      "stateMutability": "view",
      "type": "function"
    },
    {
      "inputs": [
        {
          "internalType": "address",
          "name": "_inviTokenAddr",
          "type": "address"
        }
      ],
      "name": "initialize",
      "outputs": [],
      "stateMutability": "nonpayable",
      "type": "function"
    },
    {
      "inputs": [],
      "name": "inviCoreAddress",
      "outputs": [
        {
          "internalType": "address",
          "name": "",
          "type": "address"
        }
      ],
      "stateMutability": "view",
      "type": "function"
    },
    {
      "inputs": [],
      "name": "inviReceiveInterval",
      "outputs": [
        {
          "internalType": "uint256",
          "name": "",
          "type": "uint256"
        }
      ],
      "stateMutability": "view",
      "type": "function"
    },
    {
      "inputs": [
        {
          "internalType": "address",
          "name": "",
          "type": "address"
        }
      ],
      "name": "inviRewardAmount",
      "outputs": [
        {
          "internalType": "uint256",
          "name": "",
          "type": "uint256"
        }
      ],
      "stateMutability": "view",
      "type": "function"
    },
    {
      "inputs": [],
      "name": "inviRewardInterval",
      "outputs": [
        {
          "internalType": "uint256",
          "name": "",
          "type": "uint256"
        }
      ],
      "stateMutability": "view",
      "type": "function"
    },
    {
      "inputs": [],
      "name": "inviToken",
      "outputs": [
        {
          "internalType": "contract IERC20",
          "name": "",
          "type": "address"
        }
      ],
      "stateMutability": "view",
      "type": "function"
    },
    {
      "inputs": [],
      "name": "lastInviRewardedTime",
      "outputs": [
        {
          "internalType": "uint256",
          "name": "",
          "type": "uint256"
        }
      ],
      "stateMutability": "view",
      "type": "function"
    },
    {
      "inputs": [
        {
          "internalType": "address",
          "name": "",
          "type": "address"
        }
      ],
      "name": "nativeRewardAmount",
      "outputs": [
        {
          "internalType": "uint256",
          "name": "",
          "type": "uint256"
        }
      ],
      "stateMutability": "view",
      "type": "function"
    },
    {
      "inputs": [],
      "name": "owner",
      "outputs": [
        {
          "internalType": "address",
          "name": "",
          "type": "address"
        }
      ],
      "stateMutability": "view",
      "type": "function"
    },
    {
      "inputs": [],
      "name": "receiveInviReward",
      "outputs": [],
      "stateMutability": "nonpayable",
      "type": "function"
    },
    {
      "inputs": [],
      "name": "receiveNativeReward",
      "outputs": [],
      "stateMutability": "nonpayable",
      "type": "function"
    },
    {
      "inputs": [],
      "name": "renounceOwnership",
      "outputs": [],
      "stateMutability": "nonpayable",
      "type": "function"
    },
    {
      "inputs": [
        {
          "internalType": "address",
          "name": "_inviCoreAddr",
          "type": "address"
        }
      ],
      "name": "setInviCoreAddress",
      "outputs": [],
      "stateMutability": "nonpayable",
      "type": "function"
    },
    {
      "inputs": [
        {
          "internalType": "address",
          "name": "_inviTokenAddr",
          "type": "address"
        }
      ],
      "name": "setInviTokenAddress",
      "outputs": [],
      "stateMutability": "nonpayable",
      "type": "function"
    },
    {
      "inputs": [
        {
          "internalType": "address",
          "name": "_stakeManager",
          "type": "address"
        }
      ],
      "name": "setStakeManager",
      "outputs": [],
      "stateMutability": "nonpayable",
      "type": "function"
    },
    {
      "inputs": [
        {
          "internalType": "uint256",
          "name": "_stakeAmount",
          "type": "uint256"
        }
      ],
      "name": "stake",
      "outputs": [],
      "stateMutability": "nonpayable",
      "type": "function"
    },
    {
      "inputs": [],
      "name": "stakeManager",
      "outputs": [
        {
          "internalType": "address",
          "name": "",
          "type": "address"
        }
      ],
      "stateMutability": "view",
      "type": "function"
    },
    {
      "inputs": [
        {
          "internalType": "address",
          "name": "",
          "type": "address"
        }
      ],
      "name": "stakedAmount",
      "outputs": [
        {
          "internalType": "uint256",
          "name": "",
          "type": "uint256"
        }
      ],
      "stateMutability": "view",
      "type": "function"
    },
    {
      "inputs": [],
      "name": "totalAddressNumber",
      "outputs": [
        {
          "internalType": "uint256",
          "name": "",
          "type": "uint256"
        }
      ],
      "stateMutability": "view",
      "type": "function"
    },
    {
      "inputs": [],
      "name": "totalStakedAmount",
      "outputs": [
        {
          "internalType": "uint256",
          "name": "",
          "type": "uint256"
        }
      ],
      "stateMutability": "view",
      "type": "function"
    },
    {
      "inputs": [
        {
          "internalType": "address",
          "name": "newOwner",
          "type": "address"
        }
      ],
      "name": "transferOwnership",
      "outputs": [],
      "stateMutability": "nonpayable",
      "type": "function"
    },
    {
      "inputs": [
        {
          "internalType": "uint256",
          "name": "_unstakeAmount",
          "type": "uint256"
        }
      ],
      "name": "unStake",
      "outputs": [],
      "stateMutability": "nonpayable",
      "type": "function"
    },
    {
      "inputs": [],
      "name": "updateInviTokenReward",
      "outputs": [],
      "stateMutability": "nonpayable",
      "type": "function"
    },
    {
      "inputs": [],
      "name": "updateNativeReward",
      "outputs": [],
      "stateMutability": "payable",
      "type": "function"
    }
  ],
  "bytecode": "0x608060405234801561001057600080fd5b50611250806100206000396000f3fe6080604052600436106101655760003560e01c80638da5cb5b116100d1578063b79765791161008a578063d93b397b11610064578063d93b397b146103d7578063f2fde38b14610404578063f993185514610424578063fb8dfa821461045157600080fd5b8063b797657914610377578063b810fb4314610397578063c4d66de8146103b757600080fd5b80638da5cb5b146102e657806392d6d4eb1461030457806399b259b51461030c5780639eb31284146103225780639fe613ea14610342578063a694fc3a1461035757600080fd5b8063567e98f911610123578063567e98f9146102505780635c198a6e146102665780635d3eea911461027c578063715018a61461029c5780637542ff95146102b15780637a1870f9146102d157600080fd5b806281500a1461016a5780630e7c67fc1461018c578063128acf10146101ac5780631b30ff61146101ec5780631ca75aee1461022457806342579a2a1461023a575b600080fd5b34801561017657600080fd5b5061018a610185366004610fa8565b610466565b005b34801561019857600080fd5b5061018a6101a7366004610fa8565b610490565b3480156101b857600080fd5b506101d96101c7366004610fa8565b60696020526000908152604090205481565b6040519081526020015b60405180910390f35b3480156101f857600080fd5b5060675461020c906001600160a01b031681565b6040516001600160a01b0390911681526020016101e3565b34801561023057600080fd5b506101d9606e5481565b34801561024657600080fd5b506101d9606c5481565b34801561025c57600080fd5b506101d9606b5481565b34801561027257600080fd5b506101d960705481565b34801561028857600080fd5b5061018a610297366004610fd8565b6104ba565b3480156102a857600080fd5b5061018a6105dd565b3480156102bd57600080fd5b5060665461020c906001600160a01b031681565b3480156102dd57600080fd5b5061018a6105f1565b3480156102f257600080fd5b506033546001600160a01b031661020c565b61018a6106c8565b34801561031857600080fd5b506101d9606d5481565b34801561032e57600080fd5b5060655461020c906001600160a01b031681565b34801561034e57600080fd5b5061018a6107f5565b34801561036357600080fd5b5061018a610372366004610fd8565b6109a7565b34801561038357600080fd5b5061018a610392366004610fa8565b610ad1565b3480156103a357600080fd5b5061020c6103b2366004610fd8565b610afb565b3480156103c357600080fd5b5061018a6103d2366004610fa8565b610b25565b3480156103e357600080fd5b506101d96103f2366004610fa8565b606a6020526000908152604090205481565b34801561041057600080fd5b5061018a61041f366004610fa8565b610c6e565b34801561043057600080fd5b506101d961043f366004610fa8565b60686020526000908152604090205481565b34801561045d57600080fd5b5061018a610ce4565b61046e610d8d565b606780546001600160a01b0319166001600160a01b0392909216919091179055565b610498610d8d565b606680546001600160a01b0319166001600160a01b0392909216919091179055565b336000908152606860205260409020548111156105385760405162461bcd60e51b815260206004820152603160248201527f556e7374616b6520416d6f756e742063616e6e6f7420626520626967676572206044820152701d1a185b881cdd185ad948185b5bdd5b9d607a1b60648201526084015b60405180910390fd5b3360009081526068602052604081208054839290610557908490611007565b909155505060655460405163a9059cbb60e01b8152336004820152602481018390526001600160a01b039091169063a9059cbb906044016020604051808303816000875af11580156105ad573d6000803e3d6000fd5b505050506040513d601f19601f820116820180604052508101906105d1919061101a565b6105da57600080fd5b50565b6105e5610d8d565b6105ef6000610de7565b565b336000908152606a6020526040812054900361061f5760405162461bcd60e51b815260040161052f9061103c565b336000818152606a60205260408082208054929055606554905163a9059cbb60e01b815260048101939093526024830182905290916001600160a01b039091169063a9059cbb906044016020604051808303816000875af1158015610688573d6000803e3d6000fd5b505050506040513d601f19601f820116820180604052508101906106ac919061101a565b6105da5760405162461bcd60e51b815260040161052f9061107e565b6067546001600160a01b031633146107225760405162461bcd60e51b815260206004820152601e60248201527f6d73672073656e6465722073686f756c6420626520696e766920636f72650000604482015260640161052f565b60005b606f548110156105da576000606f8281548110610744576107446110c0565b6000918252602080832090910154606b546001600160a01b03909116808452606890925260408320549193509061077b90346110d6565b61078591906110ed565b90506107b16040518060400160405280600881526020016703932bbb0b9321d160c51b81525082610e39565b6001600160a01b038216600090815260696020526040812080548392906107d990849061110f565b92505081905550505080806107ed90611122565b915050610725565b6107fd610d8d565b606c54606e5461080d9042611007565b10156040518060400160405280601f81526020017f6469737472696275746520696e74657276616c206e6f74207265616368656400815250906108635760405162461bcd60e51b815260040161052f9190611181565b506065546040516370a0823160e01b81523060048201526000916001600160a01b0316906370a0823190602401602060405180830381865afa1580156108ad573d6000803e3d6000fd5b505050506040513d601f19601f820116820180604052508101906108d19190611194565b905060005b606f5481101561099f576000606f82815481106108f5576108f56110c0565b6000918252602082200154606c54606d546001600160a01b03909216935061091c916110ed565b606b5461092991906110d6565b6001600160a01b03831660009081526068602052604090205461094c90866110d6565b61095691906110ed565b6001600160a01b0383166000908152606a602052604081208054929350839290919061098390849061110f565b925050819055505050808061099790611122565b9150506108d6565b505042606e55565b6065546040516323b872dd60e01b8152336004820152306024820152604481018390526001600160a01b03909116906323b872dd906064016020604051808303816000875af11580156109fe573d6000803e3d6000fd5b505050506040513d601f19601f82011682018060405250810190610a22919061101a565b610a7f5760405162461bcd60e51b815260206004820152602860248201527f4661696c656420746f207472616e7366657220696e7669546f6b656e20746f2060448201526718dbdb9d1c9858dd60c21b606482015260840161052f565b3360009081526068602052604081208054839290610a9e90849061110f565b9250508190555080606b6000828254610ab7919061110f565b90915550610ac89050606f33610e7e565b50606f54607055565b610ad9610d8d565b606580546001600160a01b0319166001600160a01b0392909216919091179055565b606f8181548110610b0b57600080fd5b6000918252602090912001546001600160a01b0316905081565b600054610100900460ff1615808015610b455750600054600160ff909116105b80610b5f5750303b158015610b5f575060005460ff166001145b610bc25760405162461bcd60e51b815260206004820152602e60248201527f496e697469616c697a61626c653a20636f6e747261637420697320616c72656160448201526d191e481a5b9a5d1a585b1a5e995960921b606482015260840161052f565b6000805460ff191660011790558015610be5576000805461ff0019166101001790555b610bed610ebd565b606580546001600160a01b0319166001600160a01b038416179055610e10606c8190556201a5e0606d55610c219042611007565b606e558015610c6a576000805461ff0019169055604051600181527f7f26b83ff96e1f2b6a682f133852f6798a09c465da95921460cefb38474024989060200160405180910390a15b5050565b610c76610d8d565b6001600160a01b038116610cdb5760405162461bcd60e51b815260206004820152602660248201527f4f776e61626c653a206e6577206f776e657220697320746865207a65726f206160448201526564647265737360d01b606482015260840161052f565b6105da81610de7565b336000908152606960205260408120549003610d125760405162461bcd60e51b815260040161052f9061103c565b33600081815260696020526040808220805490839055905190929083908381818185875af1925050503d8060008114610d67576040519150601f19603f3d011682016040523d82523d6000602084013e610d6c565b606091505b5050905080610c6a5760405162461bcd60e51b815260040161052f9061107e565b6033546001600160a01b031633146105ef5760405162461bcd60e51b815260206004820181905260248201527f4f776e61626c653a2063616c6c6572206973206e6f7420746865206f776e6572604482015260640161052f565b603380546001600160a01b038381166001600160a01b0319831681179093556040519116919082907f8be0079c531659141344cd1fd0a4f28419497f9722a3daafe3b4186f6b6457e090600090a35050565b610c6a8282604051602401610e4f9291906111ad565b60408051601f198184030181529190526020810180516001600160e01b0316632d839cb360e21b179052610eec565b610e888282610f0d565b610c6a5781546001810183556000838152602090200180546001600160a01b0383166001600160a01b03199091161790555050565b600054610100900460ff16610ee45760405162461bcd60e51b815260040161052f906111cf565b6105ef610f78565b80516a636f6e736f6c652e6c6f67602083016000808483855afa5050505050565b6000805b8354811015610f6c57826001600160a01b0316848281548110610f3657610f366110c0565b6000918252602090912001546001600160a01b031603610f5a576001915050610f72565b80610f6481611122565b915050610f11565b50600090505b92915050565b600054610100900460ff16610f9f5760405162461bcd60e51b815260040161052f906111cf565b6105ef33610de7565b600060208284031215610fba57600080fd5b81356001600160a01b0381168114610fd157600080fd5b9392505050565b600060208284031215610fea57600080fd5b5035919050565b634e487b7160e01b600052601160045260246000fd5b81810381811115610f7257610f72610ff1565b60006020828403121561102c57600080fd5b81518015158114610fd157600080fd5b60208082526022908201527f6e6f207265776172647320617661696c61626c6520666f72207468697320757360408201526132b960f11b606082015260800190565b60208082526022908201527f4661696c656420746f2073656e642072657761726420746f207265717565737460408201526132b960f11b606082015260800190565b634e487b7160e01b600052603260045260246000fd5b8082028115828204841417610f7257610f72610ff1565b60008261110a57634e487b7160e01b600052601260045260246000fd5b500490565b80820180821115610f7257610f72610ff1565b60006001820161113457611134610ff1565b5060010190565b6000815180845260005b8181101561116157602081850181015186830182015201611145565b506000602082860101526020601f19601f83011685010191505092915050565b602081526000610fd1602083018461113b565b6000602082840312156111a657600080fd5b5051919050565b6040815260006111c0604083018561113b565b90508260208301529392505050565b6020808252602b908201527f496e697469616c697a61626c653a20636f6e7472616374206973206e6f74206960408201526a6e697469616c697a696e6760a81b60608201526080019056fea2646970667358221220cbd05b781480804c627e53e07c40380c286f49f531343e94ebbf60c92b08487164736f6c63430008120033",
  "linkReferences": {},
  "deployedLinkReferences": {}
}