{
  "_format": "hh-sol-artifact-1",
  "contractName": "InviSwapPool",
  "sourceName": "contracts/swap/InviSwapPool.sol",
  "abi": [
    {
      "anonymous": false,
      "inputs": [
        {
          "indexed": false,
          "internalType": "uint8",
          "name": "version",
          "type": "uint8"
        }
      ],
      "name": "Initialized",
      "type": "event"
    },
    {
      "anonymous": false,
      "inputs": [
        {
          "indexed": true,
          "internalType": "address",
          "name": "previousOwner",
          "type": "address"
        },
        {
          "indexed": true,
          "internalType": "address",
          "name": "newOwner",
          "type": "address"
        }
      ],
      "name": "OwnershipTransferred",
      "type": "event"
    },
    {
      "inputs": [
        {
          "internalType": "uint256",
          "name": "_expectedAmountInInvi",
          "type": "uint256"
        },
        {
          "internalType": "uint256",
          "name": "_slippage",
          "type": "uint256"
        }
      ],
      "name": "addLiquidity",
      "outputs": [],
      "stateMutability": "payable",
      "type": "function"
    },
    {
      "inputs": [
        {
          "internalType": "uint256",
          "name": "_amountIn",
          "type": "uint256"
        }
      ],
      "name": "getAddLiquidityInvi",
      "outputs": [
        {
          "internalType": "uint256",
          "name": "",
          "type": "uint256"
        }
      ],
      "stateMutability": "view",
      "type": "function"
    },
    {
      "inputs": [
        {
          "internalType": "uint256",
          "name": "_amountIn",
          "type": "uint256"
        }
      ],
      "name": "getAddLiquidityNative",
      "outputs": [
        {
          "internalType": "uint256",
          "name": "",
          "type": "uint256"
        }
      ],
      "stateMutability": "view",
      "type": "function"
    },
    {
      "inputs": [
        {
          "internalType": "uint256",
          "name": "_liquidityTokensAmount",
          "type": "uint256"
        }
      ],
      "name": "getExpectedAmountsOutRemoveLiquidity",
      "outputs": [
        {
          "internalType": "uint256",
          "name": "inviAmount",
          "type": "uint256"
        },
        {
          "internalType": "uint256",
          "name": "NativeAmount",
          "type": "uint256"
        }
      ],
      "stateMutability": "view",
      "type": "function"
    },
    {
      "inputs": [],
      "name": "getInviPrice",
      "outputs": [
        {
          "internalType": "uint256",
          "name": "",
          "type": "uint256"
        }
      ],
      "stateMutability": "view",
      "type": "function"
    },
    {
      "inputs": [
        {
          "internalType": "uint256",
          "name": "_amountIn",
          "type": "uint256"
        }
      ],
      "name": "getInviToNativeOutAmount",
      "outputs": [
        {
          "internalType": "uint256",
          "name": "",
          "type": "uint256"
        }
      ],
      "stateMutability": "view",
      "type": "function"
    },
    {
      "inputs": [],
      "name": "getNativePrice",
      "outputs": [
        {
          "internalType": "uint256",
          "name": "",
          "type": "uint256"
        }
      ],
      "stateMutability": "view",
      "type": "function"
    },
    {
      "inputs": [
        {
          "internalType": "uint256",
          "name": "_amountIn",
          "type": "uint256"
        }
      ],
      "name": "getNativeToInviOutAmount",
      "outputs": [
        {
          "internalType": "uint256",
          "name": "",
          "type": "uint256"
        }
      ],
      "stateMutability": "view",
      "type": "function"
    },
    {
      "inputs": [
        {
          "internalType": "address",
          "name": "_inviAddr",
          "type": "address"
        },
        {
          "internalType": "address",
          "name": "_isptAddr",
          "type": "address"
        }
      ],
      "name": "initialize",
      "outputs": [],
      "stateMutability": "nonpayable",
      "type": "function"
    },
    {
      "inputs": [],
      "name": "inviFees",
      "outputs": [
        {
          "internalType": "uint256",
          "name": "",
          "type": "uint256"
        }
      ],
      "stateMutability": "view",
      "type": "function"
    },
    {
      "inputs": [],
      "name": "inviPrice",
      "outputs": [
        {
          "internalType": "uint256",
          "name": "",
          "type": "uint256"
        }
      ],
      "stateMutability": "view",
      "type": "function"
    },
    {
      "inputs": [],
      "name": "inviToken",
      "outputs": [
        {
          "internalType": "contract IERC20",
          "name": "",
          "type": "address"
        }
      ],
      "stateMutability": "view",
      "type": "function"
    },
    {
      "inputs": [],
      "name": "isptToken",
      "outputs": [
        {
          "internalType": "contract IERC20",
          "name": "",
          "type": "address"
        }
      ],
      "stateMutability": "view",
      "type": "function"
    },
    {
      "inputs": [
        {
          "internalType": "address",
          "name": "",
          "type": "address"
        }
      ],
      "name": "lpLiquidity",
      "outputs": [
        {
          "internalType": "uint256",
          "name": "",
          "type": "uint256"
        }
      ],
      "stateMutability": "view",
      "type": "function"
    },
    {
      "inputs": [
        {
          "internalType": "uint256",
          "name": "",
          "type": "uint256"
        }
      ],
      "name": "lpList",
      "outputs": [
        {
          "internalType": "address",
          "name": "",
          "type": "address"
        }
      ],
      "stateMutability": "view",
      "type": "function"
    },
    {
      "inputs": [
        {
          "internalType": "address",
          "name": "",
          "type": "address"
        }
      ],
      "name": "lpRewardInvi",
      "outputs": [
        {
          "internalType": "uint256",
          "name": "",
          "type": "uint256"
        }
      ],
      "stateMutability": "view",
      "type": "function"
    },
    {
      "inputs": [
        {
          "internalType": "address",
          "name": "",
          "type": "address"
        }
      ],
      "name": "lpRewardNative",
      "outputs": [
        {
          "internalType": "uint256",
          "name": "",
          "type": "uint256"
        }
      ],
      "stateMutability": "view",
      "type": "function"
    },
    {
      "inputs": [],
      "name": "nativeFees",
      "outputs": [
        {
          "internalType": "uint256",
          "name": "",
          "type": "uint256"
        }
      ],
      "stateMutability": "view",
      "type": "function"
    },
    {
      "inputs": [],
      "name": "nativePrice",
      "outputs": [
        {
          "internalType": "uint256",
          "name": "",
          "type": "uint256"
        }
      ],
      "stateMutability": "view",
      "type": "function"
    },
    {
      "inputs": [],
      "name": "owner",
      "outputs": [
        {
          "internalType": "address",
          "name": "",
          "type": "address"
        }
      ],
      "stateMutability": "view",
      "type": "function"
    },
    {
      "inputs": [],
      "name": "priceManager",
      "outputs": [
        {
          "internalType": "contract PriceManager",
          "name": "",
          "type": "address"
        }
      ],
      "stateMutability": "view",
      "type": "function"
    },
    {
      "inputs": [
        {
          "internalType": "uint256",
          "name": "_liquidityTokensAmount",
          "type": "uint256"
        },
        {
          "internalType": "uint256",
          "name": "_expectedInviAmount",
          "type": "uint256"
        },
        {
          "internalType": "uint256",
          "name": "_expectedNativeAmount",
          "type": "uint256"
        },
        {
          "internalType": "uint256",
          "name": "_slippage",
          "type": "uint256"
        }
      ],
      "name": "removeLiquidity",
      "outputs": [],
      "stateMutability": "nonpayable",
      "type": "function"
    },
    {
      "inputs": [],
      "name": "renounceOwnership",
      "outputs": [],
      "stateMutability": "nonpayable",
      "type": "function"
    },
    {
      "inputs": [
        {
          "internalType": "uint256",
          "name": "_fees",
          "type": "uint256"
        }
      ],
      "name": "setInviFees",
      "outputs": [],
      "stateMutability": "nonpayable",
      "type": "function"
    },
    {
      "inputs": [
        {
          "internalType": "uint256",
          "name": "_fees",
          "type": "uint256"
        }
      ],
      "name": "setNativeFees",
      "outputs": [],
      "stateMutability": "nonpayable",
      "type": "function"
    },
    {
      "inputs": [
        {
          "internalType": "address",
          "name": "_priceManager",
          "type": "address"
        }
      ],
      "name": "setPriceManager",
      "outputs": [],
      "stateMutability": "nonpayable",
      "type": "function"
    },
    {
      "inputs": [
        {
          "internalType": "uint256",
          "name": "_amountIn",
          "type": "uint256"
        },
        {
          "internalType": "uint256",
          "name": "_amountOutMin",
          "type": "uint256"
        }
      ],
      "name": "swapInviToNative",
      "outputs": [],
      "stateMutability": "nonpayable",
      "type": "function"
    },
    {
      "inputs": [
        {
          "internalType": "uint256",
          "name": "_amountOutMin",
          "type": "uint256"
        }
      ],
      "name": "swapNativeToInvi",
      "outputs": [],
      "stateMutability": "payable",
      "type": "function"
    },
    {
      "inputs": [],
      "name": "totalLiquidityInvi",
      "outputs": [
        {
          "internalType": "uint256",
          "name": "",
          "type": "uint256"
        }
      ],
      "stateMutability": "view",
      "type": "function"
    },
    {
      "inputs": [],
      "name": "totalLiquidityNative",
      "outputs": [
        {
          "internalType": "uint256",
          "name": "",
          "type": "uint256"
        }
      ],
      "stateMutability": "view",
      "type": "function"
    },
    {
      "inputs": [],
      "name": "totalRewardInvi",
      "outputs": [
        {
          "internalType": "uint256",
          "name": "",
          "type": "uint256"
        }
      ],
      "stateMutability": "view",
      "type": "function"
    },
    {
      "inputs": [],
      "name": "totalRewardNative",
      "outputs": [
        {
          "internalType": "uint256",
          "name": "",
          "type": "uint256"
        }
      ],
      "stateMutability": "view",
      "type": "function"
    },
    {
      "inputs": [
        {
          "internalType": "address",
          "name": "newOwner",
          "type": "address"
        }
      ],
      "name": "transferOwnership",
      "outputs": [],
      "stateMutability": "nonpayable",
      "type": "function"
    },
    {
      "inputs": [],
      "name": "withdrawFees",
      "outputs": [],
      "stateMutability": "nonpayable",
      "type": "function"
    }
  ],
  "bytecode": "0x608060405234801561001057600080fd5b50612694806100206000396000f3fe6080604052600436106101f95760003560e01c8063715018a61161010d578063bd7689a0116100a0578063d534395a1161006f578063d534395a1461056f578063ddb4d6a41461058f578063f2fde38b146105af578063f88bf15a146105cf578063fd9af9f5146105ef57600080fd5b8063bd7689a0146104f9578063bf417c661461050f578063c534e78c1461052f578063c7e1ffe31461054f57600080fd5b80639b5623ee116100dc5780639b5623ee146104915780639cd441da146104a65780639eb31284146104b9578063b555e8a7146104d957600080fd5b8063715018a6146104135780638d26392e146104285780638da5cb5b1461045d5780638e2aea3c1461047b57600080fd5b80631a3649f011610190578063485cc9551161015f578063485cc9551461037a5780634ad68fee1461039a578063651c8fd7146103c75780636b0acac0146103dd5780636cf9282f146103f357600080fd5b80631a3649f01461030c578063335380c514610322578063476343ee1461034f578063476b09d61461036457600080fd5b806308312379116101cc578063083123791461029457806311a46d0f146102c157806317430c9e146102d757806317acdeb7146102ec57600080fd5b8063021249ee146101fe57806302e294621461023b578063046d23af146102505780630570da6014610270575b600080fd5b34801561020a57600080fd5b5061021e610219366004612263565b61060f565b6040516001600160a01b0390911681526020015b60405180910390f35b61024e610249366004612263565b610639565b005b34801561025c57600080fd5b5061024e61026b366004612263565b6108af565b34801561027c57600080fd5b5061028660725481565b604051908152602001610232565b3480156102a057600080fd5b506102866102af366004612298565b606a6020526000908152604090205481565b3480156102cd57600080fd5b50610286606e5481565b3480156102e357600080fd5b50607354610286565b3480156102f857600080fd5b5060655461021e906001600160a01b031681565b34801561031857600080fd5b5061028660715481565b34801561032e57600080fd5b5061028661033d366004612298565b60686020526000908152604090205481565b34801561035b57600080fd5b5061024e6108bc565b34801561037057600080fd5b5061028660735481565b34801561038657600080fd5b5061024e6103953660046122b3565b610aee565b3480156103a657600080fd5b506102866103b5366004612298565b60696020526000908152604090205481565b3480156103d357600080fd5b50610286606d5481565b3480156103e957600080fd5b50610286606f5481565b3480156103ff57600080fd5b5061024e61040e366004612298565b610c4f565b34801561041f57600080fd5b5061024e610c79565b34801561043457600080fd5b50610448610443366004612263565b610c8d565b60408051928352602083019190915201610232565b34801561046957600080fd5b506033546001600160a01b031661021e565b34801561048757600080fd5b50610286606c5481565b34801561049d57600080fd5b50607254610286565b61024e6104b43660046122e6565b610ce7565b3480156104c557600080fd5b5060665461021e906001600160a01b031681565b3480156104e557600080fd5b506102866104f4366004612263565b610f62565b34801561050557600080fd5b5061028660705481565b34801561051b57600080fd5b5061024e61052a366004612263565b611076565b34801561053b57600080fd5b5061028661054a366004612263565b611083565b34801561055b57600080fd5b5060675461021e906001600160a01b031681565b34801561057b57600080fd5b5061028661058a366004612263565b6111c4565b34801561059b57600080fd5b5061024e6105aa3660046122e6565b6112c6565b3480156105bb57600080fd5b5061024e6105ca366004612298565b611578565b3480156105db57600080fd5b5061024e6105ea366004612308565b6115f1565b3480156105fb57600080fd5b5061028661060a366004612263565b611cf3565b606b818154811061061f57600080fd5b6000918252602090912001546001600160a01b0316905081565b600034116040518060600160405280602781526020016125d3602791399061067d5760405162461bcd60e51b81526004016106749190612380565b60405180910390fd5b50600061068934611cf3565b905060006103e86070548361069e91906123a9565b6106a891906123c0565b9050606d548210604051806040016040528060148152602001736e6f7420656e6f756768206c697175696469747960601b815250906106fa5760405162461bcd60e51b81526004016106749190612380565b508261070682846123e2565b1015604051806040016040528060198152602001780e6eec2e040e6d8d2e0e0c2ceca40d2e640e8dede40d0d2ced603b1b815250906107585760405162461bcd60e51b81526004016106749190612380565b5034606c600082825461076b91906123f5565b9091555061077b905081836123e2565b606d600082825461078c91906123e2565b9250508190555080606f60008282546107a591906123f5565b909155505060408051808201909152600681526503332b2b99d160d51b60208201526107d19082611e83565b6107dc600182611ec8565b6066546001600160a01b031663a9059cbb336107f884866123e2565b6040516001600160e01b031960e085901b1681526001600160a01b03909216600483015260248201526044016020604051808303816000875af1158015610843573d6000803e3d6000fd5b505050506040513d601f19601f820116820180604052508101906108679190612408565b6040518060400160405280601a815260200160008051602061263f833981519152815250906108a95760405162461bcd60e51b81526004016106749190612380565b50505050565b6108b7612036565b607155565b336000908152606a60205260409020541515806108e757503360009081526069602052604090205415155b604051806040016040528060098152602001687a65726f206665657360b81b815250906109275760405162461bcd60e51b81526004016106749190612380565b50336000908152606a60209081526040808320546069909252909120548115610a2d5781606f600082825461095c91906123e2565b9091555050336000818152606a602052604080822091909155606654905163a9059cbb60e01b81526004810192909252602482018490526001600160a01b03169063a9059cbb906044016020604051808303816000875af11580156109c5573d6000803e3d6000fd5b505050506040513d601f19601f820116820180604052508101906109e99190612408565b6040518060400160405280601a815260200160008051602061263f83398151915281525090610a2b5760405162461bcd60e51b81526004016106749190612380565b505b8015610aea5780606e6000828254610a4591906123e2565b9091555050336000818152606960205260408082208290555190919083908381818185875af1925050503d8060008114610a9b576040519150601f19603f3d011682016040523d82523d6000602084013e610aa0565b606091505b50509050806040518060400160405280600e81526020016d19985a5b1959081d1bc81cd95b9960921b815250906108a95760405162461bcd60e51b81526004016106749190612380565b5050565b600054610100900460ff1615808015610b0e5750600054600160ff909116105b80610b285750303b158015610b28575060005460ff166001145b610b8b5760405162461bcd60e51b815260206004820152602e60248201527f496e697469616c697a61626c653a20636f6e747261637420697320616c72656160448201526d191e481a5b9a5d1a585b1a5e995960921b6064820152608401610674565b6000805460ff191660011790558015610bae576000805461ff0019166101001790555b606680546001600160a01b038086166001600160a01b0319928316179092556065805492851692909116919091179055600360708190556071556001606c819055606d819055606f819055606e55610c04612090565b8015610c4a576000805461ff0019169055604051600181527f7f26b83ff96e1f2b6a682f133852f6798a09c465da95921460cefb38474024989060200160405180910390a15b505050565b610c57612036565b606780546001600160a01b0319166001600160a01b0392909216919091179055565b610c81612036565b610c8b60006120bf565b565b6000806000610cc1606d54606c54600287610ca8919061250e565b610cb291906123c0565b610cbc91906123a9565b612111565b90506000610cdb606c54606d54600288610ca8919061250e565b91959194509092505050565b6000610cf234610f62565b90506000610d036103e860646123a9565b83610d116103e860646123a9565b610d1b91906123e2565b610d2590866123a9565b610d2f91906123c0565b90506000610d406103e860646123a9565b84610d4e6103e860646123a9565b610d5891906123f5565b610d6290876123a9565b610d6c91906123c0565b9050818310158015610d7e5750808311155b60405180606001604052806021815260200161261e6021913990610db55760405162461bcd60e51b81526004016106749190612380565b5034606c6000828254610dc891906123f5565b9250508190555082606d6000828254610de191906123f5565b90915550610df1905083346123a9565b3360009081526068602052604081208054909190610e109084906123f5565b90915550506066546040516323b872dd60e01b8152336004820152306024820152604481018590526001600160a01b03909116906323b872dd906064016020604051808303816000875af1158015610e6c573d6000803e3d6000fd5b505050506040513d601f19601f82011682018060405250810190610e909190612408565b6040518060400160405280601a815260200160008051602061263f83398151915281525090610ed25760405162461bcd60e51b81526004016106749190612380565b50610ede606b33612168565b6065546001600160a01b03166379c6506833610efd610cbc87346123a9565b6040516001600160e01b031960e085901b1681526001600160a01b0390921660048301526024820152604401600060405180830381600087803b158015610f4357600080fd5b505af1158015610f57573d6000803e3d6000fd5b505050505050505050565b600080606760009054906101000a90046001600160a01b03166001600160a01b03166317430c9e6040518163ffffffff1660e01b8152600401602060405180830381865afa158015610fb8573d6000803e3d6000fd5b505050506040513d601f19601f82011682018060405250810190610fdc919061251d565b90506000606760009054906101000a90046001600160a01b03166001600160a01b0316639b5623ee6040518163ffffffff1660e01b8152600401602060405180830381865afa158015611033573d6000803e3d6000fd5b505050506040513d601f19601f82011682018060405250810190611057919061251d565b90508061106483866123a9565b61106e91906123c0565b949350505050565b61107e612036565b607055565b600080606760009054906101000a90046001600160a01b03166001600160a01b03166317430c9e6040518163ffffffff1660e01b8152600401602060405180830381865afa1580156110d9573d6000803e3d6000fd5b505050506040513d601f19601f820116820180604052508101906110fd919061251d565b90506000606760009054906101000a90046001600160a01b03166001600160a01b0316639b5623ee6040518163ffffffff1660e01b8152600401602060405180830381865afa158015611154573d6000803e3d6000fd5b505050506040513d601f19601f82011682018060405250810190611178919061251d565b905060008261118783876123a9565b61119191906123c0565b90506000606c5482836111a491906123a9565b6111ae91906123c0565b90506111ba81836123e2565b9695505050505050565b600080606760009054906101000a90046001600160a01b03166001600160a01b03166317430c9e6040518163ffffffff1660e01b8152600401602060405180830381865afa15801561121a573d6000803e3d6000fd5b505050506040513d601f19601f8201168201806040525081019061123e919061251d565b90506000606760009054906101000a90046001600160a01b03166001600160a01b0316639b5623ee6040518163ffffffff1660e01b8152600401602060405180830381865afa158015611295573d6000803e3d6000fd5b505050506040513d601f19601f820116820180604052508101906112b9919061251d565b90508161106482866123a9565b60006112d183611083565b905060006103e8607154836112e691906123a9565b6112f091906123c0565b9050606c5482106113395760405162461bcd60e51b81526020600482015260136024820152726e6f7420656e6f75676820726573657276657360681b6044820152606401610674565b8261134482846123e2565b1015604051806040016040528060198152602001780e6eec2e040e6d8d2e0e0c2ceca40d2e640e8dede40d0d2ced603b1b815250906113965760405162461bcd60e51b81526004016106749190612380565b506066546040516323b872dd60e01b8152336004820152306024820152604481018690526001600160a01b03909116906323b872dd906064016020604051808303816000875af11580156113ee573d6000803e3d6000fd5b505050506040513d601f19601f820116820180604052508101906114129190612408565b6040518060400160405280601a815260200160008051602061263f833981519152815250906114545760405162461bcd60e51b81526004016106749190612380565b5083606d600082825461146791906123f5565b90915550611477905081836123e2565b606c600082825461148891906123e2565b9250508190555080606e60008282546114a191906123f5565b909155505060408051808201909152600681526503332b2b99d160d51b60208201526114cd9082611e83565b6114d8600082611ec8565b6000336114e583856123e2565b604051600081818185875af1925050503d8060008114611521576040519150601f19603f3d011682016040523d82523d6000602084013e611526565b606091505b50509050806040518060400160405280600e81526020016d19985a5b1959081d1bc81cd95b9960921b815250906115705760405162461bcd60e51b81526004016106749190612380565b505050505050565b611580612036565b6001600160a01b0381166115e55760405162461bcd60e51b815260206004820152602660248201527f4f776e61626c653a206e6577206f776e657220697320746865207a65726f206160448201526564647265737360d01b6064820152608401610674565b6115ee816120bf565b50565b33600090815260686020908152604091829020548251808401909352600e83526d7a65726f206c697175696469747960901b918301919091526116475760405162461bcd60e51b81526004016106749190612380565b50606554604051633477cc1b60e21b8152336004820152602481018690526001600160a01b039091169063d1df306c90604401600060405180830381600087803b15801561169457600080fd5b505af11580156116a8573d6000803e3d6000fd5b5050505060006116c4606d54606c54600288610ca8919061250e565b905060006116de606c54606d54600289610ca8919061250e565b905060006116ef6103e860646123a9565b846116fd6103e860646123a9565b61170791906123e2565b61171190876123a9565b61171b91906123c0565b9050600061172c6103e860646123a9565b8561173a6103e860646123a9565b61174491906123f5565b61174e90886123a9565b61175891906123c0565b905060006117696103e860646123a9565b866117776103e860646123a9565b61178191906123e2565b61178b908a6123a9565b61179591906123c0565b905060006117a66103e860646123a9565b876117b46103e860646123a9565b6117be91906123f5565b6117c8908b6123a9565b6117d291906123c0565b90506118136040518060400160405280601981526020017f65787065637465644e6174697665416d6f756e744d696e3a200000000000000081525085611e83565b6118526040518060400160405280601981526020017f65787065637465644e6174697665416d6f756e744d61783a200000000000000081525084611e83565b6118916040518060400160405280601781526020017f6578706563746564496e7669416d6f756e744d696e3a2000000000000000000081525083611e83565b6118d06040518060400160405280601781526020017f6578706563746564496e7669416d6f756e744d61783a2000000000000000000081525082611e83565b61190660405180604001604052806014815260200173030b1ba3ab0b62730ba34bb32a0b6b7bab73a1d160651b81525086611e83565b61193a60405180604001604052806012815260200171030b1ba3ab0b634b73b34a0b6b7bab73a1d160751b81525087611e83565b83851015801561194a5750828511155b6040518060600160405280602481526020016125fa60249139906119815760405162461bcd60e51b81526004016106749190612380565b508186101580156119925750808611155b6040518060600160405280602481526020016125fa60249139906119c95760405162461bcd60e51b81526004016106749190612380565b508447101560405180604001604052806014815260200173696e73756666696369656e742062616c616e636560601b81525090611a195760405162461bcd60e51b81526004016106749190612380565b506066546040516370a0823160e01b815230600482015287916001600160a01b0316906370a0823190602401602060405180830381865afa158015611a62573d6000803e3d6000fd5b505050506040513d601f19601f82011682018060405250810190611a86919061251d565b101560405180604001604052806014815260200173696e73756666696369656e742062616c616e636560601b81525090611ad35760405162461bcd60e51b81526004016106749190612380565b5084606c6000828254611ae691906123e2565b9250508190555085606d6000828254611aff91906123e2565b909155505033600090815260686020526040812080548c9290611b239084906123e2565b92505081905550611b646040518060400160405280601681526020017503a37ba30b62634b8bab4b234ba3ca730ba34bb329d160551b815250606c54611e83565b611b9c6040518060400160405280601481526020017303a37ba30b62634b8bab4b234ba3ca4b73b349d160651b815250606d54611e83565b604051600090339087908381818185875af1925050503d8060008114611bde576040519150601f19603f3d011682016040523d82523d6000602084013e611be3565b606091505b50509050806040518060400160405280600e81526020016d19985a5b1959081d1bc81cd95b9960921b81525090611c2d5760405162461bcd60e51b81526004016106749190612380565b5060665460405163a9059cbb60e01b8152336004820152602481018990526001600160a01b039091169063a9059cbb906044016020604051808303816000875af1158015611c7f573d6000803e3d6000fd5b505050506040513d601f19601f82011682018060405250810190611ca39190612408565b6040518060400160405280601a815260200160008051602061263f83398151915281525090611ce55760405162461bcd60e51b81526004016106749190612380565b505050505050505050505050565b600080606760009054906101000a90046001600160a01b03166001600160a01b03166317430c9e6040518163ffffffff1660e01b8152600401602060405180830381865afa158015611d49573d6000803e3d6000fd5b505050506040513d601f19601f82011682018060405250810190611d6d919061251d565b90506000606760009054906101000a90046001600160a01b03166001600160a01b0316639b5623ee6040518163ffffffff1660e01b8152600401602060405180830381865afa158015611dc4573d6000803e3d6000fd5b505050506040513d601f19601f82011682018060405250810190611de8919061251d565b9050600081611df784876123a9565b611e0191906123c0565b90506000606d548283611e1491906123a9565b611e1e91906123c0565b9050611e4d6040518060400160405280600b81526020016a030b6b7bab73a27baba1d160ad1b81525083611e83565b611e796040518060400160405280600a815260200169039b634b83830b3b29d160b51b81525082611e83565b6111ba81836123e2565b610aea8282604051602401611e99929190612536565b60408051601f198184030181529190526020810180516001600160e01b0316632d839cb360e21b1790526121a7565b60005b606b54811015610c4a576000606b8281548110611eea57611eea612558565b60009182526020808320909101546001600160a01b031680835260689091526040822054606d54606c54929450909291611f2491906123a9565b905085600003611faa57600081611f3b84886123a9565b611f4591906123c0565b6001600160a01b038516600090815260696020526040812080549293508392909190611f729084906123f5565b909155505060408051808201909152600c81526b13985d1a5d9954995dd85c9960a21b6020820152611fa49082611e83565b50612020565b600081611fb784886123a9565b611fc191906123c0565b6001600160a01b0385166000908152606a6020526040812080549293508392909190611fee9084906123f5565b909155505060408051808201909152600a815269125b9d9a54995dd85c9960b21b602082015261201e9082611e83565b505b505050808061202e9061256e565b915050611ecb565b6033546001600160a01b03163314610c8b5760405162461bcd60e51b815260206004820181905260248201527f4f776e61626c653a2063616c6c6572206973206e6f7420746865206f776e65726044820152606401610674565b600054610100900460ff166120b75760405162461bcd60e51b815260040161067490612587565b610c8b6121c8565b603380546001600160a01b038381166001600160a01b0319831681179093556040519116919082907f8be0079c531659141344cd1fd0a4f28419497f9722a3daafe3b4186f6b6457e090600090a35050565b60008060026121218460016123f5565b61212b91906123c0565b9050825b8082101561216157508060028161214681876123c0565b61215091906123f5565b61215a91906123c0565b915061212f565b9392505050565b61217282826121f8565b610aea5781546001810183556000838152602090200180546001600160a01b0383166001600160a01b03199091161790555050565b80516a636f6e736f6c652e6c6f67602083016000808483855afa5050505050565b600054610100900460ff166121ef5760405162461bcd60e51b815260040161067490612587565b610c8b336120bf565b6000805b835481101561225757826001600160a01b031684828154811061222157612221612558565b6000918252602090912001546001600160a01b03160361224557600191505061225d565b8061224f8161256e565b9150506121fc565b50600090505b92915050565b60006020828403121561227557600080fd5b5035919050565b80356001600160a01b038116811461229357600080fd5b919050565b6000602082840312156122aa57600080fd5b6121618261227c565b600080604083850312156122c657600080fd5b6122cf8361227c565b91506122dd6020840161227c565b90509250929050565b600080604083850312156122f957600080fd5b50508035926020909101359150565b6000806000806080858703121561231e57600080fd5b5050823594602084013594506040840135936060013592509050565b6000815180845260005b8181101561236057602081850181015186830182015201612344565b506000602082860101526020601f19601f83011685010191505092915050565b602081526000612161602083018461233a565b634e487b7160e01b600052601160045260246000fd5b808202811582820484141761225d5761225d612393565b6000826123dd57634e487b7160e01b600052601260045260246000fd5b500490565b8181038181111561225d5761225d612393565b8082018082111561225d5761225d612393565b60006020828403121561241a57600080fd5b8151801515811461216157600080fd5b600181815b8085111561246557816000190482111561244b5761244b612393565b8085161561245857918102915b93841c939080029061242f565b509250929050565b60008261247c5750600161225d565b816124895750600061225d565b816001811461249f57600281146124a9576124c5565b600191505061225d565b60ff8411156124ba576124ba612393565b50506001821b61225d565b5060208310610133831016604e8410600b84101617156124e8575081810a61225d565b6124f2838361242a565b806000190482111561250657612506612393565b029392505050565b600061216160ff84168361246d565b60006020828403121561252f57600080fd5b5051919050565b604081526000612549604083018561233a565b90508260208301529392505050565b634e487b7160e01b600052603260045260246000fd5b60006001820161258057612580612393565b5060010190565b6020808252602b908201527f496e697469616c697a61626c653a20636f6e7472616374206973206e6f74206960408201526a6e697469616c697a696e6760a81b60608201526080019056fe7377617020616d6f756e742073686f756c642062652067726561746572207468616e207a65726f72656d6f7665206c6971756469747920736c69707061676520697320746f6f2068696768616464206c6971756469747920736c69707061676520697320746f6f20686967686661696c656420746f2073656e6420657263323020746f6b656e000000000000a26469706673582212201fbd187c8ecaaafcd9680c4f0dfd35c40c4e461528bd13f4104848d977462e6964736f6c63430008120033",
  "linkReferences": {},
  "deployedLinkReferences": {}
}