{
  "_format": "hh-sol-artifact-1",
  "contractName": "InviToken",
  "sourceName": "contracts/tokens/InviToken.sol",
  "abi": [
    {
      "anonymous": false,
      "inputs": [
        {
          "indexed": true,
          "internalType": "address",
          "name": "owner",
          "type": "address"
        },
        {
          "indexed": true,
          "internalType": "address",
          "name": "spender",
          "type": "address"
        },
        {
          "indexed": false,
          "internalType": "uint256",
          "name": "value",
          "type": "uint256"
        }
      ],
      "name": "Approval",
      "type": "event"
    },
    {
      "anonymous": false,
      "inputs": [
        {
          "indexed": false,
          "internalType": "uint8",
          "name": "version",
          "type": "uint8"
        }
      ],
      "name": "Initialized",
      "type": "event"
    },
    {
      "anonymous": false,
      "inputs": [
        {
          "indexed": true,
          "internalType": "address",
          "name": "previousOwner",
          "type": "address"
        },
        {
          "indexed": true,
          "internalType": "address",
          "name": "newOwner",
          "type": "address"
        }
      ],
      "name": "OwnershipTransferred",
      "type": "event"
    },
    {
      "anonymous": false,
      "inputs": [
        {
          "indexed": true,
          "internalType": "address",
          "name": "from",
          "type": "address"
        },
        {
          "indexed": true,
          "internalType": "address",
          "name": "to",
          "type": "address"
        },
        {
          "indexed": false,
          "internalType": "uint256",
          "name": "value",
          "type": "uint256"
        }
      ],
      "name": "Transfer",
      "type": "event"
    },
    {
      "inputs": [
        {
          "internalType": "address",
          "name": "owner",
          "type": "address"
        },
        {
          "internalType": "address",
          "name": "spender",
          "type": "address"
        }
      ],
      "name": "allowance",
      "outputs": [
        {
          "internalType": "uint256",
          "name": "",
          "type": "uint256"
        }
      ],
      "stateMutability": "view",
      "type": "function"
    },
    {
      "inputs": [
        {
          "internalType": "address",
          "name": "spender",
          "type": "address"
        },
        {
          "internalType": "uint256",
          "name": "amount",
          "type": "uint256"
        }
      ],
      "name": "approve",
      "outputs": [
        {
          "internalType": "bool",
          "name": "",
          "type": "bool"
        }
      ],
      "stateMutability": "nonpayable",
      "type": "function"
    },
    {
      "inputs": [
        {
          "internalType": "address",
          "name": "account",
          "type": "address"
        }
      ],
      "name": "balanceOf",
      "outputs": [
        {
          "internalType": "uint256",
          "name": "",
          "type": "uint256"
        }
      ],
      "stateMutability": "view",
      "type": "function"
    },
    {
      "inputs": [
        {
          "internalType": "address",
          "name": "_account",
          "type": "address"
        },
        {
          "internalType": "uint256",
          "name": "_amount",
          "type": "uint256"
        }
      ],
      "name": "burnLentToken",
      "outputs": [],
      "stateMutability": "nonpayable",
      "type": "function"
    },
    {
      "inputs": [
        {
          "internalType": "address",
          "name": "_account",
          "type": "address"
        },
        {
          "internalType": "uint256",
          "name": "_amount",
          "type": "uint256"
        }
      ],
      "name": "burnToken",
      "outputs": [],
      "stateMutability": "nonpayable",
      "type": "function"
    },
    {
      "inputs": [],
      "name": "decimals",
      "outputs": [
        {
          "internalType": "uint8",
          "name": "",
          "type": "uint8"
        }
      ],
      "stateMutability": "view",
      "type": "function"
    },
    {
      "inputs": [
        {
          "internalType": "address",
          "name": "spender",
          "type": "address"
        },
        {
          "internalType": "uint256",
          "name": "subtractedValue",
          "type": "uint256"
        }
      ],
      "name": "decreaseAllowance",
      "outputs": [
        {
          "internalType": "bool",
          "name": "",
          "type": "bool"
        }
      ],
      "stateMutability": "nonpayable",
      "type": "function"
    },
    {
      "inputs": [
        {
          "internalType": "address",
          "name": "spender",
          "type": "address"
        },
        {
          "internalType": "uint256",
          "name": "addedValue",
          "type": "uint256"
        }
      ],
      "name": "increaseAllowance",
      "outputs": [
        {
          "internalType": "bool",
          "name": "",
          "type": "bool"
        }
      ],
      "stateMutability": "nonpayable",
      "type": "function"
    },
    {
      "inputs": [],
      "name": "initialize",
      "outputs": [],
      "stateMutability": "nonpayable",
      "type": "function"
    },
    {
      "inputs": [],
      "name": "inviTokenStakeAddress",
      "outputs": [
        {
          "internalType": "address",
          "name": "",
          "type": "address"
        }
      ],
      "stateMutability": "view",
      "type": "function"
    },
    {
      "inputs": [],
      "name": "lastMinted",
      "outputs": [
        {
          "internalType": "uint256",
          "name": "",
          "type": "uint256"
        }
      ],
      "stateMutability": "view",
      "type": "function"
    },
    {
      "inputs": [],
      "name": "lendingPoolAddress",
      "outputs": [
        {
          "internalType": "address",
          "name": "",
          "type": "address"
        }
      ],
      "stateMutability": "view",
      "type": "function"
    },
    {
      "inputs": [],
      "name": "lpPoolAddress",
      "outputs": [
        {
          "internalType": "address",
          "name": "",
          "type": "address"
        }
      ],
      "stateMutability": "view",
      "type": "function"
    },
    {
      "inputs": [],
      "name": "mintInterval",
      "outputs": [
        {
          "internalType": "uint256",
          "name": "",
          "type": "uint256"
        }
      ],
      "stateMutability": "view",
      "type": "function"
    },
    {
      "inputs": [
        {
          "internalType": "address",
          "name": "_account",
          "type": "address"
        },
        {
          "internalType": "uint256",
          "name": "_amount",
          "type": "uint256"
        }
      ],
      "name": "mintToken",
      "outputs": [],
      "stateMutability": "nonpayable",
      "type": "function"
    },
    {
      "inputs": [],
      "name": "name",
      "outputs": [
        {
          "internalType": "string",
          "name": "",
          "type": "string"
        }
      ],
      "stateMutability": "view",
      "type": "function"
    },
    {
      "inputs": [],
      "name": "owner",
      "outputs": [
        {
          "internalType": "address",
          "name": "",
          "type": "address"
        }
      ],
      "stateMutability": "view",
      "type": "function"
    },
    {
      "inputs": [],
      "name": "regularMintAmount",
      "outputs": [
        {
          "internalType": "uint256",
          "name": "",
          "type": "uint256"
        }
      ],
      "stateMutability": "view",
      "type": "function"
    },
    {
      "inputs": [],
      "name": "regularMinting",
      "outputs": [],
      "stateMutability": "nonpayable",
      "type": "function"
    },
    {
      "inputs": [],
      "name": "renounceOwnership",
      "outputs": [],
      "stateMutability": "nonpayable",
      "type": "function"
    },
    {
      "inputs": [
        {
          "internalType": "address",
          "name": "_receiver",
          "type": "address"
        },
        {
          "internalType": "uint256",
          "name": "_amount",
          "type": "uint256"
        }
      ],
      "name": "sendInvi",
      "outputs": [],
      "stateMutability": "nonpayable",
      "type": "function"
    },
    {
      "inputs": [
        {
          "internalType": "address",
          "name": "_inviTokenStakeAddr",
          "type": "address"
        }
      ],
      "name": "setInviTokenStakeAddress",
      "outputs": [],
      "stateMutability": "nonpayable",
      "type": "function"
    },
    {
      "inputs": [
        {
          "internalType": "address",
          "name": "_lendingPoolAddr",
          "type": "address"
        }
      ],
      "name": "setLendingPoolAddress",
      "outputs": [],
      "stateMutability": "nonpayable",
      "type": "function"
    },
    {
      "inputs": [
        {
          "internalType": "address",
          "name": "_lpPoolAddr",
          "type": "address"
        }
      ],
      "name": "setLpPoolAddress",
      "outputs": [],
      "stateMutability": "nonpayable",
      "type": "function"
    },
    {
      "inputs": [],
      "name": "symbol",
      "outputs": [
        {
          "internalType": "string",
          "name": "",
          "type": "string"
        }
      ],
      "stateMutability": "view",
      "type": "function"
    },
    {
      "inputs": [],
      "name": "totalSupply",
      "outputs": [
        {
          "internalType": "uint256",
          "name": "",
          "type": "uint256"
        }
      ],
      "stateMutability": "view",
      "type": "function"
    },
    {
      "inputs": [
        {
          "internalType": "address",
          "name": "to",
          "type": "address"
        },
        {
          "internalType": "uint256",
          "name": "amount",
          "type": "uint256"
        }
      ],
      "name": "transfer",
      "outputs": [
        {
          "internalType": "bool",
          "name": "",
          "type": "bool"
        }
      ],
      "stateMutability": "nonpayable",
      "type": "function"
    },
    {
      "inputs": [
        {
          "internalType": "address",
          "name": "from",
          "type": "address"
        },
        {
          "internalType": "address",
          "name": "to",
          "type": "address"
        },
        {
          "internalType": "uint256",
          "name": "amount",
          "type": "uint256"
        }
      ],
      "name": "transferFrom",
      "outputs": [
        {
          "internalType": "bool",
          "name": "",
          "type": "bool"
        }
      ],
      "stateMutability": "nonpayable",
      "type": "function"
    },
    {
      "inputs": [
        {
          "internalType": "address",
          "name": "newOwner",
          "type": "address"
        }
      ],
      "name": "transferOwnership",
      "outputs": [],
      "stateMutability": "nonpayable",
      "type": "function"
    }
  ],
  "bytecode": "0x608060405234801561001057600080fd5b50611403806100206000396000f3fe608060405234801561001057600080fd5b50600436106101cf5760003560e01c80638da5cb5b11610104578063d3ae26b3116100a2578063ed3f827a11610071578063ed3f827a146103a9578063f1baef2f146103bc578063f2fde38b146103cf578063f9b1001f146103e257600080fd5b8063d3ae26b314610367578063dd62ed3e1461037a578063e16120b11461038d578063e2bfe9161461039657600080fd5b8063a9059cbb116100de578063a9059cbb14610325578063b2a6d10214610338578063bbc19ab01461034b578063d1df306c1461035457600080fd5b80638da5cb5b146102e557806395d89b411461030a578063a457c2d71461031257600080fd5b806370a082311161017157806378a93d331161014b57806378a93d33146102af57806379c65068146102b75780638129fc1c146102ca57806386fb5d8b146102d257600080fd5b806370a0823114610269578063715018a6146102925780637250d7991461029c57600080fd5b806318160ddd116101ad57806318160ddd1461022c57806323b872dd14610234578063313ce56714610247578063395093511461025657600080fd5b806306fdde03146101d4578063095ea7b3146101f25780630e726e6b14610215575b600080fd5b6101dc6103f5565b6040516101e9919061108a565b60405180910390f35b6102056102003660046110f4565b610487565b60405190151581526020016101e9565b61021e609b5481565b6040519081526020016101e9565b60355461021e565b61020561024236600461111e565b6104a1565b604051601281526020016101e9565b6102056102643660046110f4565b6104c5565b61021e61027736600461115a565b6001600160a01b031660009081526033602052604090205490565b61029a6104e7565b005b61029a6102aa36600461115a565b6104fb565b61029a610525565b61029a6102c53660046110f4565b610634565b61029a61064a565b61029a6102e03660046110f4565b6107c0565b6065546001600160a01b03165b6040516001600160a01b0390911681526020016101e9565b6101dc610824565b6102056103203660046110f4565b610833565b6102056103333660046110f4565b6108ae565b61029a61034636600461115a565b6108bc565b61021e609c5481565b61029a6103623660046110f4565b6108e6565b6097546102f2906001600160a01b031681565b61021e61038836600461117c565b6108ee565b61021e609a5481565b61029a6103a43660046110f4565b610919565b61029a6103b736600461115a565b610930565b6099546102f2906001600160a01b031681565b61029a6103dd36600461115a565b61095a565b6098546102f2906001600160a01b031681565b606060368054610404906111af565b80601f0160208091040260200160405190810160405280929190818152602001828054610430906111af565b801561047d5780601f106104525761010080835404028352916020019161047d565b820191906000526020600020905b81548152906001019060200180831161046057829003601f168201915b5050505050905090565b6000336104958185856109d0565b60019150505b92915050565b6000336104af858285610af4565b6104ba858585610b6e565b506001949350505050565b6000336104958185856104d883836108ee565b6104e291906111ff565b6109d0565b6104ef610d19565b6104f96000610d73565b565b610503610d19565b609980546001600160a01b0319166001600160a01b0392909216919091179055565b61052d610d19565b609b54609c5461053d91906111ff565b42116040518060400160405280601c81526020017f6d696e74696e6720696e74657276616c206e6f742072656163686564000000008152509061059c5760405162461bcd60e51b8152600401610593919061108a565b60405180910390fd5b506000670de0b6b3a7640000609a546105b59190611212565b90506105c13082610dc5565b42609c556097546105f39030906001600160a01b031660646105e4856014611212565b6105ee9190611229565b610b6e565b6098546106129030906001600160a01b031660646105e485600f611212565b6099546106319030906001600160a01b031660646105e485600f611212565b50565b61063c610d19565b6106468282610dc5565b5050565b600054610100900460ff161580801561066a5750600054600160ff909116105b806106845750303b158015610684575060005460ff166001145b6106e75760405162461bcd60e51b815260206004820152602e60248201527f496e697469616c697a61626c653a20636f6e747261637420697320616c72656160448201526d191e481a5b9a5d1a585b1a5e995960921b6064820152608401610593565b6000805460ff19166001179055801561070a576000805461ff0019166101001790555b6107526040518060400160405280600a81526020016924b73b34902a37b5b2b760b11b81525060405180604001604052806004815260200163494e564960e01b815250610e86565b61075a610eb7565b6305f5e100609a556201a5e0609b819055610775904261124b565b609c558015610631576000805461ff0019169055604051600181527f7f26b83ff96e1f2b6a682f133852f6798a09c465da95921460cefb38474024989060200160405180910390a150565b6097546001600160a01b0316331461081a5760405162461bcd60e51b815260206004820181905260248201527f4f776e61626c653a2063616c6c6572206973206e6f7420746865206f776e65726044820152606401610593565b6106468282610ee6565b606060378054610404906111af565b6000338161084182866108ee565b9050838110156108a15760405162461bcd60e51b815260206004820152602560248201527f45524332303a2064656372656173656420616c6c6f77616e63652062656c6f77604482015264207a65726f60d81b6064820152608401610593565b6104ba82868684036109d0565b600033610495818585610b6e565b6108c4610d19565b609880546001600160a01b0319166001600160a01b0392909216919091179055565b61081a610d19565b6001600160a01b03918216600090815260346020908152604080832093909416825291909152205490565b610921610d19565b61092b82826108ae565b505050565b610938610d19565b609780546001600160a01b0319166001600160a01b0392909216919091179055565b610962610d19565b6001600160a01b0381166109c75760405162461bcd60e51b815260206004820152602660248201527f4f776e61626c653a206e6577206f776e657220697320746865207a65726f206160448201526564647265737360d01b6064820152608401610593565b61063181610d73565b6001600160a01b038316610a325760405162461bcd60e51b8152602060048201526024808201527f45524332303a20617070726f76652066726f6d20746865207a65726f206164646044820152637265737360e01b6064820152608401610593565b6001600160a01b038216610a935760405162461bcd60e51b815260206004820152602260248201527f45524332303a20617070726f766520746f20746865207a65726f206164647265604482015261737360f01b6064820152608401610593565b6001600160a01b0383811660008181526034602090815260408083209487168084529482529182902085905590518481527f8c5be1e5ebec7d5bd14f71427d1e84f3dd0314c0f7b2291e5b200ac8c7c3b925910160405180910390a3505050565b6000610b0084846108ee565b90506000198114610b685781811015610b5b5760405162461bcd60e51b815260206004820152601d60248201527f45524332303a20696e73756666696369656e7420616c6c6f77616e63650000006044820152606401610593565b610b6884848484036109d0565b50505050565b6001600160a01b038316610bd25760405162461bcd60e51b815260206004820152602560248201527f45524332303a207472616e736665722066726f6d20746865207a65726f206164604482015264647265737360d81b6064820152608401610593565b6001600160a01b038216610c345760405162461bcd60e51b815260206004820152602360248201527f45524332303a207472616e7366657220746f20746865207a65726f206164647260448201526265737360e81b6064820152608401610593565b6001600160a01b03831660009081526033602052604090205481811015610cac5760405162461bcd60e51b815260206004820152602660248201527f45524332303a207472616e7366657220616d6f756e7420657863656564732062604482015265616c616e636560d01b6064820152608401610593565b6001600160a01b0380851660008181526033602052604080822086860390559286168082529083902080548601905591517fddf252ad1be2c89b69c2b068fc378daa952ba7f163c4a11628f55a4df523b3ef90610d0c9086815260200190565b60405180910390a3610b68565b6065546001600160a01b031633146104f95760405162461bcd60e51b815260206004820181905260248201527f4f776e61626c653a2063616c6c6572206973206e6f7420746865206f776e65726044820152606401610593565b606580546001600160a01b038381166001600160a01b0319831681179093556040519116919082907f8be0079c531659141344cd1fd0a4f28419497f9722a3daafe3b4186f6b6457e090600090a35050565b6001600160a01b038216610e1b5760405162461bcd60e51b815260206004820152601f60248201527f45524332303a206d696e7420746f20746865207a65726f2061646472657373006044820152606401610593565b8060356000828254610e2d91906111ff565b90915550506001600160a01b0382166000818152603360209081526040808320805486019055518481527fddf252ad1be2c89b69c2b068fc378daa952ba7f163c4a11628f55a4df523b3ef910160405180910390a35050565b600054610100900460ff16610ead5760405162461bcd60e51b81526004016105939061125e565b610646828261101a565b600054610100900460ff16610ede5760405162461bcd60e51b81526004016105939061125e565b6104f961105a565b6001600160a01b038216610f465760405162461bcd60e51b815260206004820152602160248201527f45524332303a206275726e2066726f6d20746865207a65726f206164647265736044820152607360f81b6064820152608401610593565b6001600160a01b03821660009081526033602052604090205481811015610fba5760405162461bcd60e51b815260206004820152602260248201527f45524332303a206275726e20616d6f756e7420657863656564732062616c616e604482015261636560f01b6064820152608401610593565b6001600160a01b03831660008181526033602090815260408083208686039055603580548790039055518581529192917fddf252ad1be2c89b69c2b068fc378daa952ba7f163c4a11628f55a4df523b3ef910160405180910390a3505050565b600054610100900460ff166110415760405162461bcd60e51b81526004016105939061125e565b603661104d838261130d565b50603761092b828261130d565b600054610100900460ff166110815760405162461bcd60e51b81526004016105939061125e565b6104f933610d73565b600060208083528351808285015260005b818110156110b75785810183015185820160400152820161109b565b506000604082860101526040601f19601f8301168501019250505092915050565b80356001600160a01b03811681146110ef57600080fd5b919050565b6000806040838503121561110757600080fd5b611110836110d8565b946020939093013593505050565b60008060006060848603121561113357600080fd5b61113c846110d8565b925061114a602085016110d8565b9150604084013590509250925092565b60006020828403121561116c57600080fd5b611175826110d8565b9392505050565b6000806040838503121561118f57600080fd5b611198836110d8565b91506111a6602084016110d8565b90509250929050565b600181811c908216806111c357607f821691505b6020821081036111e357634e487b7160e01b600052602260045260246000fd5b50919050565b634e487b7160e01b600052601160045260246000fd5b8082018082111561049b5761049b6111e9565b808202811582820484141761049b5761049b6111e9565b60008261124657634e487b7160e01b600052601260045260246000fd5b500490565b8181038181111561049b5761049b6111e9565b6020808252602b908201527f496e697469616c697a61626c653a20636f6e7472616374206973206e6f74206960408201526a6e697469616c697a696e6760a81b606082015260800190565b634e487b7160e01b600052604160045260246000fd5b601f82111561092b57600081815260208120601f850160051c810160208610156112e65750805b601f850160051c820191505b81811015611305578281556001016112f2565b505050505050565b815167ffffffffffffffff811115611327576113276112a9565b61133b8161133584546111af565b846112bf565b602080601f83116001811461137057600084156113585750858301515b600019600386901b1c1916600185901b178555611305565b600085815260208120601f198616915b8281101561139f57888601518255948401946001909101908401611380565b50858210156113bd5787850151600019600388901b60f8161c191681555b5050505050600190811b0190555056fea2646970667358221220ef27dd072e3b8e9f9b433ec6994d244747653f4a66b173e3324d06c731dbe3b564736f6c63430008120033",
  "linkReferences": {},
  "deployedLinkReferences": {}
}