{
  "_format": "hh-sol-artifact-1",
  "contractName": "ISPTToken",
  "sourceName": "contracts/tokens/ISPTToken.sol",
  "abi": [
    {
      "anonymous": false,
      "inputs": [
        {
          "indexed": true,
          "internalType": "address",
          "name": "owner",
          "type": "address"
        },
        {
          "indexed": true,
          "internalType": "address",
          "name": "spender",
          "type": "address"
        },
        {
          "indexed": false,
          "internalType": "uint256",
          "name": "value",
          "type": "uint256"
        }
      ],
      "name": "Approval",
      "type": "event"
    },
    {
      "anonymous": false,
      "inputs": [
        {
          "indexed": false,
          "internalType": "uint8",
          "name": "version",
          "type": "uint8"
        }
      ],
      "name": "Initialized",
      "type": "event"
    },
    {
      "anonymous": false,
      "inputs": [
        {
          "indexed": true,
          "internalType": "address",
          "name": "previousOwner",
          "type": "address"
        },
        {
          "indexed": true,
          "internalType": "address",
          "name": "newOwner",
          "type": "address"
        }
      ],
      "name": "OwnershipTransferred",
      "type": "event"
    },
    {
      "anonymous": false,
      "inputs": [
        {
          "indexed": true,
          "internalType": "address",
          "name": "from",
          "type": "address"
        },
        {
          "indexed": true,
          "internalType": "address",
          "name": "to",
          "type": "address"
        },
        {
          "indexed": false,
          "internalType": "uint256",
          "name": "value",
          "type": "uint256"
        }
      ],
      "name": "Transfer",
      "type": "event"
    },
    {
      "inputs": [
        {
          "internalType": "address",
          "name": "owner",
          "type": "address"
        },
        {
          "internalType": "address",
          "name": "spender",
          "type": "address"
        }
      ],
      "name": "allowance",
      "outputs": [
        {
          "internalType": "uint256",
          "name": "",
          "type": "uint256"
        }
      ],
      "stateMutability": "view",
      "type": "function"
    },
    {
      "inputs": [
        {
          "internalType": "address",
          "name": "spender",
          "type": "address"
        },
        {
          "internalType": "uint256",
          "name": "amount",
          "type": "uint256"
        }
      ],
      "name": "approve",
      "outputs": [
        {
          "internalType": "bool",
          "name": "",
          "type": "bool"
        }
      ],
      "stateMutability": "nonpayable",
      "type": "function"
    },
    {
      "inputs": [
        {
          "internalType": "address",
          "name": "account",
          "type": "address"
        }
      ],
      "name": "balanceOf",
      "outputs": [
        {
          "internalType": "uint256",
          "name": "",
          "type": "uint256"
        }
      ],
      "stateMutability": "view",
      "type": "function"
    },
    {
      "inputs": [
        {
          "internalType": "address",
          "name": "_account",
          "type": "address"
        },
        {
          "internalType": "uint256",
          "name": "_amount",
          "type": "uint256"
        }
      ],
      "name": "burnToken",
      "outputs": [],
      "stateMutability": "nonpayable",
      "type": "function"
    },
    {
      "inputs": [],
      "name": "decimals",
      "outputs": [
        {
          "internalType": "uint8",
          "name": "",
          "type": "uint8"
        }
      ],
      "stateMutability": "view",
      "type": "function"
    },
    {
      "inputs": [
        {
          "internalType": "address",
          "name": "spender",
          "type": "address"
        },
        {
          "internalType": "uint256",
          "name": "subtractedValue",
          "type": "uint256"
        }
      ],
      "name": "decreaseAllowance",
      "outputs": [
        {
          "internalType": "bool",
          "name": "",
          "type": "bool"
        }
      ],
      "stateMutability": "nonpayable",
      "type": "function"
    },
    {
      "inputs": [
        {
          "internalType": "address",
          "name": "spender",
          "type": "address"
        },
        {
          "internalType": "uint256",
          "name": "addedValue",
          "type": "uint256"
        }
      ],
      "name": "increaseAllowance",
      "outputs": [
        {
          "internalType": "bool",
          "name": "",
          "type": "bool"
        }
      ],
      "stateMutability": "nonpayable",
      "type": "function"
    },
    {
      "inputs": [],
      "name": "initialize",
      "outputs": [],
      "stateMutability": "nonpayable",
      "type": "function"
    },
    {
      "inputs": [],
      "name": "inviSwapPool",
      "outputs": [
        {
          "internalType": "address",
          "name": "",
          "type": "address"
        }
      ],
      "stateMutability": "view",
      "type": "function"
    },
    {
      "inputs": [
        {
          "internalType": "address",
          "name": "_account",
          "type": "address"
        },
        {
          "internalType": "uint256",
          "name": "_amount",
          "type": "uint256"
        }
      ],
      "name": "mintToken",
      "outputs": [],
      "stateMutability": "nonpayable",
      "type": "function"
    },
    {
      "inputs": [],
      "name": "name",
      "outputs": [
        {
          "internalType": "string",
          "name": "",
          "type": "string"
        }
      ],
      "stateMutability": "view",
      "type": "function"
    },
    {
      "inputs": [],
      "name": "owner",
      "outputs": [
        {
          "internalType": "address",
          "name": "",
          "type": "address"
        }
      ],
      "stateMutability": "view",
      "type": "function"
    },
    {
      "inputs": [],
      "name": "renounceOwnership",
      "outputs": [],
      "stateMutability": "nonpayable",
      "type": "function"
    },
    {
      "inputs": [
        {
          "internalType": "address",
          "name": "_inviKlaySwapPool",
          "type": "address"
        }
      ],
      "name": "setInviSwapPool",
      "outputs": [],
      "stateMutability": "nonpayable",
      "type": "function"
    },
    {
      "inputs": [],
      "name": "symbol",
      "outputs": [
        {
          "internalType": "string",
          "name": "",
          "type": "string"
        }
      ],
      "stateMutability": "view",
      "type": "function"
    },
    {
      "inputs": [],
      "name": "totalSupply",
      "outputs": [
        {
          "internalType": "uint256",
          "name": "",
          "type": "uint256"
        }
      ],
      "stateMutability": "view",
      "type": "function"
    },
    {
      "inputs": [
        {
          "internalType": "address",
          "name": "to",
          "type": "address"
        },
        {
          "internalType": "uint256",
          "name": "amount",
          "type": "uint256"
        }
      ],
      "name": "transfer",
      "outputs": [
        {
          "internalType": "bool",
          "name": "",
          "type": "bool"
        }
      ],
      "stateMutability": "nonpayable",
      "type": "function"
    },
    {
      "inputs": [
        {
          "internalType": "address",
          "name": "from",
          "type": "address"
        },
        {
          "internalType": "address",
          "name": "to",
          "type": "address"
        },
        {
          "internalType": "uint256",
          "name": "amount",
          "type": "uint256"
        }
      ],
      "name": "transferFrom",
      "outputs": [
        {
          "internalType": "bool",
          "name": "",
          "type": "bool"
        }
      ],
      "stateMutability": "nonpayable",
      "type": "function"
    },
    {
      "inputs": [
        {
          "internalType": "address",
          "name": "newOwner",
          "type": "address"
        }
      ],
      "name": "transferOwnership",
      "outputs": [],
      "stateMutability": "nonpayable",
      "type": "function"
    }
  ],
  "bytecode": "0x608060405234801561001057600080fd5b50611114806100206000396000f3fe608060405234801561001057600080fd5b50600436106101215760003560e01c806379c65068116100ad578063a457c2d711610071578063a457c2d71461024f578063a9059cbb14610262578063d1df306c14610275578063dd62ed3e14610288578063f2fde38b1461029b57600080fd5b806379c65068146101f45780638129fc1c146102075780638da5cb5b1461020f5780639528f08d1461023457806395d89b411461024757600080fd5b8063313ce567116100f4578063313ce5671461018c578063395093511461019b5780636da8bf2b146101ae57806370a08231146101c3578063715018a6146101ec57600080fd5b806306fdde0314610126578063095ea7b31461014457806318160ddd1461016757806323b872dd14610179575b600080fd5b61012e6102ae565b60405161013b9190610da7565b60405180910390f35b610157610152366004610e11565b610340565b604051901515815260200161013b565b6035545b60405190815260200161013b565b610157610187366004610e3b565b61035a565b6040516012815260200161013b565b6101576101a9366004610e11565b61037e565b6101c16101bc366004610e77565b6103a0565b005b61016b6101d1366004610e77565b6001600160a01b031660009081526033602052604090205490565b6101c16103ca565b6101c1610202366004610e11565b6103de565b6101c161041f565b6065546001600160a01b03165b6040516001600160a01b03909116815260200161013b565b60975461021c906001600160a01b031681565b61012e610582565b61015761025d366004610e11565b610591565b610157610270366004610e11565b61060c565b6101c1610283366004610e11565b61061a565b61016b610296366004610e99565b61064e565b6101c16102a9366004610e77565b610679565b6060603680546102bd90610ecc565b80601f01602080910402602001604051908101604052809291908181526020018280546102e990610ecc565b80156103365780601f1061030b57610100808354040283529160200191610336565b820191906000526020600020905b81548152906001019060200180831161031957829003601f168201915b5050505050905090565b60003361034e8185856106ef565b60019150505b92915050565b600033610368858285610814565b61037385858561088e565b506001949350505050565b60003361034e818585610391838361064e565b61039b9190610f06565b6106ef565b6103a8610a39565b609780546001600160a01b0319166001600160a01b0392909216919091179055565b6103d2610a39565b6103dc6000610a93565b565b6097546001600160a01b031633146104115760405162461bcd60e51b815260040161040890610f27565b60405180910390fd5b61041b8282610ae5565b5050565b600054610100900460ff161580801561043f5750600054600160ff909116105b806104595750303b158015610459575060005460ff166001145b6104bc5760405162461bcd60e51b815260206004820152602e60248201527f496e697469616c697a61626c653a20636f6e747261637420697320616c72656160448201526d191e481a5b9a5d1a585b1a5e995960921b6064820152608401610408565b6000805460ff1916600117905580156104df576000805461ff0019166101001790555b6105316040518060400160405280601481526020017324b73b349029bbb0b8102837b7b6102a37b5b2b760611b815250604051806040016040528060048152602001631254d41560e21b815250610ba6565b610539610bd7565b801561057f576000805461ff0019169055604051600181527f7f26b83ff96e1f2b6a682f133852f6798a09c465da95921460cefb38474024989060200160405180910390a15b50565b6060603780546102bd90610ecc565b6000338161059f828661064e565b9050838110156105ff5760405162461bcd60e51b815260206004820152602560248201527f45524332303a2064656372656173656420616c6c6f77616e63652062656c6f77604482015264207a65726f60d81b6064820152608401610408565b61037382868684036106ef565b60003361034e81858561088e565b6097546001600160a01b031633146106445760405162461bcd60e51b815260040161040890610f27565b61041b8282610c06565b6001600160a01b03918216600090815260346020908152604080832093909416825291909152205490565b610681610a39565b6001600160a01b0381166106e65760405162461bcd60e51b815260206004820152602660248201527f4f776e61626c653a206e6577206f776e657220697320746865207a65726f206160448201526564647265737360d01b6064820152608401610408565b61057f81610a93565b6001600160a01b0383166107515760405162461bcd60e51b8152602060048201526024808201527f45524332303a20617070726f76652066726f6d20746865207a65726f206164646044820152637265737360e01b6064820152608401610408565b6001600160a01b0382166107b25760405162461bcd60e51b815260206004820152602260248201527f45524332303a20617070726f766520746f20746865207a65726f206164647265604482015261737360f01b6064820152608401610408565b6001600160a01b0383811660008181526034602090815260408083209487168084529482529182902085905590518481527f8c5be1e5ebec7d5bd14f71427d1e84f3dd0314c0f7b2291e5b200ac8c7c3b92591015b60405180910390a3505050565b6000610820848461064e565b90506000198114610888578181101561087b5760405162461bcd60e51b815260206004820152601d60248201527f45524332303a20696e73756666696369656e7420616c6c6f77616e63650000006044820152606401610408565b61088884848484036106ef565b50505050565b6001600160a01b0383166108f25760405162461bcd60e51b815260206004820152602560248201527f45524332303a207472616e736665722066726f6d20746865207a65726f206164604482015264647265737360d81b6064820152608401610408565b6001600160a01b0382166109545760405162461bcd60e51b815260206004820152602360248201527f45524332303a207472616e7366657220746f20746865207a65726f206164647260448201526265737360e81b6064820152608401610408565b6001600160a01b038316600090815260336020526040902054818110156109cc5760405162461bcd60e51b815260206004820152602660248201527f45524332303a207472616e7366657220616d6f756e7420657863656564732062604482015265616c616e636560d01b6064820152608401610408565b6001600160a01b0380851660008181526033602052604080822086860390559286168082529083902080548601905591517fddf252ad1be2c89b69c2b068fc378daa952ba7f163c4a11628f55a4df523b3ef90610a2c9086815260200190565b60405180910390a3610888565b6065546001600160a01b031633146103dc5760405162461bcd60e51b815260206004820181905260248201527f4f776e61626c653a2063616c6c6572206973206e6f7420746865206f776e65726044820152606401610408565b606580546001600160a01b038381166001600160a01b0319831681179093556040519116919082907f8be0079c531659141344cd1fd0a4f28419497f9722a3daafe3b4186f6b6457e090600090a35050565b6001600160a01b038216610b3b5760405162461bcd60e51b815260206004820152601f60248201527f45524332303a206d696e7420746f20746865207a65726f2061646472657373006044820152606401610408565b8060356000828254610b4d9190610f06565b90915550506001600160a01b0382166000818152603360209081526040808320805486019055518481527fddf252ad1be2c89b69c2b068fc378daa952ba7f163c4a11628f55a4df523b3ef910160405180910390a35050565b600054610100900460ff16610bcd5760405162461bcd60e51b815260040161040890610f6f565b61041b8282610d37565b600054610100900460ff16610bfe5760405162461bcd60e51b815260040161040890610f6f565b6103dc610d77565b6001600160a01b038216610c665760405162461bcd60e51b815260206004820152602160248201527f45524332303a206275726e2066726f6d20746865207a65726f206164647265736044820152607360f81b6064820152608401610408565b6001600160a01b03821660009081526033602052604090205481811015610cda5760405162461bcd60e51b815260206004820152602260248201527f45524332303a206275726e20616d6f756e7420657863656564732062616c616e604482015261636560f01b6064820152608401610408565b6001600160a01b03831660008181526033602090815260408083208686039055603580548790039055518581529192917fddf252ad1be2c89b69c2b068fc378daa952ba7f163c4a11628f55a4df523b3ef9101610807565b505050565b600054610100900460ff16610d5e5760405162461bcd60e51b815260040161040890610f6f565b6036610d6a838261101e565b506037610d32828261101e565b600054610100900460ff16610d9e5760405162461bcd60e51b815260040161040890610f6f565b6103dc33610a93565b600060208083528351808285015260005b81811015610dd457858101830151858201604001528201610db8565b506000604082860101526040601f19601f8301168501019250505092915050565b80356001600160a01b0381168114610e0c57600080fd5b919050565b60008060408385031215610e2457600080fd5b610e2d83610df5565b946020939093013593505050565b600080600060608486031215610e5057600080fd5b610e5984610df5565b9250610e6760208501610df5565b9150604084013590509250925092565b600060208284031215610e8957600080fd5b610e9282610df5565b9392505050565b60008060408385031215610eac57600080fd5b610eb583610df5565b9150610ec360208401610df5565b90509250929050565b600181811c90821680610ee057607f821691505b602082108103610f0057634e487b7160e01b600052602260045260246000fd5b50919050565b8082018082111561035457634e487b7160e01b600052601160045260246000fd5b60208082526028908201527f6d73672073656e6465722073686f756c6420626520696e7669206b6c617920736040820152671dd85c081c1bdbdb60c21b606082015260800190565b6020808252602b908201527f496e697469616c697a61626c653a20636f6e7472616374206973206e6f74206960408201526a6e697469616c697a696e6760a81b606082015260800190565b634e487b7160e01b600052604160045260246000fd5b601f821115610d3257600081815260208120601f850160051c81016020861015610ff75750805b601f850160051c820191505b8181101561101657828155600101611003565b505050505050565b815167ffffffffffffffff81111561103857611038610fba565b61104c816110468454610ecc565b84610fd0565b602080601f83116001811461108157600084156110695750858301515b600019600386901b1c1916600185901b178555611016565b600085815260208120601f198616915b828110156110b057888601518255948401946001909101908401611091565b50858210156110ce5787850151600019600388901b60f8161c191681555b5050505050600190811b0190555056fea264697066735822122050f833e7c708dc8d30ced8a0baa7d8cf47e89fa432c21a0563c93c069a0b9dce64736f6c63430008120033",
  "linkReferences": {},
  "deployedLinkReferences": {}
}