{
  "_format": "hh-sol-artifact-1",
  "contractName": "LiquidityProviderPool",
  "sourceName": "contracts/LiquidityProviderPool.sol",
  "abi": [
    {
      "anonymous": false,
      "inputs": [
        {
          "indexed": false,
          "internalType": "uint8",
          "name": "version",
          "type": "uint8"
        }
      ],
      "name": "Initialized",
      "type": "event"
    },
    {
      "anonymous": false,
      "inputs": [
        {
          "indexed": true,
          "internalType": "address",
          "name": "previousOwner",
          "type": "address"
        },
        {
          "indexed": true,
          "internalType": "address",
          "name": "newOwner",
          "type": "address"
        }
      ],
      "name": "OwnershipTransferred",
      "type": "event"
    },
    {
      "anonymous": false,
      "inputs": [
        {
          "indexed": false,
          "internalType": "uint256",
          "name": "amount",
          "type": "uint256"
        }
      ],
      "name": "Stake",
      "type": "event"
    },
    {
      "inputs": [
        {
          "internalType": "uint256",
          "name": "",
          "type": "uint256"
        }
      ],
      "name": "ILPHolders",
      "outputs": [
        {
          "internalType": "address",
          "name": "",
          "type": "address"
        }
      ],
      "stateMutability": "view",
      "type": "function"
    },
    {
      "inputs": [],
      "name": "distributeInviTokenReward",
      "outputs": [],
      "stateMutability": "nonpayable",
      "type": "function"
    },
    {
      "inputs": [],
      "name": "distributeNativeReward",
      "outputs": [],
      "stateMutability": "payable",
      "type": "function"
    },
    {
      "inputs": [],
      "name": "getMaxLentAmount",
      "outputs": [
        {
          "internalType": "uint256",
          "name": "",
          "type": "uint256"
        }
      ],
      "stateMutability": "view",
      "type": "function"
    },
    {
      "inputs": [],
      "name": "getRewardAmount",
      "outputs": [
        {
          "internalType": "uint256",
          "name": "",
          "type": "uint256"
        },
        {
          "internalType": "uint256",
          "name": "",
          "type": "uint256"
        }
      ],
      "stateMutability": "view",
      "type": "function"
    },
    {
      "inputs": [],
      "name": "getTotalLiquidity",
      "outputs": [
        {
          "internalType": "uint256",
          "name": "",
          "type": "uint256"
        }
      ],
      "stateMutability": "view",
      "type": "function"
    },
    {
      "inputs": [],
      "name": "iLP",
      "outputs": [
        {
          "internalType": "contract IERC20",
          "name": "",
          "type": "address"
        }
      ],
      "stateMutability": "view",
      "type": "function"
    },
    {
      "inputs": [
        {
          "internalType": "address",
          "name": "iLPAddr",
          "type": "address"
        },
        {
          "internalType": "address",
          "name": "inviTokenAddr",
          "type": "address"
        }
      ],
      "name": "initialize",
      "outputs": [],
      "stateMutability": "nonpayable",
      "type": "function"
    },
    {
      "inputs": [],
      "name": "inviCoreContract",
      "outputs": [
        {
          "internalType": "contract InviCore",
          "name": "",
          "type": "address"
        }
      ],
      "stateMutability": "view",
      "type": "function"
    },
    {
      "inputs": [],
      "name": "inviReceiveInterval",
      "outputs": [
        {
          "internalType": "uint256",
          "name": "",
          "type": "uint256"
        }
      ],
      "stateMutability": "view",
      "type": "function"
    },
    {
      "inputs": [
        {
          "internalType": "address",
          "name": "",
          "type": "address"
        }
      ],
      "name": "inviRewardAmount",
      "outputs": [
        {
          "internalType": "uint256",
          "name": "",
          "type": "uint256"
        }
      ],
      "stateMutability": "view",
      "type": "function"
    },
    {
      "inputs": [],
      "name": "inviRewardInterval",
      "outputs": [
        {
          "internalType": "uint256",
          "name": "",
          "type": "uint256"
        }
      ],
      "stateMutability": "view",
      "type": "function"
    },
    {
      "inputs": [],
      "name": "inviToken",
      "outputs": [
        {
          "internalType": "contract IERC20",
          "name": "",
          "type": "address"
        }
      ],
      "stateMutability": "view",
      "type": "function"
    },
    {
      "inputs": [],
      "name": "lastInviRewardedTime",
      "outputs": [
        {
          "internalType": "uint256",
          "name": "",
          "type": "uint256"
        }
      ],
      "stateMutability": "view",
      "type": "function"
    },
    {
      "inputs": [],
      "name": "liquidityAllowableRatio",
      "outputs": [
        {
          "internalType": "uint256",
          "name": "",
          "type": "uint256"
        }
      ],
      "stateMutability": "view",
      "type": "function"
    },
    {
      "inputs": [
        {
          "internalType": "address",
          "name": "",
          "type": "address"
        }
      ],
      "name": "nativeRewardAmount",
      "outputs": [
        {
          "internalType": "uint256",
          "name": "",
          "type": "uint256"
        }
      ],
      "stateMutability": "view",
      "type": "function"
    },
    {
      "inputs": [],
      "name": "owner",
      "outputs": [
        {
          "internalType": "address",
          "name": "",
          "type": "address"
        }
      ],
      "stateMutability": "view",
      "type": "function"
    },
    {
      "inputs": [],
      "name": "renounceOwnership",
      "outputs": [],
      "stateMutability": "nonpayable",
      "type": "function"
    },
    {
      "inputs": [
        {
          "internalType": "address payable",
          "name": "_inviCore",
          "type": "address"
        }
      ],
      "name": "setInviCoreContract",
      "outputs": [],
      "stateMutability": "nonpayable",
      "type": "function"
    },
    {
      "inputs": [
        {
          "internalType": "uint256",
          "name": "_liquidityAllowableRatio",
          "type": "uint256"
        }
      ],
      "name": "setLiquidityAllowableRatio",
      "outputs": [],
      "stateMutability": "nonpayable",
      "type": "function"
    },
    {
      "inputs": [
        {
          "internalType": "address",
          "name": "_stakeManager",
          "type": "address"
        }
      ],
      "name": "setStakeManager",
      "outputs": [],
      "stateMutability": "nonpayable",
      "type": "function"
    },
    {
      "inputs": [
        {
          "internalType": "uint256",
          "name": "_totalLentAmount",
          "type": "uint256"
        }
      ],
      "name": "setTotalLentAmount",
      "outputs": [],
      "stateMutability": "nonpayable",
      "type": "function"
    },
    {
      "inputs": [
        {
          "internalType": "uint256",
          "name": "_totalStakedAmount",
          "type": "uint256"
        }
      ],
      "name": "setTotalStakedAmount",
      "outputs": [],
      "stateMutability": "nonpayable",
      "type": "function"
    },
    {
      "inputs": [],
      "name": "stake",
      "outputs": [],
      "stateMutability": "payable",
      "type": "function"
    },
    {
      "inputs": [],
      "name": "stakeManager",
      "outputs": [
        {
          "internalType": "address",
          "name": "",
          "type": "address"
        }
      ],
      "stateMutability": "view",
      "type": "function"
    },
    {
      "inputs": [
        {
          "internalType": "address",
          "name": "",
          "type": "address"
        }
      ],
      "name": "stakedAmount",
      "outputs": [
        {
          "internalType": "uint256",
          "name": "",
          "type": "uint256"
        }
      ],
      "stateMutability": "view",
      "type": "function"
    },
    {
      "inputs": [],
      "name": "totalLentAmount",
      "outputs": [
        {
          "internalType": "uint256",
          "name": "",
          "type": "uint256"
        }
      ],
      "stateMutability": "view",
      "type": "function"
    },
    {
      "inputs": [],
      "name": "totalStakedAmount",
      "outputs": [
        {
          "internalType": "uint256",
          "name": "",
          "type": "uint256"
        }
      ],
      "stateMutability": "view",
      "type": "function"
    },
    {
      "inputs": [
        {
          "internalType": "address",
          "name": "newOwner",
          "type": "address"
        }
      ],
      "name": "transferOwnership",
      "outputs": [],
      "stateMutability": "nonpayable",
      "type": "function"
    },
    {
      "inputs": [
        {
          "internalType": "uint256",
          "name": "_amount",
          "type": "uint256"
        }
      ],
      "name": "unstake",
      "outputs": [],
      "stateMutability": "nonpayable",
      "type": "function"
    }
  ],
  "bytecode": "0x608060405234801561001057600080fd5b506115c5806100206000396000f3fe6080604052600436106101cd5760003560e01c8063715018a6116100f7578063a192800d11610095578063ecc9747e11610064578063ecc9747e146104da578063f2fde38b146104fa578063f99318551461051a578063fdb7e2b01461054757600080fd5b8063a192800d14610465578063a42b88bd14610485578063befd63c4146104a5578063d93b397b146104ad57600080fd5b80638da5cb5b116100d15780638da5cb5b146103f157806392bdca861461040f57806399b259b51461042f5780639eb312841461044557600080fd5b8063715018a6146103a75780637542ff95146103bc5780637ceac4f4146103dc57600080fd5b806335c7e9251161016f578063485cc9551161013e578063485cc95514610324578063493a409914610344578063567e98f91461037c57806367114bd41461039257600080fd5b806335c7e925146102db5780633a4b66f1146102f057806342579a2a146102f857806343f7f7401461030e57600080fd5b8063128acf10116101ab578063128acf10146102545780631ca75aee1461028f5780632e17de78146102a557806333b9ad23146102c557600080fd5b806309a69f57146101d25780630e7c67fc146102125780630f143b6314610234575b600080fd5b3480156101de57600080fd5b50336000908152606f6020908152604080832054607083529281902054815193845291830191909152015b60405180910390f35b34801561021e57600080fd5b5061023261022d366004611279565b610567565b005b34801561024057600080fd5b5061023261024f366004611279565b610591565b34801561026057600080fd5b5061028161026f366004611279565b606f6020526000908152604090205481565b604051908152602001610209565b34801561029b57600080fd5b50610281606d5481565b3480156102b157600080fd5b506102326102c036600461129d565b6105bb565b3480156102d157600080fd5b50610281606a5481565b3480156102e757600080fd5b50610281610727565b61023261073e565b34801561030457600080fd5b50610281606b5481565b34801561031a57600080fd5b5061028160725481565b34801561033057600080fd5b5061023261033f3660046112b6565b6108d8565b34801561035057600080fd5b50606554610364906001600160a01b031681565b6040516001600160a01b039091168152602001610209565b34801561038857600080fd5b5061028160715481565b34801561039e57600080fd5b50610281610a46565b3480156103b357600080fd5b50610232610a72565b3480156103c857600080fd5b50606754610364906001600160a01b031681565b3480156103e857600080fd5b50610232610a86565b3480156103fd57600080fd5b506033546001600160a01b0316610364565b34801561041b57600080fd5b50606854610364906001600160a01b031681565b34801561043b57600080fd5b50610281606c5481565b34801561045157600080fd5b50606654610364906001600160a01b031681565b34801561047157600080fd5b5061036461048036600461129d565b610d6d565b34801561049157600080fd5b506102326104a036600461129d565b610d97565b610232610dc6565b3480156104b957600080fd5b506102816104c8366004611279565b60706020526000908152604090205481565b3480156104e657600080fd5b506102326104f536600461129d565b610fc9565b34801561050657600080fd5b50610232610515366004611279565b610ff8565b34801561052657600080fd5b50610281610535366004611279565b606e6020526000908152604090205481565b34801561055357600080fd5b5061023261056236600461129d565b61106e565b61056f61107b565b606780546001600160a01b0319166001600160a01b0392909216919091179055565b61059961107b565b606880546001600160a01b0319166001600160a01b0392909216919091179055565b336000908152606e60209081526040918290205482518084019093526014835273696e73756666696369656e742062616c616e636560601b918301919091528211156106235760405162461bcd60e51b815260040161061a91906112ef565b60405180910390fd5b50336000908152606e602052604081208054839290610643908490611353565b92505081905550806071600082825461065c9190611353565b9091555050606554604051633477cc1b60e21b8152336004820152602481018390526001600160a01b039091169063d1df306c90604401600060405180830381600087803b1580156106ad57600080fd5b505af11580156106c1573d6000803e3d6000fd5b50506068546040516380aac03160e01b8152600481018590526001600160a01b0390911692506380aac03191506024015b600060405180830381600087803b15801561070c57600080fd5b505af1158015610720573d6000803e3d6000fd5b5050505050565b60006072546071546107399190611353565b905090565b336000908152606e60205260408120805434929061075d90849061136c565b925050819055503460716000828254610776919061136c565b9091555050606554604051630f38ca0d60e31b81523360048201523460248201526001600160a01b03909116906379c6506890604401600060405180830381600087803b1580156107c657600080fd5b505af11580156107da573d6000803e3d6000fd5b5050505061080b6040518060400160405280600c81526020016b6d696e74207375636365737360a01b8152506110d5565b6067546040516000916001600160a01b03169034908381818185875af1925050503d8060008114610858576040519150601f19603f3d011682016040523d82523d6000602084013e61085d565b606091505b50509050806040518060400160405280600e81526020016d19985a5b1959081d1bc81cd95b9960921b815250906108a75760405162461bcd60e51b815260040161061a91906112ef565b50606854604051631247f08d60e31b81523460048201526001600160a01b039091169063923f8468906024016106f2565b600054610100900460ff16158080156108f85750600054600160ff909116105b806109125750303b158015610912575060005460ff166001145b6109755760405162461bcd60e51b815260206004820152602e60248201527f496e697469616c697a61626c653a20636f6e747261637420697320616c72656160448201526d191e481a5b9a5d1a585b1a5e995960921b606482015260840161061a565b6000805460ff191660011790558015610998576000805461ff0019166101001790555b6109a0611118565b606580546001600160a01b038086166001600160a01b03199283161790925560668054928516929091169190911790556109dc6064600161137f565b606a55610e10606b8190556201a5e0606c556109f89042611353565b606d558015610a41576000805461ff0019169055604051600181527f7f26b83ff96e1f2b6a682f133852f6798a09c465da95921460cefb38474024989060200160405180910390a15b505050565b6000610a5360648061137f565b606a54610a5e610727565b610a68919061137f565b6107399190611396565b610a7a61107b565b610a846000611147565b565b610a8e61107b565b606b54606d54610a9e9042611353565b10156040518060400160405280601f81526020017f6469737472696275746520696e74657276616c206e6f7420726561636865640081525090610af45760405162461bcd60e51b815260040161061a91906112ef565b506066546040516370a0823160e01b81523060048201526000916001600160a01b0316906370a0823190602401602060405180830381865afa158015610b3e573d6000803e3d6000fd5b505050506040513d601f19601f82011682018060405250810190610b6291906113b8565b9050606560009054906101000a90046001600160a01b03166001600160a01b031663e632e1f46040518163ffffffff1660e01b8152600401600060405180830381865afa158015610bb7573d6000803e3d6000fd5b505050506040513d6000823e601f3d908101601f19168201604052610bdf91908101906113f7565b8051610bf3916069916020909101906111ea565b5060005b606954811015610d6557600060698281548110610c1657610c166114bc565b6000918252602082200154606b54606c546001600160a01b039092169350610c3d91611396565b607154610c4a919061137f565b6001600160a01b0383166000908152606e6020526040902054610c6d908661137f565b610c779190611396565b6066549091506103e8906001600160a01b031663a9059cbb84610c9a8486611353565b6040516001600160e01b031960e085901b1681526001600160a01b03909216600483015260248201526044016020604051808303816000875af1158015610ce5573d6000803e3d6000fd5b505050506040513d601f19601f82011682018060405250810190610d0991906114d2565b6040518060400160405280600e81526020016d19985a5b1959081d1bc81cd95b9960921b81525090610d4e5760405162461bcd60e51b815260040161061a91906112ef565b505050508080610d5d906114f4565b915050610bf7565b505042606d55565b60698181548110610d7d57600080fd5b6000918252602090912001546001600160a01b0316905081565b6068546001600160a01b03163314610dc15760405162461bcd60e51b815260040161061a9061150d565b607255565b6068546001600160a01b03163314610df05760405162461bcd60e51b815260040161061a9061150d565b606560009054906101000a90046001600160a01b03166001600160a01b031663e632e1f46040518163ffffffff1660e01b8152600401600060405180830381865afa158015610e43573d6000803e3d6000fd5b505050506040513d6000823e601f3d908101601f19168201604052610e6b91908101906113f7565b8051610e7f916069916020909101906111ea565b5060005b606954811015610fc657600060698281548110610ea257610ea26114bc565b60009182526020808320909101546071546001600160a01b03909116808452606e909252604083205491935090610ed9903461137f565b610ee39190611396565b6001600160a01b0383166000908152606f6020526040812080549293508392909190610f1090849061136c565b90915550506040516000906001600160a01b0384169083908381818185875af1925050503d8060008114610f60576040519150601f19603f3d011682016040523d82523d6000602084013e610f65565b606091505b50509050806040518060400160405280600e81526020016d19985a5b1959081d1bc81cd95b9960921b81525090610faf5760405162461bcd60e51b815260040161061a91906112ef565b505050508080610fbe906114f4565b915050610e83565b50565b6068546001600160a01b03163314610ff35760405162461bcd60e51b815260040161061a9061150d565b607155565b61100061107b565b6001600160a01b0381166110655760405162461bcd60e51b815260206004820152602660248201527f4f776e61626c653a206e6577206f776e657220697320746865207a65726f206160448201526564647265737360d01b606482015260840161061a565b610fc681611147565b61107661107b565b606a55565b6033546001600160a01b03163314610a845760405162461bcd60e51b815260206004820181905260248201527f4f776e61626c653a2063616c6c6572206973206e6f7420746865206f776e6572604482015260640161061a565b610fc6816040516024016110e991906112ef565b60408051601f198184030181529190526020810180516001600160e01b031663104c13eb60e21b179052611199565b600054610100900460ff1661113f5760405162461bcd60e51b815260040161061a90611544565b610a846111ba565b603380546001600160a01b038381166001600160a01b0319831681179093556040519116919082907f8be0079c531659141344cd1fd0a4f28419497f9722a3daafe3b4186f6b6457e090600090a35050565b80516a636f6e736f6c652e6c6f67602083016000808483855afa5050505050565b600054610100900460ff166111e15760405162461bcd60e51b815260040161061a90611544565b610a8433611147565b82805482825590600052602060002090810192821561123f579160200282015b8281111561123f57825182546001600160a01b0319166001600160a01b0390911617825560209092019160019091019061120a565b5061124b92915061124f565b5090565b5b8082111561124b5760008155600101611250565b6001600160a01b0381168114610fc657600080fd5b60006020828403121561128b57600080fd5b813561129681611264565b9392505050565b6000602082840312156112af57600080fd5b5035919050565b600080604083850312156112c957600080fd5b82356112d481611264565b915060208301356112e481611264565b809150509250929050565b600060208083528351808285015260005b8181101561131c57858101830151858201604001528201611300565b506000604082860101526040601f19601f8301168501019250505092915050565b634e487b7160e01b600052601160045260246000fd5b818103818111156113665761136661133d565b92915050565b808201808211156113665761136661133d565b80820281158282048414176113665761136661133d565b6000826113b357634e487b7160e01b600052601260045260246000fd5b500490565b6000602082840312156113ca57600080fd5b5051919050565b634e487b7160e01b600052604160045260246000fd5b80516113f281611264565b919050565b6000602080838503121561140a57600080fd5b825167ffffffffffffffff8082111561142257600080fd5b818501915085601f83011261143657600080fd5b815181811115611448576114486113d1565b8060051b604051601f19603f8301168101818110858211171561146d5761146d6113d1565b60405291825284820192508381018501918883111561148b57600080fd5b938501935b828510156114b0576114a1856113e7565b84529385019392850192611490565b98975050505050505050565b634e487b7160e01b600052603260045260246000fd5b6000602082840312156114e457600080fd5b8151801515811461129657600080fd5b6000600182016115065761150661133d565b5060010190565b6020808252601e908201527f6d73672073656e6465722073686f756c6420626520696e766920636f72650000604082015260600190565b6020808252602b908201527f496e697469616c697a61626c653a20636f6e7472616374206973206e6f74206960408201526a6e697469616c697a696e6760a81b60608201526080019056fea26469706673582212201a65fe22b5cab3d308e7f7f96357e97c5acc766dc17885e4a9ca8ee01e965fad64736f6c63430008120033",
  "linkReferences": {},
  "deployedLinkReferences": {}
}