{
  "_format": "hh-sol-artifact-1",
  "contractName": "StakeNFT",
  "sourceName": "contracts/StakeNFT.sol",
  "abi": [
    {
      "anonymous": false,
      "inputs": [
        {
          "indexed": true,
          "internalType": "address",
          "name": "owner",
          "type": "address"
        },
        {
          "indexed": true,
          "internalType": "address",
          "name": "approved",
          "type": "address"
        },
        {
          "indexed": true,
          "internalType": "uint256",
          "name": "tokenId",
          "type": "uint256"
        }
      ],
      "name": "Approval",
      "type": "event"
    },
    {
      "anonymous": false,
      "inputs": [
        {
          "indexed": true,
          "internalType": "address",
          "name": "owner",
          "type": "address"
        },
        {
          "indexed": true,
          "internalType": "address",
          "name": "operator",
          "type": "address"
        },
        {
          "indexed": false,
          "internalType": "bool",
          "name": "approved",
          "type": "bool"
        }
      ],
      "name": "ApprovalForAll",
      "type": "event"
    },
    {
      "anonymous": false,
      "inputs": [
        {
          "indexed": false,
          "internalType": "uint8",
          "name": "version",
          "type": "uint8"
        }
      ],
      "name": "Initialized",
      "type": "event"
    },
    {
      "anonymous": false,
      "inputs": [
        {
          "indexed": true,
          "internalType": "address",
          "name": "previousOwner",
          "type": "address"
        },
        {
          "indexed": true,
          "internalType": "address",
          "name": "newOwner",
          "type": "address"
        }
      ],
      "name": "OwnershipTransferred",
      "type": "event"
    },
    {
      "anonymous": false,
      "inputs": [
        {
          "indexed": true,
          "internalType": "address",
          "name": "from",
          "type": "address"
        },
        {
          "indexed": true,
          "internalType": "address",
          "name": "to",
          "type": "address"
        },
        {
          "indexed": true,
          "internalType": "uint256",
          "name": "tokenId",
          "type": "uint256"
        }
      ],
      "name": "Transfer",
      "type": "event"
    },
    {
      "inputs": [
        {
          "internalType": "address",
          "name": "",
          "type": "address"
        },
        {
          "internalType": "uint256",
          "name": "",
          "type": "uint256"
        }
      ],
      "name": "NFTOwnership",
      "outputs": [
        {
          "internalType": "uint256",
          "name": "",
          "type": "uint256"
        }
      ],
      "stateMutability": "view",
      "type": "function"
    },
    {
      "inputs": [
        {
          "internalType": "address",
          "name": "to",
          "type": "address"
        },
        {
          "internalType": "uint256",
          "name": "tokenId",
          "type": "uint256"
        }
      ],
      "name": "approve",
      "outputs": [],
      "stateMutability": "nonpayable",
      "type": "function"
    },
    {
      "inputs": [
        {
          "internalType": "address",
          "name": "owner",
          "type": "address"
        }
      ],
      "name": "balanceOf",
      "outputs": [
        {
          "internalType": "uint256",
          "name": "",
          "type": "uint256"
        }
      ],
      "stateMutability": "view",
      "type": "function"
    },
    {
      "inputs": [
        {
          "internalType": "uint256",
          "name": "nftTokenId",
          "type": "uint256"
        }
      ],
      "name": "burnNFT",
      "outputs": [
        {
          "internalType": "bool",
          "name": "",
          "type": "bool"
        }
      ],
      "stateMutability": "nonpayable",
      "type": "function"
    },
    {
      "inputs": [
        {
          "internalType": "uint256",
          "name": "_nftTokenId",
          "type": "uint256"
        }
      ],
      "name": "deleteStakeInfo",
      "outputs": [
        {
          "internalType": "bool",
          "name": "",
          "type": "bool"
        }
      ],
      "stateMutability": "nonpayable",
      "type": "function"
    },
    {
      "inputs": [
        {
          "internalType": "uint256",
          "name": "tokenId",
          "type": "uint256"
        }
      ],
      "name": "getApproved",
      "outputs": [
        {
          "internalType": "address",
          "name": "",
          "type": "address"
        }
      ],
      "stateMutability": "view",
      "type": "function"
    },
    {
      "inputs": [
        {
          "internalType": "address",
          "name": "_user",
          "type": "address"
        }
      ],
      "name": "getNFTOwnership",
      "outputs": [
        {
          "internalType": "uint256[]",
          "name": "",
          "type": "uint256[]"
        }
      ],
      "stateMutability": "view",
      "type": "function"
    },
    {
      "inputs": [
        {
          "internalType": "uint256",
          "name": "_tokenId",
          "type": "uint256"
        }
      ],
      "name": "getRewardAmount",
      "outputs": [
        {
          "internalType": "uint256",
          "name": "",
          "type": "uint256"
        }
      ],
      "stateMutability": "view",
      "type": "function"
    },
    {
      "inputs": [
        {
          "internalType": "uint256",
          "name": "_nftTokenId",
          "type": "uint256"
        }
      ],
      "name": "getStakeInfo",
      "outputs": [
        {
          "components": [
            {
              "internalType": "address",
              "name": "user",
              "type": "address"
            },
            {
              "internalType": "uint256",
              "name": "principal",
              "type": "uint256"
            },
            {
              "internalType": "uint256",
              "name": "leverageRatio",
              "type": "uint256"
            },
            {
              "internalType": "uint256",
              "name": "stakedAmount",
              "type": "uint256"
            },
            {
              "internalType": "uint256",
              "name": "lockPeriod",
              "type": "uint256"
            },
            {
              "internalType": "uint256",
              "name": "lockStart",
              "type": "uint256"
            },
            {
              "internalType": "uint256",
              "name": "lockEnd",
              "type": "uint256"
            },
            {
              "internalType": "uint256",
              "name": "protocolFee",
              "type": "uint256"
            },
            {
              "internalType": "bool",
              "name": "isLent",
              "type": "bool"
            }
          ],
          "internalType": "struct StakeInfo",
          "name": "",
          "type": "tuple"
        }
      ],
      "stateMutability": "view",
      "type": "function"
    },
    {
      "inputs": [],
      "name": "initialize",
      "outputs": [],
      "stateMutability": "nonpayable",
      "type": "function"
    },
    {
      "inputs": [],
      "name": "inviCoreAddress",
      "outputs": [
        {
          "internalType": "address",
          "name": "",
          "type": "address"
        }
      ],
      "stateMutability": "view",
      "type": "function"
    },
    {
      "inputs": [
        {
          "internalType": "address",
          "name": "owner",
          "type": "address"
        },
        {
          "internalType": "address",
          "name": "operator",
          "type": "address"
        }
      ],
      "name": "isApprovedForAll",
      "outputs": [
        {
          "internalType": "bool",
          "name": "",
          "type": "bool"
        }
      ],
      "stateMutability": "view",
      "type": "function"
    },
    {
      "inputs": [
        {
          "internalType": "uint256",
          "name": "_nftTokenId",
          "type": "uint256"
        }
      ],
      "name": "isExisted",
      "outputs": [
        {
          "internalType": "bool",
          "name": "",
          "type": "bool"
        }
      ],
      "stateMutability": "view",
      "type": "function"
    },
    {
      "inputs": [
        {
          "internalType": "uint256",
          "name": "_nftTokenId",
          "type": "uint256"
        },
        {
          "internalType": "address",
          "name": "_owner",
          "type": "address"
        }
      ],
      "name": "isOwner",
      "outputs": [
        {
          "internalType": "bool",
          "name": "",
          "type": "bool"
        }
      ],
      "stateMutability": "view",
      "type": "function"
    },
    {
      "inputs": [
        {
          "internalType": "uint256",
          "name": "_nftTokenId",
          "type": "uint256"
        }
      ],
      "name": "isUnlock",
      "outputs": [
        {
          "internalType": "bool",
          "name": "",
          "type": "bool"
        }
      ],
      "stateMutability": "view",
      "type": "function"
    },
    {
      "inputs": [],
      "name": "lendingPoolAddress",
      "outputs": [
        {
          "internalType": "address",
          "name": "",
          "type": "address"
        }
      ],
      "stateMutability": "view",
      "type": "function"
    },
    {
      "inputs": [
        {
          "components": [
            {
              "internalType": "address",
              "name": "user",
              "type": "address"
            },
            {
              "internalType": "uint256",
              "name": "principal",
              "type": "uint256"
            },
            {
              "internalType": "uint256",
              "name": "leverageRatio",
              "type": "uint256"
            },
            {
              "internalType": "uint256",
              "name": "stakedAmount",
              "type": "uint256"
            },
            {
              "internalType": "uint256",
              "name": "lockPeriod",
              "type": "uint256"
            },
            {
              "internalType": "uint256",
              "name": "lockStart",
              "type": "uint256"
            },
            {
              "internalType": "uint256",
              "name": "lockEnd",
              "type": "uint256"
            },
            {
              "internalType": "uint256",
              "name": "protocolFee",
              "type": "uint256"
            },
            {
              "internalType": "bool",
              "name": "isLent",
              "type": "bool"
            }
          ],
          "internalType": "struct StakeInfo",
          "name": "_stakeInfo",
          "type": "tuple"
        }
      ],
      "name": "mintNFT",
      "outputs": [
        {
          "internalType": "uint256",
          "name": "",
          "type": "uint256"
        }
      ],
      "stateMutability": "nonpayable",
      "type": "function"
    },
    {
      "inputs": [],
      "name": "name",
      "outputs": [
        {
          "internalType": "string",
          "name": "",
          "type": "string"
        }
      ],
      "stateMutability": "view",
      "type": "function"
    },
    {
      "inputs": [
        {
          "internalType": "uint256",
          "name": "",
          "type": "uint256"
        }
      ],
      "name": "nftTokenIds",
      "outputs": [
        {
          "internalType": "uint256",
          "name": "",
          "type": "uint256"
        }
      ],
      "stateMutability": "view",
      "type": "function"
    },
    {
      "inputs": [],
      "name": "owner",
      "outputs": [
        {
          "internalType": "address",
          "name": "",
          "type": "address"
        }
      ],
      "stateMutability": "view",
      "type": "function"
    },
    {
      "inputs": [
        {
          "internalType": "uint256",
          "name": "tokenId",
          "type": "uint256"
        }
      ],
      "name": "ownerOf",
      "outputs": [
        {
          "internalType": "address",
          "name": "",
          "type": "address"
        }
      ],
      "stateMutability": "view",
      "type": "function"
    },
    {
      "inputs": [],
      "name": "renounceOwnership",
      "outputs": [],
      "stateMutability": "nonpayable",
      "type": "function"
    },
    {
      "inputs": [
        {
          "internalType": "uint256",
          "name": "",
          "type": "uint256"
        }
      ],
      "name": "rewardAmount",
      "outputs": [
        {
          "internalType": "uint256",
          "name": "",
          "type": "uint256"
        }
      ],
      "stateMutability": "view",
      "type": "function"
    },
    {
      "inputs": [
        {
          "internalType": "address",
          "name": "from",
          "type": "address"
        },
        {
          "internalType": "address",
          "name": "to",
          "type": "address"
        },
        {
          "internalType": "uint256",
          "name": "tokenId",
          "type": "uint256"
        }
      ],
      "name": "safeTransferFrom",
      "outputs": [],
      "stateMutability": "nonpayable",
      "type": "function"
    },
    {
      "inputs": [
        {
          "internalType": "address",
          "name": "from",
          "type": "address"
        },
        {
          "internalType": "address",
          "name": "to",
          "type": "address"
        },
        {
          "internalType": "uint256",
          "name": "tokenId",
          "type": "uint256"
        },
        {
          "internalType": "bytes",
          "name": "data",
          "type": "bytes"
        }
      ],
      "name": "safeTransferFrom",
      "outputs": [],
      "stateMutability": "nonpayable",
      "type": "function"
    },
    {
      "inputs": [
        {
          "internalType": "address",
          "name": "operator",
          "type": "address"
        },
        {
          "internalType": "bool",
          "name": "approved",
          "type": "bool"
        }
      ],
      "name": "setApprovalForAll",
      "outputs": [],
      "stateMutability": "nonpayable",
      "type": "function"
    },
    {
      "inputs": [
        {
          "internalType": "address",
          "name": "_inviCore",
          "type": "address"
        }
      ],
      "name": "setInviCoreAddress",
      "outputs": [],
      "stateMutability": "nonpayable",
      "type": "function"
    },
    {
      "inputs": [
        {
          "internalType": "address",
          "name": "_LendingPool",
          "type": "address"
        }
      ],
      "name": "setLendingPoolAddress",
      "outputs": [],
      "stateMutability": "nonpayable",
      "type": "function"
    },
    {
      "inputs": [
        {
          "internalType": "uint256",
          "name": "_tokenId",
          "type": "uint256"
        },
        {
          "internalType": "bool",
          "name": "_isLent",
          "type": "bool"
        }
      ],
      "name": "setNFTIsLent",
      "outputs": [],
      "stateMutability": "nonpayable",
      "type": "function"
    },
    {
      "inputs": [
        {
          "internalType": "uint256",
          "name": "_totalStakedAmount",
          "type": "uint256"
        }
      ],
      "name": "setTotalStakedAmount",
      "outputs": [],
      "stateMutability": "nonpayable",
      "type": "function"
    },
    {
      "inputs": [
        {
          "internalType": "uint256",
          "name": "",
          "type": "uint256"
        }
      ],
      "name": "stakeInfos",
      "outputs": [
        {
          "internalType": "address",
          "name": "user",
          "type": "address"
        },
        {
          "internalType": "uint256",
          "name": "principal",
          "type": "uint256"
        },
        {
          "internalType": "uint256",
          "name": "leverageRatio",
          "type": "uint256"
        },
        {
          "internalType": "uint256",
          "name": "stakedAmount",
          "type": "uint256"
        },
        {
          "internalType": "uint256",
          "name": "lockPeriod",
          "type": "uint256"
        },
        {
          "internalType": "uint256",
          "name": "lockStart",
          "type": "uint256"
        },
        {
          "internalType": "uint256",
          "name": "lockEnd",
          "type": "uint256"
        },
        {
          "internalType": "uint256",
          "name": "protocolFee",
          "type": "uint256"
        },
        {
          "internalType": "bool",
          "name": "isLent",
          "type": "bool"
        }
      ],
      "stateMutability": "view",
      "type": "function"
    },
    {
      "inputs": [
        {
          "internalType": "bytes4",
          "name": "interfaceId",
          "type": "bytes4"
        }
      ],
      "name": "supportsInterface",
      "outputs": [
        {
          "internalType": "bool",
          "name": "",
          "type": "bool"
        }
      ],
      "stateMutability": "view",
      "type": "function"
    },
    {
      "inputs": [],
      "name": "symbol",
      "outputs": [
        {
          "internalType": "string",
          "name": "",
          "type": "string"
        }
      ],
      "stateMutability": "view",
      "type": "function"
    },
    {
      "inputs": [
        {
          "internalType": "uint256",
          "name": "tokenId",
          "type": "uint256"
        }
      ],
      "name": "tokenURI",
      "outputs": [
        {
          "internalType": "string",
          "name": "",
          "type": "string"
        }
      ],
      "stateMutability": "view",
      "type": "function"
    },
    {
      "inputs": [],
      "name": "totalStakedAmount",
      "outputs": [
        {
          "internalType": "uint256",
          "name": "",
          "type": "uint256"
        }
      ],
      "stateMutability": "view",
      "type": "function"
    },
    {
      "inputs": [
        {
          "internalType": "address",
          "name": "from",
          "type": "address"
        },
        {
          "internalType": "address",
          "name": "to",
          "type": "address"
        },
        {
          "internalType": "uint256",
          "name": "tokenId",
          "type": "uint256"
        }
      ],
      "name": "transferFrom",
      "outputs": [],
      "stateMutability": "nonpayable",
      "type": "function"
    },
    {
      "inputs": [
        {
          "internalType": "address",
          "name": "newOwner",
          "type": "address"
        }
      ],
      "name": "transferOwnership",
      "outputs": [],
      "stateMutability": "nonpayable",
      "type": "function"
    },
    {
      "inputs": [
        {
          "internalType": "uint256",
          "name": "_totalReward",
          "type": "uint256"
        }
      ],
      "name": "updateReward",
      "outputs": [],
      "stateMutability": "nonpayable",
      "type": "function"
    }
  ],
  "bytecode": "0x608060405234801561001057600080fd5b50612632806100206000396000f3fe608060405234801561001057600080fd5b50600436106102315760003560e01c806370a0823111610130578063c84993af116100b8578063e1ba8bba1161007c578063e1ba8bba14610697578063e985e9c5146106aa578063ecc9747e146106e6578063ed3f827a146106f9578063f2fde38b1461070c57600080fd5b8063c84993af146105a5578063c87b56dd146105c5578063d3ae26b3146105d8578063d63ba50d146105eb578063de38c8311461068457600080fd5b806392d014b2116100ff57806392d014b21461054457806395d89b4114610564578063a22cb4651461056c578063b1cc22651461057f578063b88d4fde1461059257600080fd5b806370a0823114610510578063715018a6146105235780638129fc1c1461052b5780638da5cb5b1461053357600080fd5b806323b872dd116101be57806342842e0e1161018257806342842e0e146104ae578063567e98f9146104c157806357fafbf2146104ca5780635a5d096c146104ea5780636352211e146104fd57600080fd5b806323b872dd146103925780632890e0d7146103a55780633d5ec47e146103b85780633d5ee6cb1461046e578063425c8abd1461049b57600080fd5b806309214f091161020557806309214f09146102b3578063095ea7b3146102c657806309813482146102d95780631b30ff611461035e57806322d544a31461037157600080fd5b806281500a1461023657806301ffc9a71461024b57806306fdde0314610273578063081812fc14610288575b600080fd5b610249610244366004611e2e565b61071f565b005b61025e610259366004611e5f565b610749565b60405190151581526020015b60405180910390f35b61027b61079b565b60405161026a9190611ecc565b61029b610296366004611edf565b61082d565b6040516001600160a01b03909116815260200161026a565b6102496102c1366004611f08565b610854565b6102496102d4366004611f34565b6108e0565b6102ec6102e7366004611edf565b6109f5565b60405161026a919081516001600160a01b031681526020808301519082015260408083015190820152606080830151908201526080808301519082015260a0828101519082015260c0808301519082015260e08083015190820152610100918201511515918101919091526101200190565b60ca5461029b906001600160a01b031681565b61038461037f366004611edf565b610b9e565b60405190815260200161026a565b6102496103a0366004611f5e565b610bbf565b61025e6103b3366004611edf565b610c3d565b61041e6103c6366004611edf565b60ce602052600090815260409020805460018201546002830154600384015460048501546005860154600687015460078801546008909801546001600160a01b03909716979596949593949293919290919060ff1689565b604080516001600160a01b03909a168a5260208a0198909852968801959095526060870193909352608086019190915260a085015260c084015260e083015215156101008201526101200161026a565b61025e61047c366004611edf565b600090815260ce6020526040812080546001600160a01b031916905590565b6102496104a9366004611edf565b610c78565b6102496104bc366004611f5e565b610d3c565b61038460cf5481565b6103846104d8366004611edf565b60cd6020526000908152604090205481565b61025e6104f8366004611f9a565b610d57565b61029b61050b366004611edf565b610d7e565b61038461051e366004611e2e565b610dde565b610249610e64565b610249610e78565b6097546001600160a01b031661029b565b610557610552366004611e2e565b610fd0565b60405161026a9190611fbd565b61027b61103c565b61024961057a366004612001565b61104b565b61038461058d36600461209c565b611056565b6102496105a0366004612121565b6111c8565b6103846105b3366004611edf565b600090815260cd602052604090205490565b61027b6105d3366004611edf565b611200565b60cb5461029b906001600160a01b031681565b61025e6105f9366004611edf565b600090815260ce602090815260409182902082516101208101845281546001600160a01b031681526001820154928101929092526002810154928201929092526003820154606082015260048201546080820152600582015460a0820152600682015460c08201819052600783015460e083015260089092015460ff16151561010090910152421190565b610384610692366004611f34565b611274565b61025e6106a5366004611edf565b6112a5565b61025e6106b83660046121e1565b6001600160a01b039182166000908152606a6020908152604080832093909416825291909152205460ff1690565b6102496106f4366004611edf565b6112c4565b610249610707366004611e2e565b6112f3565b61024961071a366004611e2e565b61131d565b610727611393565b60ca80546001600160a01b0319166001600160a01b0392909216919091179055565b60006001600160e01b031982166380ac58cd60e01b148061077a57506001600160e01b03198216635b5e139f60e01b145b8061079557506301ffc9a760e01b6001600160e01b03198316145b92915050565b6060606580546107aa9061220b565b80601f01602080910402602001604051908101604052809291908181526020018280546107d69061220b565b80156108235780601f106107f857610100808354040283529160200191610823565b820191906000526020600020905b81548152906001019060200180831161080657829003601f168201915b5050505050905090565b6000610838826113ed565b506000908152606960205260409020546001600160a01b031690565b60cb546001600160a01b031633146108bd5760405162461bcd60e51b815260206004820152602160248201527f6d73672073656e6465722073686f756c64206265206c656e64696e6720706f6f6044820152601b60fa1b60648201526084015b60405180910390fd5b600091825260ce6020526040909120600801805460ff1916911515919091179055565b60006108eb82610d7e565b9050806001600160a01b0316836001600160a01b0316036109585760405162461bcd60e51b815260206004820152602160248201527f4552433732313a20617070726f76616c20746f2063757272656e74206f776e656044820152603960f91b60648201526084016108b4565b336001600160a01b0382161480610974575061097481336106b8565b6109e65760405162461bcd60e51b815260206004820152603d60248201527f4552433732313a20617070726f76652063616c6c6572206973206e6f7420746f60448201527f6b656e206f776e6572206f7220617070726f76656420666f7220616c6c00000060648201526084016108b4565b6109f0838361144c565b505050565b610a4f60405180610120016040528060006001600160a01b03168152602001600081526020016000815260200160008152602001600081526020016000815260200160008152602001600081526020016000151581525090565b600082815260ce602090815260409182902082516101208101845281546001600160a01b03168082526001830154938201939093526002820154938101939093526003810154606084015260048101546080840152600581015460a0840152600681015460c0840152600781015460e08401526008015460ff161515610100830152610b165760405162461bcd60e51b81526020600482015260166024820152751cdd185ad9525b999bc81a5cc81b9bdd08195e1a5cdd60521b60448201526064016108b4565b5050600090815260ce602090815260409182902082516101208101845281546001600160a01b031681526001820154928101929092526002810154928201929092526003820154606082015260048201546080820152600582015460a0820152600682015460c0820152600782015460e082015260089091015460ff16151561010082015290565b60d08181548110610bae57600080fd5b600091825260209091200154905081565b610bc983826114ba565b610be55760405162461bcd60e51b81526004016108b490612245565b6001600160a01b038316600090815260cc60205260409020610c079082611539565b6001600160a01b038216600090815260cc60209081526040822080546001810182559083529120018190556109f0838383611604565b60ca546000906001600160a01b03163314610c6a5760405162461bcd60e51b81526004016108b490612292565b610c7382611768565b919050565b60ca546001600160a01b03163314610ca25760405162461bcd60e51b81526004016108b490612292565b60005b60d054811015610d3857600060d08281548110610cc457610cc46122c9565b9060005260206000200154905060cf5460ce60008381526020019081526020016000206003015484610cf691906122f5565b610d00919061230c565b600082815260cd602052604081208054909190610d1e90849061232e565b90915550829150610d30905081612341565b915050610ca5565b5050565b6109f0838383604051806020016040528060008152506111c8565b6000610d6283610d7e565b6001600160a01b0316826001600160a01b031614905092915050565b6000818152606760205260408120546001600160a01b0316806107955760405162461bcd60e51b8152602060048201526018602482015277115490cdcc8c4e881a5b9d985b1a59081d1bdad95b88125160421b60448201526064016108b4565b60006001600160a01b038216610e485760405162461bcd60e51b815260206004820152602960248201527f4552433732313a2061646472657373207a65726f206973206e6f7420612076616044820152683634b21037bbb732b960b91b60648201526084016108b4565b506001600160a01b031660009081526068602052604090205490565b610e6c611393565b610e7660006117fd565b565b600054610100900460ff1615808015610e985750600054600160ff909116105b80610eb25750303b158015610eb2575060005460ff166001145b610f155760405162461bcd60e51b815260206004820152602e60248201527f496e697469616c697a61626c653a20636f6e747261637420697320616c72656160448201526d191e481a5b9a5d1a585b1a5e995960921b60648201526084016108b4565b6000805460ff191660011790558015610f38576000805461ff0019166101001790555b610f7f6040518060400160405280600981526020016814dd185ad94813919560ba1b8152506040518060400160405280600481526020016314d3919560e21b81525061184f565b610f87611880565b8015610fcd576000805461ff0019169055604051600181527f7f26b83ff96e1f2b6a682f133852f6798a09c465da95921460cefb38474024989060200160405180910390a15b50565b6001600160a01b038116600090815260cc602090815260409182902080548351818402810184019094528084526060939283018282801561103057602002820191906000526020600020905b81548152602001906001019080831161101c575b50505050509050919050565b6060606680546107aa9061220b565b610d383383836118af565b60ca546000906001600160a01b031633146110835760405162461bcd60e51b81526004016108b490612292565b600061108e60c95490565b905061109e83600001518261197d565b4260a0840181905260808401516110b49161232e565b60c08401908152600082815260ce60209081526040808320875181546001600160a01b0319166001600160a01b03909116908117825583890151600180840191909155838a0151600284015560608a018051600385015560808b0151600485015560a08b015160058501559651600684015560e08a015160078401556101008a01516008909301805460ff191693151593909317909255845260cc8352818420805480830182559085528385200186905560d0805491820190557fe89d44c8fd6a9bac8af33ce47f56337617d449bf7ff3956b618c646de829cbcb0185905584835260cd9091528120819055905160cf8054919290916111b590849061232e565b909155505060c980546001019055610795565b6111d233836114ba565b6111ee5760405162461bcd60e51b81526004016108b490612245565b6111fa84848484611b08565b50505050565b606061120b826113ed565b600061122260408051602081019091526000815290565b90506000815111611242576040518060200160405280600081525061126d565b8061124c84611b3b565b60405160200161125d92919061235a565b6040516020818303038152906040525b9392505050565b60cc602052816000526040600020818154811061129057600080fd5b90600052602060002001600091509150505481565b6000818152606760205260408120546001600160a01b03161515610795565b60ca546001600160a01b031633146112ee5760405162461bcd60e51b81526004016108b490612292565b60cf55565b6112fb611393565b60cb80546001600160a01b0319166001600160a01b0392909216919091179055565b611325611393565b6001600160a01b03811661138a5760405162461bcd60e51b815260206004820152602660248201527f4f776e61626c653a206e6577206f776e657220697320746865207a65726f206160448201526564647265737360d01b60648201526084016108b4565b610fcd816117fd565b6097546001600160a01b03163314610e765760405162461bcd60e51b815260206004820181905260248201527f4f776e61626c653a2063616c6c6572206973206e6f7420746865206f776e657260448201526064016108b4565b6000818152606760205260409020546001600160a01b0316610fcd5760405162461bcd60e51b8152602060048201526018602482015277115490cdcc8c4e881a5b9d985b1a59081d1bdad95b88125160421b60448201526064016108b4565b600081815260696020526040902080546001600160a01b0319166001600160a01b038416908117909155819061148182610d7e565b6001600160a01b03167f8c5be1e5ebec7d5bd14f71427d1e84f3dd0314c0f7b2291e5b200ac8c7c3b92560405160405180910390a45050565b6000806114c683610d7e565b9050806001600160a01b0316846001600160a01b0316148061150d57506001600160a01b038082166000908152606a602090815260408083209388168352929052205460ff165b806115315750836001600160a01b03166115268461082d565b6001600160a01b0316145b949350505050565b815460005b8354811015611580578284828154811061155a5761155a6122c9565b90600052602060002001540361156e578091505b8061157881612341565b91505061153e565b508254810361158e57505050565b8254839061159e90600190612389565b815481106115ae576115ae6122c9565b90600052602060002001548382815481106115cb576115cb6122c9565b9060005260206000200181905550828054806115e9576115e961239c565b60019003818190600052602060002001600090559055505050565b826001600160a01b031661161782610d7e565b6001600160a01b03161461163d5760405162461bcd60e51b81526004016108b4906123b2565b6001600160a01b03821661169f5760405162461bcd60e51b8152602060048201526024808201527f4552433732313a207472616e7366657220746f20746865207a65726f206164646044820152637265737360e01b60648201526084016108b4565b826001600160a01b03166116b282610d7e565b6001600160a01b0316146116d85760405162461bcd60e51b81526004016108b4906123b2565b600081815260696020908152604080832080546001600160a01b03199081169091556001600160a01b0387811680865260688552838620805460001901905590871680865283862080546001019055868652606790945282852080549092168417909155905184937fddf252ad1be2c89b69c2b068fc378daa952ba7f163c4a11628f55a4df523b3ef91a4505050565b600061177382610d7e565b905061177e82610d7e565b600083815260696020908152604080832080546001600160a01b03199081169091556001600160a01b0385168085526068845282852080546000190190558785526067909352818420805490911690555192935084927fddf252ad1be2c89b69c2b068fc378daa952ba7f163c4a11628f55a4df523b3ef908390a45050565b609780546001600160a01b038381166001600160a01b0319831681179093556040519116919082907f8be0079c531659141344cd1fd0a4f28419497f9722a3daafe3b4186f6b6457e090600090a35050565b600054610100900460ff166118765760405162461bcd60e51b81526004016108b4906123f7565b610d388282611bce565b600054610100900460ff166118a75760405162461bcd60e51b81526004016108b4906123f7565b610e76611c0e565b816001600160a01b0316836001600160a01b0316036119105760405162461bcd60e51b815260206004820152601960248201527f4552433732313a20617070726f766520746f2063616c6c65720000000000000060448201526064016108b4565b6001600160a01b038381166000818152606a6020908152604080832094871680845294825291829020805460ff191686151590811790915591519182527f17307eab39ab6107e8899845ad3d59bd9653f200f220920489ca2b5937696c31910160405180910390a3505050565b6001600160a01b0382166119d35760405162461bcd60e51b815260206004820181905260248201527f4552433732313a206d696e7420746f20746865207a65726f206164647265737360448201526064016108b4565b6000818152606760205260409020546001600160a01b031615611a385760405162461bcd60e51b815260206004820152601c60248201527f4552433732313a20746f6b656e20616c7265616479206d696e7465640000000060448201526064016108b4565b6000818152606760205260409020546001600160a01b031615611a9d5760405162461bcd60e51b815260206004820152601c60248201527f4552433732313a20746f6b656e20616c7265616479206d696e7465640000000060448201526064016108b4565b6001600160a01b038216600081815260686020908152604080832080546001019055848352606790915280822080546001600160a01b0319168417905551839291907fddf252ad1be2c89b69c2b068fc378daa952ba7f163c4a11628f55a4df523b3ef908290a45050565b611b13848484611604565b611b1f84848484611c3e565b6111fa5760405162461bcd60e51b81526004016108b490612442565b60606000611b4883611d3f565b600101905060008167ffffffffffffffff811115611b6857611b6861202b565b6040519080825280601f01601f191660200182016040528015611b92576020820181803683370190505b5090508181016020015b600019016f181899199a1a9b1b9c1cb0b131b232b360811b600a86061a8153600a8504945084611b9c57509392505050565b600054610100900460ff16611bf55760405162461bcd60e51b81526004016108b4906123f7565b6065611c0183826124e2565b5060666109f082826124e2565b600054610100900460ff16611c355760405162461bcd60e51b81526004016108b4906123f7565b610e76336117fd565b60006001600160a01b0384163b15611d3457604051630a85bd0160e11b81526001600160a01b0385169063150b7a0290611c829033908990889088906004016125a2565b6020604051808303816000875af1925050508015611cbd575060408051601f3d908101601f19168201909252611cba918101906125df565b60015b611d1a573d808015611ceb576040519150601f19603f3d011682016040523d82523d6000602084013e611cf0565b606091505b508051600003611d125760405162461bcd60e51b81526004016108b490612442565b805181602001fd5b6001600160e01b031916630a85bd0160e11b149050611531565b506001949350505050565b60008072184f03e93ff9f4daa797ed6e38ed64bf6a1f0160401b8310611d7e5772184f03e93ff9f4daa797ed6e38ed64bf6a1f0160401b830492506040015b6d04ee2d6d415b85acef81000000008310611daa576d04ee2d6d415b85acef8100000000830492506020015b662386f26fc100008310611dc857662386f26fc10000830492506010015b6305f5e1008310611de0576305f5e100830492506008015b6127108310611df457612710830492506004015b60648310611e06576064830492506002015b600a83106107955760010192915050565b80356001600160a01b0381168114610c7357600080fd5b600060208284031215611e4057600080fd5b61126d82611e17565b6001600160e01b031981168114610fcd57600080fd5b600060208284031215611e7157600080fd5b813561126d81611e49565b60005b83811015611e97578181015183820152602001611e7f565b50506000910152565b60008151808452611eb8816020860160208601611e7c565b601f01601f19169290920160200192915050565b60208152600061126d6020830184611ea0565b600060208284031215611ef157600080fd5b5035919050565b80358015158114610c7357600080fd5b60008060408385031215611f1b57600080fd5b82359150611f2b60208401611ef8565b90509250929050565b60008060408385031215611f4757600080fd5b611f5083611e17565b946020939093013593505050565b600080600060608486031215611f7357600080fd5b611f7c84611e17565b9250611f8a60208501611e17565b9150604084013590509250925092565b60008060408385031215611fad57600080fd5b82359150611f2b60208401611e17565b6020808252825182820181905260009190848201906040850190845b81811015611ff557835183529284019291840191600101611fd9565b50909695505050505050565b6000806040838503121561201457600080fd5b61201d83611e17565b9150611f2b60208401611ef8565b634e487b7160e01b600052604160045260246000fd5b604051610120810167ffffffffffffffff811182821017156120655761206561202b565b60405290565b604051601f8201601f1916810167ffffffffffffffff811182821017156120945761209461202b565b604052919050565b600061012082840312156120af57600080fd5b6120b7612041565b6120c083611e17565b81526020830135602082015260408301356040820152606083013560608201526080830135608082015260a083013560a082015260c083013560c082015260e083013560e0820152610100612116818501611ef8565b908201529392505050565b6000806000806080858703121561213757600080fd5b61214085611e17565b9350602061214f818701611e17565b935060408601359250606086013567ffffffffffffffff8082111561217357600080fd5b818801915088601f83011261218757600080fd5b8135818111156121995761219961202b565b6121ab601f8201601f1916850161206b565b915080825289848285010111156121c157600080fd5b808484018584013760008482840101525080935050505092959194509250565b600080604083850312156121f457600080fd5b6121fd83611e17565b9150611f2b60208401611e17565b600181811c9082168061221f57607f821691505b60208210810361223f57634e487b7160e01b600052602260045260246000fd5b50919050565b6020808252602d908201527f4552433732313a2063616c6c6572206973206e6f7420746f6b656e206f776e6560408201526c1c881bdc88185c1c1c9bdd9959609a1b606082015260800190565b6020808252601e908201527f6d73672073656e6465722073686f756c6420626520696e766920636f72650000604082015260600190565b634e487b7160e01b600052603260045260246000fd5b634e487b7160e01b600052601160045260246000fd5b8082028115828204841417610795576107956122df565b60008261232957634e487b7160e01b600052601260045260246000fd5b500490565b80820180821115610795576107956122df565b600060018201612353576123536122df565b5060010190565b6000835161236c818460208801611e7c565b835190830190612380818360208801611e7c565b01949350505050565b81810381811115610795576107956122df565b634e487b7160e01b600052603160045260246000fd5b60208082526025908201527f4552433732313a207472616e736665722066726f6d20696e636f72726563742060408201526437bbb732b960d91b606082015260800190565b6020808252602b908201527f496e697469616c697a61626c653a20636f6e7472616374206973206e6f74206960408201526a6e697469616c697a696e6760a81b606082015260800190565b60208082526032908201527f4552433732313a207472616e7366657220746f206e6f6e20455243373231526560408201527131b2b4bb32b91034b6b83632b6b2b73a32b960711b606082015260800190565b601f8211156109f057600081815260208120601f850160051c810160208610156124bb5750805b601f850160051c820191505b818110156124da578281556001016124c7565b505050505050565b815167ffffffffffffffff8111156124fc576124fc61202b565b6125108161250a845461220b565b84612494565b602080601f831160018114612545576000841561252d5750858301515b600019600386901b1c1916600185901b1785556124da565b600085815260208120601f198616915b8281101561257457888601518255948401946001909101908401612555565b50858210156125925787850151600019600388901b60f8161c191681555b5050505050600190811b01905550565b6001600160a01b03858116825284166020820152604081018390526080606082018190526000906125d590830184611ea0565b9695505050505050565b6000602082840312156125f157600080fd5b815161126d81611e4956fea26469706673582212209c9d835fa560000f69273fff381ecf87f9d19bf4e253f77fe117e7effc2500be64736f6c63430008120033",
  "linkReferences": {},
  "deployedLinkReferences": {}
}